{
  "contractName": "Multicall",
  "abi": [
    {
      "inputs": [
        {
          "components": [
            {
              "internalType": "address",
              "name": "target",
              "type": "address"
            },
            {
              "internalType": "bytes",
              "name": "callData",
              "type": "bytes"
            }
          ],
          "internalType": "struct Multicall.Call[]",
          "name": "calls",
          "type": "tuple[]"
        }
      ],
      "name": "aggregate",
      "outputs": [
        {
          "internalType": "uint256",
          "name": "blockNumber",
          "type": "uint256"
        },
        {
          "internalType": "bytes[]",
          "name": "returnData",
          "type": "bytes[]"
        }
      ],
      "stateMutability": "nonpayable",
      "type": "function"
    },
    {
      "inputs": [
        {
          "internalType": "address",
          "name": "addr",
          "type": "address"
        }
      ],
      "name": "getEthBalance",
      "outputs": [
        {
          "internalType": "uint256",
          "name": "balance",
          "type": "uint256"
        }
      ],
      "stateMutability": "view",
      "type": "function"
    }
  ],
  "bytecode": "0x60806040523480156100195760008061001661001f565b50505b5061008a565b632a2a7adb598160e01b8152600481016020815285602082015260005b8681101561005757808601518282016040015260200161003c565b506020828760640184336000905af158600e01573d6000803e3d6000fd5b3d6001141558600a015760016000f35b505050565b61083f806100996000396000f3fe608060405234801561001957600080610016610285565b50505b506004361061003f5760003560e01c8063252dba421461004d5780634d2301cc14610077575b60008061004a610285565b50505b61006061005b366004610596565b610097565b60405161006e929190610767565b60405180910390f35b61008a61008536600461056c565b6101df565b60405161006e919061075e565b600060605a6100a46102f0565b9150825167ffffffffffffffff811180156100c7576000806100c4610285565b50505b506040519080825280602002602001820160405280156100fb57816020015b60608152602001906001900390816100e65790505b50905060005b83518110156101d95760008085838151811061011957fe5b6020026020010151516001600160a01b031686848151811061013757fe5b602002602001015160200151604051610150919061072e565b6000604051808303816000865a61016561034a565b5050505050509150503d806000811461019a576040513d603f01601f191681016040523d815291503d6000602084013e61019f565b606091505b5091509150816101b7576000806101b4610285565b50505b808484815181106101c457fe5b60209081029190910101525050600101610101565b50915091565b60006006602160991b016370a08231836040518263ffffffff1660e01b815260040161020b919061074a565b602060405180830381868061021e610435565b15801561023357600080610230610285565b50505b505a61023d610481565b505050505015801561025c573d6000803e3d6000610259610285565b50505b50505050604051601f3d908101601f1916820160405261027f919081019061070b565b92915050565b632a2a7adb598160e01b8152600481016020815285602082015260005b868110156102bd5780860151828201604001526020016102a2565b506020828760640184336000905af158600e01573d6000803e3d6000fd5b3d6001141558600a015760016000f35b505050565b635a98c361598160e01b8152602081600483336000905af158600e01573d6000803e3d6000fd5b3d6001141558600a015760016000f35b8051935060005b60408110156103455760008282015260200161032e565b505050565b6385979f76598160e01b815261037b565b808083111561027f575090919050565b808083101561027f575090919050565b836004820152846024820152606060448201528760648201526084810160005b898110156103b357808901518282015260200161039b565b506060828a60a40184336000905af158600e01573d6000803e3d6000fd5b3d6001141558600a015760016000f35b815160408301513d6000853e8c8c82606087013350600060045af150596104088e3d61036b565b8d01610414818761035b565b5b828110156104295760008152602001610415565b50929d50505050505050565b638435035b598160e01b8152836004820152602081602483336000905af158600e01573d6000803e3d6000fd5b3d6001141558600a015760016000f35b8051600082529350602061032e565b638540661f598160e01b8152836004820152846024820152606060448201528660648201526084810160005b888110156104c55780880151828201526020016104ad565b506060828960a40184336000905af158600e01573d6000803e3d6000fd5b3d6001141558600a015760016000f35b815160408301513d6000853e8b8b82606087013350600060045af1505961051a8d3d61036b565b8c01610526818761035b565b5b8281101561053b5760008152602001610527565b50929c50505050505050565b80356001600160a01b038116811461056757600080610564610285565b50505b919050565b600060208284031215610586578081610583610285565b50505b61058f82610547565b9392505050565b600060208083850312156105b15781826105ae610285565b50505b67ffffffffffffffff80843511156105d05782836105cd610285565b50505b8335840185601f8201126105eb5783846105e8610285565b50505b8035828111156105f757fe5b61060484858302016107e7565b81815284810190838601875b848110156106fc5781358601601f196040828e0382011215610639578a8b610636610285565b50505b604051604081018181108b8211171561064e57fe5b60405261065c838c01610547565b815260408301358a811115610678578c8d610675610285565b50505b8084019350508d603f840112610695578b8c610692610285565b50505b8a8301358a8111156106a357fe5b6106b38c84601f840116016107e7565b92508083528e60408286010111156106d2578c8d6106cf610285565b50505b80604085018d85013782018b018c9052808b01919091528552509287019290870190600101610610565b50909998505050505050505050565b600060208284031215610725578081610722610285565b50505b81519392505050565b6000825161074081846020870161080f565b9190910192915050565b6001600160a01b0391909116815260200190565b90815260200190565b600060408201848352602060408185015281855180845260608601915060608382028701019350828701855b828110156107d957878603605f19018452815180518088526107ba81888a0189850161080f565b601f01601f191696909601850195509284019290840190600101610793565b509398975050505050505050565b6000604051905081810181811067ffffffffffffffff8211171561080757fe5b604052919050565b60005b8381101561082a578082015183820152602001610812565b83811115610839576000848401525b5050505056",
  "immutableReferences": {},
  "source": "pragma solidity >=0.7.6;\npragma experimental ABIEncoderV2;\n\ninterface Balance {\n    /**\n     * @dev Returns the amount of tokens owned by `account`.\n     */\n    function balanceOf(address account) external view returns (uint256);\n}\n\n/// @title Multicall - Aggregate results from multiple read-only function calls\n/// @author Michael Elliot <mike@makerdao.com>\n/// @author Joshua Levine <joshua@makerdao.com>\n/// @author Nick Johnson <arachnid@notdot.net>\n\ncontract Multicall {\n    struct Call {\n        address target;\n        bytes callData;\n    }\n\n    function aggregate(Call[] memory calls)\n        public\n        returns (uint256 blockNumber, bytes[] memory returnData)\n    {\n        blockNumber = block.number;\n        returnData = new bytes[](calls.length);\n        for (uint256 i = 0; i < calls.length; i++) {\n            (bool success, bytes memory ret) = calls[i].target.call(\n                calls[i].callData\n            );\n            require(success);\n            returnData[i] = ret;\n        }\n    }\n\n    // Helper functions\n    function getEthBalance(address addr) public view returns (uint256 balance) {\n        balance = Balance(address(0x4200000000000000000000000000000000000006))\n            .balanceOf(addr);\n    }\n}\n",
  "sourcePath": "/home/justin/anyswap/L2Router/contracts/omg/contracts/OMG_Multicall.sol",
  "compiler": {
    "name": "solc",
    "version": "0.7.6"
  },
  "schemaVersion": "3.2.4",
  "updatedAt": "2021-09-02T09:01:47.326Z",
  "devdoc": {
    "author": "Michael Elliot <mike@makerdao.com>Joshua Levine <joshua@makerdao.com>Nick Johnson <arachnid@notdot.net>",
    "kind": "dev",
    "methods": {},
    "title": "Multicall - Aggregate results from multiple read-only function calls",
    "version": 1
  },
  "userdoc": {
    "kind": "user",
    "methods": {},
    "version": 1
  }
}