{
  "contractName": "SushiswapV2Proxy",
  "abi": [
    {
      "inputs": [
        {
          "internalType": "address",
          "name": "_factory",
          "type": "address"
        }
      ],
      "stateMutability": "nonpayable",
      "type": "constructor"
    },
    {
      "anonymous": false,
      "inputs": [
        {
          "indexed": true,
          "internalType": "address",
          "name": "factory",
          "type": "address"
        }
      ],
      "name": "LogSetFactory",
      "type": "event"
    },
    {
      "inputs": [],
      "name": "admin",
      "outputs": [
        {
          "internalType": "address",
          "name": "",
          "type": "address"
        }
      ],
      "stateMutability": "view",
      "type": "function"
    },
    {
      "inputs": [],
      "name": "factory",
      "outputs": [
        {
          "internalType": "address",
          "name": "",
          "type": "address"
        }
      ],
      "stateMutability": "view",
      "type": "function"
    },
    {
      "inputs": [
        {
          "internalType": "address",
          "name": "_admin",
          "type": "address"
        }
      ],
      "name": "setAdmin",
      "outputs": [],
      "stateMutability": "nonpayable",
      "type": "function"
    },
    {
      "inputs": [
        {
          "internalType": "address",
          "name": "_factory",
          "type": "address"
        }
      ],
      "name": "setFactory",
      "outputs": [
        {
          "internalType": "bool",
          "name": "",
          "type": "bool"
        }
      ],
      "stateMutability": "nonpayable",
      "type": "function"
    },
    {
      "inputs": [
        {
          "internalType": "uint256",
          "name": "amountA",
          "type": "uint256"
        },
        {
          "internalType": "uint256",
          "name": "reserveA",
          "type": "uint256"
        },
        {
          "internalType": "uint256",
          "name": "reserveB",
          "type": "uint256"
        }
      ],
      "name": "quote",
      "outputs": [
        {
          "internalType": "uint256",
          "name": "amountB",
          "type": "uint256"
        }
      ],
      "stateMutability": "pure",
      "type": "function"
    },
    {
      "inputs": [
        {
          "internalType": "uint256",
          "name": "amountIn",
          "type": "uint256"
        },
        {
          "internalType": "uint256",
          "name": "reserveIn",
          "type": "uint256"
        },
        {
          "internalType": "uint256",
          "name": "reserveOut",
          "type": "uint256"
        }
      ],
      "name": "getAmountOut",
      "outputs": [
        {
          "internalType": "uint256",
          "name": "amountOut",
          "type": "uint256"
        }
      ],
      "stateMutability": "pure",
      "type": "function"
    },
    {
      "inputs": [
        {
          "internalType": "uint256",
          "name": "amountOut",
          "type": "uint256"
        },
        {
          "internalType": "uint256",
          "name": "reserveIn",
          "type": "uint256"
        },
        {
          "internalType": "uint256",
          "name": "reserveOut",
          "type": "uint256"
        }
      ],
      "name": "getAmountIn",
      "outputs": [
        {
          "internalType": "uint256",
          "name": "amountIn",
          "type": "uint256"
        }
      ],
      "stateMutability": "pure",
      "type": "function"
    },
    {
      "inputs": [
        {
          "internalType": "uint256",
          "name": "amountIn",
          "type": "uint256"
        },
        {
          "internalType": "address[]",
          "name": "path",
          "type": "address[]"
        }
      ],
      "name": "getAmountsOut",
      "outputs": [
        {
          "internalType": "uint256[]",
          "name": "amounts",
          "type": "uint256[]"
        }
      ],
      "stateMutability": "view",
      "type": "function"
    },
    {
      "inputs": [
        {
          "internalType": "uint256",
          "name": "amountOut",
          "type": "uint256"
        },
        {
          "internalType": "address[]",
          "name": "path",
          "type": "address[]"
        }
      ],
      "name": "getAmountsIn",
      "outputs": [
        {
          "internalType": "uint256[]",
          "name": "amounts",
          "type": "uint256[]"
        }
      ],
      "stateMutability": "view",
      "type": "function"
    }
  ],
  "bytecode": "0x60806040523480156200001c5760008062000019620002e0565b50505b506040516200182838038062001828833981810160405260208110156200004d576000806200004a620002e0565b50505b810190808051925050505a620000626200034d565b6001808062000070620003a9565b816001600160a01b0302191690836001600160a01b031602179062000094620003f6565b5050506001600160a01b03811615620000b457620000b281620000bb565b505b5062000445565b6000806001620000ca620003a9565b906101000a90046001600160a01b03166001600160a01b03165a620000ee6200034d565b6001600160a01b031614620001545760405162461bcd60e51b815260206004820152601b60248201527f537573686973776170563250726f78793a20464f5242494444454e000000000060448201526064016040518091039062000151620002e0565b50505b6000808062000162620003a9565b906101000a90046001600160a01b03166001600160a01b031614620001d85760405162461bcd60e51b815260206004820152601b60248201527f537573686973776170563250726f78793a20464f5242494444454e0000000000604482015260640160405180910390620001d5620002e0565b50505b6001600160a01b0382166200023e5760405162461bcd60e51b815260206004820152601e60248201527f537573686973776170563250726f78793a2061646472657373283078302900006044820152606401604051809103906200023b620002e0565b50505b8160006001816200024e620003a9565b816001600160a01b0302191690836001600160a01b031602179062000272620003f6565b5062000280915050620002bd565b6001600160a01b03167f68ec1681f33885e64cf3268f285f4789bd226f23a394700823d46105a1c03e8160405160405180910390a2506001919050565b60008080620002cb620003a9565b906101000a90046001600160a01b0316905090565b632a2a7adb598160e01b8152600481016020815285602082015260005b868110156200031a578086015182820160400152602001620002fd565b506020828760640184336000905af158600e01573d6000803e3d6000fd5b3d6001141558600a015760016000f35b505050565b6373509064598160e01b8152602081600483336000905af158600e01573d6000803e3d6000fd5b3d6001141558600a015760016000f35b8051935060005b6040811015620003a4576000828201526020016200038b565b505050565b6303daa959598160e01b8152836004820152602081602483336000905af158600e01573d6000803e3d6000fd5b3d6001141558600a015760016000f35b805160008252935060206200038b565b6322bd64c0598160e01b8152836004820152846024820152600081604483336000905af158600e01573d6000803e3d6000fd5b3d6001141558600a015760016000f35b6000815260206200038b565b6113d380620004556000396000f3fe608060405234801561001957600080610016611069565b50505b506004361061009c5760003560e01c806385f8c2591161006f57806385f8c25914610283578063ad615dec146102b5578063c45a0155146102e7578063d06ca61f1461030b578063f851a440146103d95761009c565b8063054d50d4146100aa5780631f00ca74146100ee5780635bb478081461020f578063704b6c0214610252575b6000806100a7611069565b50505b6100dc600480360360608110156100c9576000806100c6611069565b50505b50803590602081013590604001356103e1565b60405190815260200160405180910390f35b6101bc6004803603604081101561010d5760008061010a611069565b50505b8135919081019060408101602082013564010000000081111561013857600080610135611069565b50505b82018360208201111561015357600080610150611069565b50505b8035906020019184602083028401116401000000008311171561017e5760008061017b611069565b50505b9190808060200260200160405190810160405280939291908181526020018383602002808284376000920191909152509295506103f6945050505050565b60405160208082528190810183818151815260200191508051906020019060200280838360005b838110156101fb5780820151838201526020016101e3565b505050509050019250505060405180910390f35b61023e6004803603602081101561022e5760008061022b611069565b50505b50356001600160a01b0316610413565b604051901515815260200160405180910390f35b610281600480360360208110156102715760008061026e611069565b50505b50356001600160a01b03166105ff565b005b6100dc600480360360608110156102a25760008061029f611069565b50505b50803590602081013590604001356106e1565b6100dc600480360360608110156102d4576000806102d1611069565b50505b50803590602081013590604001356106ee565b6102ef6106fb565b6040516001600160a01b03909116815260200160405180910390f35b6101bc6004803603604081101561032a57600080610327611069565b50505b8135919081019060408101602082013564010000000081111561035557600080610352611069565b50505b8201836020820111156103705760008061036d611069565b50505b8035906020019184602083028401116401000000008311171561039b57600080610398611069565b50505b91908080602002602001604051908101604052809392919081815260200183836020028082843760009201919091525092955061071c945050505050565b6102ef610730565b60006103ee84848461074f565b949350505050565b606061040a6104036106fb565b8484610839565b90505b92915050565b60008060016104206110d4565b906101000a90046001600160a01b03166001600160a01b03165a610442611134565b6001600160a01b0316146104a55760405162461bcd60e51b815260206004820152601b60248201527f537573686973776170563250726f78793a20464f5242494444454e00000000006044820152606401604051809103906104a2611069565b50505b600080806104b16110d4565b906101000a90046001600160a01b03166001600160a01b0316146105245760405162461bcd60e51b815260206004820152601b60248201527f537573686973776170563250726f78793a20464f5242494444454e0000000000604482015260640160405180910390610521611069565b50505b6001600160a01b0382166105875760405162461bcd60e51b815260206004820152601e60248201527f537573686973776170563250726f78793a206164647265737328307830290000604482015260640160405180910390610584611069565b50505b8160006001816105956110d4565b816001600160a01b0302191690836001600160a01b03160217906105b761117a565b5050506105c26106fb565b6001600160a01b03167f68ec1681f33885e64cf3268f285f4789bd226f23a394700823d46105a1c03e8160405160405180910390a2506001919050565b6000600161060b6110d4565b906101000a90046001600160a01b03166001600160a01b03165a61062d611134565b6001600160a01b0316146106905760405162461bcd60e51b815260206004820152601b60248201527f537573686973776170563250726f78793a20464f5242494444454e000000000060448201526064016040518091039061068d611069565b50505b6001600160a01b0381166106ac576000806106a9611069565b50505b80600180806106b96110d4565b816001600160a01b0302191690836001600160a01b03160217906106db61117a565b50505050565b60006103ee84848461099b565b60006103ee848484610a85565b600080806107076110d4565b906101000a90046001600160a01b0316905090565b606061040a6107296106fb565b8484610b3d565b6000600161073c6110d4565b906101000a90046001600160a01b031681565b60008084116107985760405162461bcd60e51b815260040180806020018281038252602d8152602001806113a6602d913960400191505060405180910390610795611069565b50505b6000831180156107a85750600082115b6107ec5760405162461bcd60e51b815260040180806020018281038252602a815260200180611300602a9139604001915050604051809103906107e9611069565b50505b60006107fa856103e5610c85565b905060006108088285610c85565b905060006108228361081c886103e8610c85565b90610cf5565b905080828161082d57fe5b04979650505050505050565b606060028251101561089a5760405162461bcd60e51b815260206004820181905260248201527f53757368697377617056324c6962726172793a20494e56414c49445f50415448604482015260640160405180910390610897611069565b50505b815167ffffffffffffffff811180156108bb576000806108b8611069565b50505b506040519080825280602002602001820160405280156108e5578160200160208202803683370190505b50905082816001835103815181106108f957fe5b6020026020010181815250506000600183510390505b80156109935760008061094c8786600186038151811061092b57fe5b602002602001015187868151811061093f57fe5b6020026020010151610d49565b9150915061096e84848151811061095f57fe5b6020026020010151838361099b565b84600185038151811061097d57fe5b602090810291909101015250506000190161090f565b509392505050565b60008084116109e45760405162461bcd60e51b815260040180806020018281038252602e815260200180611351602e9139604001915050604051809103906109e1611069565b50505b6000831180156109f45750600082115b610a385760405162461bcd60e51b815260040180806020018281038252602a815260200180611300602a913960400191505060405180910390610a35611069565b50505b6000610a506103e8610a4a8688610c85565b90610c85565b90506000610a646103e5610a4a8689610e56565b9050610a7b6001828481610a7457fe5b0490610cf5565b9695505050505050565b6000808411610ace5760405162461bcd60e51b815260040180806020018281038252602781526020018061137f6027913960400191505060405180910390610acb611069565b50505b600083118015610ade5750600082115b610b225760405162461bcd60e51b815260040180806020018281038252602a815260200180611300602a913960400191505060405180910390610b1f611069565b50505b82610b2d8584610c85565b81610b3457fe5b04949350505050565b6060600282511015610b9e5760405162461bcd60e51b815260206004820181905260248201527f53757368697377617056324c6962726172793a20494e56414c49445f50415448604482015260640160405180910390610b9b611069565b50505b815167ffffffffffffffff81118015610bbf57600080610bbc611069565b50505b50604051908082528060200260200182016040528015610be9578160200160208202803683370190505b5090508281600081518110610bfa57fe5b60200260200101818152505060005b600183510381101561099357600080610c3f87868581518110610c2857fe5b602002602001015187866001018151811061093f57fe5b91509150610c61848481518110610c5257fe5b6020026020010151838361074f565b848460010181518110610c7057fe5b60209081029190910101525050600101610c09565b6000811580610ca057505080820282828281610c9d57fe5b04145b61040d5760405162461bcd60e51b815260206004820152601460248201527364732d6d6174682d6d756c2d6f766572666c6f7760601b604482015260640160405180910390610ced611069565b505092915050565b8082018281101561040d5760405162461bcd60e51b815260206004820152601460248201527364732d6d6174682d6164642d6f766572666c6f7760601b604482015260640160405180910390610ced611069565b6000806000610d588585610eab565b509050600080610d69888888610f9a565b6001600160a01b0316630902f1ac6040518163ffffffff1660e01b81526004016060604051808303818680610d9c6111c8565b158015610db157600080610dae611069565b50505b505a610dbb611214565b5050505050158015610dda573d6000803e3d6000610dd7611069565b50505b505050506040513d6060811015610df957600080610df6611069565b50505b810190808051929190602001805192919060200180515050506dffffffffffffffffffffffffffff9283169450501690506001600160a01b0387811690841614610e44578082610e47565b81815b90999098509650505050505050565b8082038281111561040d5760405162461bcd60e51b815260206004820152601560248201527464732d6d6174682d7375622d756e646572666c6f7760581b604482015260640160405180910390610ced611069565b600080826001600160a01b0316846001600160a01b03161415610f085760405162461bcd60e51b815260040180806020018281038252602781526020018061132a6027913960400191505060405180910390610f05611069565b50505b826001600160a01b0316846001600160a01b031610610f28578284610f2b565b83835b90925090506001600160a01b038216610f935760405162461bcd60e51b815260206004820181905260248201527f53757368697377617056324c6962726172793a205a45524f5f41444452455353604482015260640160405180910390610f90611069565b50505b9250929050565b6000806000610fa98585610eab565b915091508582826040516bffffffffffffffffffffffff19606093841b811660208301529190921b166034820152604801604051602081830303815290604052805190602001206040516001600160f81b0319602082015260609290921b6bffffffffffffffffffffffff1916602183015260358201527fe18a34eb0e04b04f7a0ac29a6e80748dca96319b42c54d679cb821dca90c63036055820152607501604051602081830303815290604052805190602001209695505050505050565b632a2a7adb598160e01b8152600481016020815285602082015260005b868110156110a1578086015182820160400152602001611086565b506020828760640184336000905af158600e01573d6000803e3d6000fd5b3d6001141558600a015760016000f35b505050565b6303daa959598160e01b8152836004820152602081602483336000905af158600e01573d6000803e3d6000fd5b3d6001141558600a015760016000f35b8051935060005b604081101561112f57600082820152602001611118565b505050565b6373509064598160e01b8152602081600483336000905af158600e01573d6000803e3d6000fd5b3d6001141558600a015760016000f35b80516000825293506020611118565b6322bd64c0598160e01b8152836004820152846024820152600081604483336000905af158600e01573d6000803e3d6000fd5b3d6001141558600a015760016000f35b600081526020611118565b638435035b598160e01b8152836004820152602081602483336000905af158600e01573d6000803e3d6000fd5b3d6001141558600a015760016000f35b80516000825293506020611118565b638540661f598160e01b8152611245565b808083111561040d575090919050565b808083101561040d575090919050565b836004820152846024820152606060448201528660648201526084810160005b8881101561127d578088015182820152602001611265565b506060828960a40184336000905af158600e01573d6000803e3d6000fd5b3d6001141558600a015760016000f35b815160408301513d6000853e8b8b82606087013350600060045af150596112d28d3d611235565b8c016112de8187611225565b5b828110156112f357600081526020016112df565b50929c5050505050505056fe53757368697377617056324c6962726172793a20494e53554646494349454e545f4c495155494449545953757368697377617056324c6962726172793a204944454e544943414c5f41444452455353455353757368697377617056324c6962726172793a20494e53554646494349454e545f4f55545055545f414d4f554e5453757368697377617056324c6962726172793a20494e53554646494349454e545f414d4f554e5453757368697377617056324c6962726172793a20494e53554646494349454e545f494e5055545f414d4f554e54",
  "immutableReferences": {},
  "source": "// SPDX-License-Identifier: GPL-3.0-or-later\n\npragma solidity 0.7.6;\n\n// a library for performing overflow-safe math, courtesy of DappHub (https://github.com/dapphub/ds-math)\n\nlibrary SafeMathSushiswap {\n    function add(uint256 x, uint256 y) internal pure returns (uint256 z) {\n        require((z = x + y) >= x, \"ds-math-add-overflow\");\n    }\n\n    function sub(uint256 x, uint256 y) internal pure returns (uint256 z) {\n        require((z = x - y) <= x, \"ds-math-sub-underflow\");\n    }\n\n    function mul(uint256 x, uint256 y) internal pure returns (uint256 z) {\n        require(y == 0 || (z = x * y) / y == x, \"ds-math-mul-overflow\");\n    }\n}\n\ninterface ISushiswapV2Pair {\n    event Approval(\n        address indexed owner,\n        address indexed spender,\n        uint256 value\n    );\n    event Transfer(address indexed from, address indexed to, uint256 value);\n\n    function name() external pure returns (string memory);\n\n    function symbol() external pure returns (string memory);\n\n    function decimals() external pure returns (uint8);\n\n    function totalSupply() external view returns (uint256);\n\n    function balanceOf(address owner) external view returns (uint256);\n\n    function allowance(address owner, address spender)\n        external\n        view\n        returns (uint256);\n\n    function approve(address spender, uint256 value) external returns (bool);\n\n    function transfer(address to, uint256 value) external returns (bool);\n\n    function transferFrom(\n        address from,\n        address to,\n        uint256 value\n    ) external returns (bool);\n\n    function DOMAIN_SEPARATOR() external view returns (bytes32);\n\n    function PERMIT_TYPEHASH() external pure returns (bytes32);\n\n    function nonces(address owner) external view returns (uint256);\n\n    function permit(\n        address owner,\n        address spender,\n        uint256 value,\n        uint256 deadline,\n        uint8 v,\n        bytes32 r,\n        bytes32 s\n    ) external;\n\n    event Mint(address indexed sender, uint256 amount0, uint256 amount1);\n    event Burn(\n        address indexed sender,\n        uint256 amount0,\n        uint256 amount1,\n        address indexed to\n    );\n    event Swap(\n        address indexed sender,\n        uint256 amount0In,\n        uint256 amount1In,\n        uint256 amount0Out,\n        uint256 amount1Out,\n        address indexed to\n    );\n    event Sync(uint112 reserve0, uint112 reserve1);\n\n    function MINIMUM_LIQUIDITY() external pure returns (uint256);\n\n    function factory() external view returns (address);\n\n    function token0() external view returns (address);\n\n    function token1() external view returns (address);\n\n    function getReserves()\n        external\n        view\n        returns (\n            uint112 reserve0,\n            uint112 reserve1,\n            uint32 blockTimestampLast\n        );\n\n    function price0CumulativeLast() external view returns (uint256);\n\n    function price1CumulativeLast() external view returns (uint256);\n\n    function kLast() external view returns (uint256);\n\n    function mint(address to) external returns (uint256 liquidity);\n\n    function burn(address to)\n        external\n        returns (uint256 amount0, uint256 amount1);\n\n    function swap(\n        uint256 amount0Out,\n        uint256 amount1Out,\n        address to,\n        bytes calldata data\n    ) external;\n\n    function skim(address to) external;\n\n    function sync() external;\n\n    function initialize(address, address) external;\n}\n\nlibrary SushiswapV2Library {\n    using SafeMathSushiswap for uint256;\n\n    // returns sorted token addresses, used to handle return values from pairs sorted in this order\n    function sortTokens(address tokenA, address tokenB)\n        internal\n        pure\n        returns (address token0, address token1)\n    {\n        require(tokenA != tokenB, \"SushiswapV2Library: IDENTICAL_ADDRESSES\");\n        (token0, token1) = tokenA < tokenB\n            ? (tokenA, tokenB)\n            : (tokenB, tokenA);\n        require(token0 != address(0), \"SushiswapV2Library: ZERO_ADDRESS\");\n    }\n\n    // calculates the CREATE2 address for a pair without making any external calls\n    function pairFor(\n        address factory,\n        address tokenA,\n        address tokenB\n    ) internal pure returns (address pair) {\n        (address token0, address token1) = sortTokens(tokenA, tokenB);\n        pair = address(\n            uint160(\n                uint256(\n                    keccak256(\n                        abi.encodePacked(\n                            hex\"ff\",\n                            factory,\n                            keccak256(abi.encodePacked(token0, token1)),\n                            hex\"e18a34eb0e04b04f7a0ac29a6e80748dca96319b42c54d679cb821dca90c6303\" // init code hash\n                        )\n                    )\n                )\n            )\n        );\n    }\n\n    // fetches and sorts the reserves for a pair\n    function getReserves(\n        address factory,\n        address tokenA,\n        address tokenB\n    ) internal view returns (uint256 reserveA, uint256 reserveB) {\n        (address token0, ) = sortTokens(tokenA, tokenB);\n        (uint256 reserve0, uint256 reserve1, ) = ISushiswapV2Pair(\n            pairFor(factory, tokenA, tokenB)\n        ).getReserves();\n        (reserveA, reserveB) = tokenA == token0\n            ? (reserve0, reserve1)\n            : (reserve1, reserve0);\n    }\n\n    // given some amount of an asset and pair reserves, returns an equivalent amount of the other asset\n    function quote(\n        uint256 amountA,\n        uint256 reserveA,\n        uint256 reserveB\n    ) internal pure returns (uint256 amountB) {\n        require(amountA > 0, \"SushiswapV2Library: INSUFFICIENT_AMOUNT\");\n        require(\n            reserveA > 0 && reserveB > 0,\n            \"SushiswapV2Library: INSUFFICIENT_LIQUIDITY\"\n        );\n        amountB = amountA.mul(reserveB) / reserveA;\n    }\n\n    // given an input amount of an asset and pair reserves, returns the maximum output amount of the other asset\n    function getAmountOut(\n        uint256 amountIn,\n        uint256 reserveIn,\n        uint256 reserveOut\n    ) internal pure returns (uint256 amountOut) {\n        require(amountIn > 0, \"SushiswapV2Library: INSUFFICIENT_INPUT_AMOUNT\");\n        require(\n            reserveIn > 0 && reserveOut > 0,\n            \"SushiswapV2Library: INSUFFICIENT_LIQUIDITY\"\n        );\n        uint256 amountInWithFee = amountIn.mul(997);\n        uint256 numerator = amountInWithFee.mul(reserveOut);\n        uint256 denominator = reserveIn.mul(1000).add(amountInWithFee);\n        amountOut = numerator / denominator;\n    }\n\n    // given an output amount of an asset and pair reserves, returns a required input amount of the other asset\n    function getAmountIn(\n        uint256 amountOut,\n        uint256 reserveIn,\n        uint256 reserveOut\n    ) internal pure returns (uint256 amountIn) {\n        require(\n            amountOut > 0,\n            \"SushiswapV2Library: INSUFFICIENT_OUTPUT_AMOUNT\"\n        );\n        require(\n            reserveIn > 0 && reserveOut > 0,\n            \"SushiswapV2Library: INSUFFICIENT_LIQUIDITY\"\n        );\n        uint256 numerator = reserveIn.mul(amountOut).mul(1000);\n        uint256 denominator = reserveOut.sub(amountOut).mul(997);\n        amountIn = (numerator / denominator).add(1);\n    }\n\n    // performs chained getAmountOut calculations on any number of pairs\n    function getAmountsOut(\n        address factory,\n        uint256 amountIn,\n        address[] memory path\n    ) internal view returns (uint256[] memory amounts) {\n        require(path.length >= 2, \"SushiswapV2Library: INVALID_PATH\");\n        amounts = new uint256[](path.length);\n        amounts[0] = amountIn;\n        for (uint256 i; i < path.length - 1; i++) {\n            (uint256 reserveIn, uint256 reserveOut) = getReserves(\n                factory,\n                path[i],\n                path[i + 1]\n            );\n            amounts[i + 1] = getAmountOut(amounts[i], reserveIn, reserveOut);\n        }\n    }\n\n    // performs chained getAmountIn calculations on any number of pairs\n    function getAmountsIn(\n        address factory,\n        uint256 amountOut,\n        address[] memory path\n    ) internal view returns (uint256[] memory amounts) {\n        require(path.length >= 2, \"SushiswapV2Library: INVALID_PATH\");\n        amounts = new uint256[](path.length);\n        amounts[amounts.length - 1] = amountOut;\n        for (uint256 i = path.length - 1; i > 0; i--) {\n            (uint256 reserveIn, uint256 reserveOut) = getReserves(\n                factory,\n                path[i - 1],\n                path[i]\n            );\n            amounts[i - 1] = getAmountIn(amounts[i], reserveIn, reserveOut);\n        }\n    }\n}\n\ncontract SushiswapV2Proxy {\n    address private thefactory;\n    address public admin;\n\n    modifier onlyAdmin() {\n        require(msg.sender == admin, \"SushiswapV2Proxy: FORBIDDEN\");\n        _;\n    }\n\n    constructor(address _factory) {\n        admin = msg.sender;\n        if (_factory != address(0)) {\n            setFactory(_factory);\n        }\n    }\n\n    function factory() public view returns (address) {\n        return thefactory;\n    }\n\n    function setAdmin(address _admin) public onlyAdmin {\n        require(_admin != address(0));\n        admin = _admin;\n    }\n\n    function setFactory(address _factory) public onlyAdmin returns (bool) {\n        require(thefactory == address(0), \"SushiswapV2Proxy: FORBIDDEN\");\n        require(_factory != address(0), \"SushiswapV2Proxy: address(0x0)\");\n        thefactory = _factory;\n        emit LogSetFactory(factory());\n        return true;\n    }\n\n    event LogSetFactory(address indexed factory);\n\n    function sortTokens(address tokenA, address tokenB)\n        internal\n        pure\n        returns (address token0, address token1)\n    {\n        return SushiswapV2Library.sortTokens(tokenA, tokenB);\n    }\n\n    function pairFor(address tokenA, address tokenB)\n        internal\n        view\n        returns (address pair)\n    {\n        return SushiswapV2Library.pairFor(factory(), tokenA, tokenB);\n    }\n\n    function getReserves(address tokenA, address tokenB)\n        internal\n        view\n        returns (uint256 reserveA, uint256 reserveB)\n    {\n        return SushiswapV2Library.getReserves(factory(), tokenA, tokenB);\n    }\n\n    function quote(\n        uint256 amountA,\n        uint256 reserveA,\n        uint256 reserveB\n    ) public pure virtual returns (uint256 amountB) {\n        return SushiswapV2Library.quote(amountA, reserveA, reserveB);\n    }\n\n    function getAmountOut(\n        uint256 amountIn,\n        uint256 reserveIn,\n        uint256 reserveOut\n    ) public pure virtual returns (uint256 amountOut) {\n        return SushiswapV2Library.getAmountOut(amountIn, reserveIn, reserveOut);\n    }\n\n    function getAmountIn(\n        uint256 amountOut,\n        uint256 reserveIn,\n        uint256 reserveOut\n    ) public pure virtual returns (uint256 amountIn) {\n        return SushiswapV2Library.getAmountIn(amountOut, reserveIn, reserveOut);\n    }\n\n    function getAmountsOut(uint256 amountIn, address[] memory path)\n        public\n        view\n        virtual\n        returns (uint256[] memory amounts)\n    {\n        return SushiswapV2Library.getAmountsOut(factory(), amountIn, path);\n    }\n\n    function getAmountsIn(uint256 amountOut, address[] memory path)\n        public\n        view\n        virtual\n        returns (uint256[] memory amounts)\n    {\n        return SushiswapV2Library.getAmountsIn(factory(), amountOut, path);\n    }\n}\n",
  "sourcePath": "/home/justin/anyswap/L2Router/contracts/omg/contracts/OMG_SushiSwapProxy.sol",
  "compiler": {
    "name": "solc",
    "version": "0.7.6"
  },
  "schemaVersion": "3.2.4",
  "updatedAt": "2021-09-02T09:01:47.334Z",
  "devdoc": {
    "kind": "dev",
    "methods": {},
    "version": 1
  },
  "userdoc": {
    "kind": "user",
    "methods": {},
    "version": 1
  }
}