{
  "contractName": "AnyswapV3Router",
  "abi": [
    {
      "inputs": [
        {
          "internalType": "address",
          "name": "_mpc",
          "type": "address"
        },
        {
          "internalType": "address",
          "name": "_wNATIVE",
          "type": "address"
        },
        {
          "internalType": "address",
          "name": "_sushiproxy",
          "type": "address"
        }
      ],
      "stateMutability": "nonpayable",
      "type": "constructor"
    },
    {
      "anonymous": false,
      "inputs": [
        {
          "indexed": true,
          "internalType": "address",
          "name": "admin",
          "type": "address"
        }
      ],
      "name": "LogAllowAdmin",
      "type": "event"
    },
    {
      "anonymous": false,
      "inputs": [
        {
          "indexed": true,
          "internalType": "bytes32",
          "name": "txhash",
          "type": "bytes32"
        },
        {
          "indexed": true,
          "internalType": "address",
          "name": "token",
          "type": "address"
        },
        {
          "indexed": true,
          "internalType": "address",
          "name": "to",
          "type": "address"
        },
        {
          "indexed": false,
          "internalType": "uint256",
          "name": "amount",
          "type": "uint256"
        },
        {
          "indexed": false,
          "internalType": "uint256",
          "name": "fromChainID",
          "type": "uint256"
        },
        {
          "indexed": false,
          "internalType": "uint256",
          "name": "toChainID",
          "type": "uint256"
        }
      ],
      "name": "LogAnySwapIn",
      "type": "event"
    },
    {
      "anonymous": false,
      "inputs": [
        {
          "indexed": true,
          "internalType": "address",
          "name": "token",
          "type": "address"
        },
        {
          "indexed": true,
          "internalType": "address",
          "name": "from",
          "type": "address"
        },
        {
          "indexed": true,
          "internalType": "address",
          "name": "to",
          "type": "address"
        },
        {
          "indexed": false,
          "internalType": "uint256",
          "name": "amount",
          "type": "uint256"
        },
        {
          "indexed": false,
          "internalType": "uint256",
          "name": "fromChainID",
          "type": "uint256"
        },
        {
          "indexed": false,
          "internalType": "uint256",
          "name": "toChainID",
          "type": "uint256"
        }
      ],
      "name": "LogAnySwapOut",
      "type": "event"
    },
    {
      "anonymous": false,
      "inputs": [
        {
          "indexed": false,
          "internalType": "address[]",
          "name": "path",
          "type": "address[]"
        },
        {
          "indexed": true,
          "internalType": "address",
          "name": "from",
          "type": "address"
        },
        {
          "indexed": true,
          "internalType": "address",
          "name": "to",
          "type": "address"
        },
        {
          "indexed": false,
          "internalType": "uint256",
          "name": "amountIn",
          "type": "uint256"
        },
        {
          "indexed": false,
          "internalType": "uint256",
          "name": "amountOutMin",
          "type": "uint256"
        },
        {
          "indexed": false,
          "internalType": "uint256",
          "name": "fromChainID",
          "type": "uint256"
        },
        {
          "indexed": false,
          "internalType": "uint256",
          "name": "toChainID",
          "type": "uint256"
        }
      ],
      "name": "LogAnySwapTradeTokensForNative",
      "type": "event"
    },
    {
      "anonymous": false,
      "inputs": [
        {
          "indexed": false,
          "internalType": "address[]",
          "name": "path",
          "type": "address[]"
        },
        {
          "indexed": true,
          "internalType": "address",
          "name": "from",
          "type": "address"
        },
        {
          "indexed": true,
          "internalType": "address",
          "name": "to",
          "type": "address"
        },
        {
          "indexed": false,
          "internalType": "uint256",
          "name": "amountIn",
          "type": "uint256"
        },
        {
          "indexed": false,
          "internalType": "uint256",
          "name": "amountOutMin",
          "type": "uint256"
        },
        {
          "indexed": false,
          "internalType": "uint256",
          "name": "fromChainID",
          "type": "uint256"
        },
        {
          "indexed": false,
          "internalType": "uint256",
          "name": "toChainID",
          "type": "uint256"
        }
      ],
      "name": "LogAnySwapTradeTokensForTokens",
      "type": "event"
    },
    {
      "anonymous": false,
      "inputs": [
        {
          "indexed": true,
          "internalType": "address",
          "name": "oldMPC",
          "type": "address"
        },
        {
          "indexed": true,
          "internalType": "address",
          "name": "newMPC",
          "type": "address"
        },
        {
          "indexed": true,
          "internalType": "uint256",
          "name": "effectiveTime",
          "type": "uint256"
        },
        {
          "indexed": false,
          "internalType": "uint256",
          "name": "chainID",
          "type": "uint256"
        }
      ],
      "name": "LogChangeMPC",
      "type": "event"
    },
    {
      "anonymous": false,
      "inputs": [
        {
          "indexed": true,
          "internalType": "address",
          "name": "oldRouter",
          "type": "address"
        },
        {
          "indexed": true,
          "internalType": "address",
          "name": "newRouter",
          "type": "address"
        },
        {
          "indexed": false,
          "internalType": "uint256",
          "name": "chainID",
          "type": "uint256"
        }
      ],
      "name": "LogChangeRouter",
      "type": "event"
    },
    {
      "anonymous": false,
      "inputs": [],
      "name": "LogForbitAdmin",
      "type": "event"
    },
    {
      "anonymous": false,
      "inputs": [
        {
          "indexed": true,
          "internalType": "address",
          "name": "factory",
          "type": "address"
        },
        {
          "indexed": false,
          "internalType": "uint256",
          "name": "chainID",
          "type": "uint256"
        }
      ],
      "name": "LogInitMPC",
      "type": "event"
    },
    {
      "anonymous": false,
      "inputs": [
        {
          "indexed": true,
          "internalType": "address",
          "name": "factory",
          "type": "address"
        },
        {
          "indexed": false,
          "internalType": "uint256",
          "name": "chainID",
          "type": "uint256"
        }
      ],
      "name": "LogSetSushiProxy",
      "type": "event"
    },
    {
      "inputs": [],
      "name": "admin",
      "outputs": [
        {
          "internalType": "address",
          "name": "",
          "type": "address"
        }
      ],
      "stateMutability": "view",
      "type": "function"
    },
    {
      "inputs": [],
      "name": "cID",
      "outputs": [
        {
          "internalType": "uint256",
          "name": "id",
          "type": "uint256"
        }
      ],
      "stateMutability": "pure",
      "type": "function"
    },
    {
      "inputs": [
        {
          "internalType": "address",
          "name": "newMPC",
          "type": "address"
        }
      ],
      "name": "changeMPC",
      "outputs": [
        {
          "internalType": "bool",
          "name": "",
          "type": "bool"
        }
      ],
      "stateMutability": "nonpayable",
      "type": "function"
    },
    {
      "inputs": [
        {
          "internalType": "address",
          "name": "newMPC",
          "type": "address"
        }
      ],
      "name": "changeMPCInstantly",
      "outputs": [
        {
          "internalType": "bool",
          "name": "",
          "type": "bool"
        }
      ],
      "stateMutability": "nonpayable",
      "type": "function"
    },
    {
      "inputs": [],
      "name": "forbidAdmin",
      "outputs": [],
      "stateMutability": "nonpayable",
      "type": "function"
    },
    {
      "inputs": [
        {
          "internalType": "address",
          "name": "_mpc",
          "type": "address"
        }
      ],
      "name": "initialMPC",
      "outputs": [
        {
          "internalType": "bool",
          "name": "",
          "type": "bool"
        }
      ],
      "stateMutability": "nonpayable",
      "type": "function"
    },
    {
      "inputs": [],
      "name": "mpc",
      "outputs": [
        {
          "internalType": "address",
          "name": "",
          "type": "address"
        }
      ],
      "stateMutability": "view",
      "type": "function"
    },
    {
      "inputs": [],
      "name": "underAdmin",
      "outputs": [
        {
          "internalType": "bool",
          "name": "",
          "type": "bool"
        }
      ],
      "stateMutability": "view",
      "type": "function"
    },
    {
      "inputs": [],
      "name": "wNATIVE",
      "outputs": [
        {
          "internalType": "address",
          "name": "",
          "type": "address"
        }
      ],
      "stateMutability": "view",
      "type": "function"
    },
    {
      "stateMutability": "payable",
      "type": "receive"
    },
    {
      "inputs": [
        {
          "internalType": "address",
          "name": "_sushiproxy",
          "type": "address"
        }
      ],
      "name": "setSushiProxy",
      "outputs": [
        {
          "internalType": "bool",
          "name": "",
          "type": "bool"
        }
      ],
      "stateMutability": "nonpayable",
      "type": "function"
    },
    {
      "inputs": [
        {
          "internalType": "address",
          "name": "token",
          "type": "address"
        },
        {
          "internalType": "address",
          "name": "newVault",
          "type": "address"
        }
      ],
      "name": "changeVault",
      "outputs": [
        {
          "internalType": "bool",
          "name": "",
          "type": "bool"
        }
      ],
      "stateMutability": "nonpayable",
      "type": "function"
    },
    {
      "inputs": [
        {
          "internalType": "address",
          "name": "token",
          "type": "address"
        },
        {
          "internalType": "address",
          "name": "to",
          "type": "address"
        },
        {
          "internalType": "uint256",
          "name": "amount",
          "type": "uint256"
        },
        {
          "internalType": "uint256",
          "name": "toChainID",
          "type": "uint256"
        }
      ],
      "name": "anySwapOutUnderlying",
      "outputs": [],
      "stateMutability": "nonpayable",
      "type": "function"
    },
    {
      "inputs": [
        {
          "internalType": "address",
          "name": "token",
          "type": "address"
        },
        {
          "internalType": "address",
          "name": "to",
          "type": "address"
        },
        {
          "internalType": "uint256",
          "name": "toChainID",
          "type": "uint256"
        }
      ],
      "name": "anySwapOutNative",
      "outputs": [],
      "stateMutability": "payable",
      "type": "function"
    },
    {
      "inputs": [
        {
          "internalType": "address",
          "name": "from",
          "type": "address"
        },
        {
          "internalType": "address",
          "name": "token",
          "type": "address"
        },
        {
          "internalType": "address",
          "name": "to",
          "type": "address"
        },
        {
          "internalType": "uint256",
          "name": "amount",
          "type": "uint256"
        },
        {
          "internalType": "uint256",
          "name": "deadline",
          "type": "uint256"
        },
        {
          "internalType": "uint8",
          "name": "v",
          "type": "uint8"
        },
        {
          "internalType": "bytes32",
          "name": "r",
          "type": "bytes32"
        },
        {
          "internalType": "bytes32",
          "name": "s",
          "type": "bytes32"
        },
        {
          "internalType": "uint256",
          "name": "toChainID",
          "type": "uint256"
        }
      ],
      "name": "anySwapOutUnderlyingWithPermit",
      "outputs": [],
      "stateMutability": "nonpayable",
      "type": "function"
    },
    {
      "inputs": [
        {
          "internalType": "address",
          "name": "from",
          "type": "address"
        },
        {
          "internalType": "address",
          "name": "token",
          "type": "address"
        },
        {
          "internalType": "address",
          "name": "to",
          "type": "address"
        },
        {
          "internalType": "uint256",
          "name": "amount",
          "type": "uint256"
        },
        {
          "internalType": "uint256",
          "name": "deadline",
          "type": "uint256"
        },
        {
          "internalType": "uint8",
          "name": "v",
          "type": "uint8"
        },
        {
          "internalType": "bytes32",
          "name": "r",
          "type": "bytes32"
        },
        {
          "internalType": "bytes32",
          "name": "s",
          "type": "bytes32"
        },
        {
          "internalType": "uint256",
          "name": "toChainID",
          "type": "uint256"
        }
      ],
      "name": "anySwapOutUnderlyingWithTransferPermit",
      "outputs": [],
      "stateMutability": "nonpayable",
      "type": "function"
    },
    {
      "inputs": [
        {
          "internalType": "address",
          "name": "token",
          "type": "address"
        },
        {
          "internalType": "address",
          "name": "to",
          "type": "address"
        },
        {
          "internalType": "uint256",
          "name": "amount",
          "type": "uint256"
        },
        {
          "internalType": "uint256",
          "name": "toChainID",
          "type": "uint256"
        }
      ],
      "name": "anySwapOut",
      "outputs": [],
      "stateMutability": "nonpayable",
      "type": "function"
    },
    {
      "inputs": [
        {
          "internalType": "address[]",
          "name": "tokens",
          "type": "address[]"
        },
        {
          "internalType": "address[]",
          "name": "to",
          "type": "address[]"
        },
        {
          "internalType": "uint256[]",
          "name": "amounts",
          "type": "uint256[]"
        },
        {
          "internalType": "uint256[]",
          "name": "toChainIDs",
          "type": "uint256[]"
        }
      ],
      "name": "anySwapOut",
      "outputs": [],
      "stateMutability": "nonpayable",
      "type": "function"
    },
    {
      "inputs": [
        {
          "internalType": "bytes32",
          "name": "txs",
          "type": "bytes32"
        },
        {
          "internalType": "address",
          "name": "token",
          "type": "address"
        },
        {
          "internalType": "address",
          "name": "to",
          "type": "address"
        },
        {
          "internalType": "uint256",
          "name": "amount",
          "type": "uint256"
        },
        {
          "internalType": "uint256",
          "name": "fromChainID",
          "type": "uint256"
        }
      ],
      "name": "anySwapInUnderlying",
      "outputs": [],
      "stateMutability": "nonpayable",
      "type": "function"
    },
    {
      "inputs": [
        {
          "internalType": "bytes32",
          "name": "txs",
          "type": "bytes32"
        },
        {
          "internalType": "address",
          "name": "token",
          "type": "address"
        },
        {
          "internalType": "address",
          "name": "to",
          "type": "address"
        },
        {
          "internalType": "uint256",
          "name": "amount",
          "type": "uint256"
        },
        {
          "internalType": "uint256",
          "name": "fromChainID",
          "type": "uint256"
        }
      ],
      "name": "anySwapInAuto",
      "outputs": [],
      "stateMutability": "nonpayable",
      "type": "function"
    },
    {
      "inputs": [
        {
          "internalType": "address",
          "name": "token",
          "type": "address"
        },
        {
          "internalType": "address",
          "name": "to",
          "type": "address"
        }
      ],
      "name": "depositNative",
      "outputs": [
        {
          "internalType": "uint256",
          "name": "",
          "type": "uint256"
        }
      ],
      "stateMutability": "payable",
      "type": "function"
    },
    {
      "inputs": [
        {
          "internalType": "address",
          "name": "token",
          "type": "address"
        },
        {
          "internalType": "uint256",
          "name": "amount",
          "type": "uint256"
        },
        {
          "internalType": "address",
          "name": "to",
          "type": "address"
        }
      ],
      "name": "withdrawNative",
      "outputs": [
        {
          "internalType": "uint256",
          "name": "",
          "type": "uint256"
        }
      ],
      "stateMutability": "nonpayable",
      "type": "function"
    },
    {
      "inputs": [
        {
          "internalType": "address",
          "name": "token",
          "type": "address"
        },
        {
          "internalType": "uint256",
          "name": "amount",
          "type": "uint256"
        }
      ],
      "name": "anySwapFeeTo",
      "outputs": [],
      "stateMutability": "nonpayable",
      "type": "function"
    },
    {
      "inputs": [
        {
          "internalType": "bytes32[]",
          "name": "txs",
          "type": "bytes32[]"
        },
        {
          "internalType": "address[]",
          "name": "tokens",
          "type": "address[]"
        },
        {
          "internalType": "address[]",
          "name": "to",
          "type": "address[]"
        },
        {
          "internalType": "uint256[]",
          "name": "amounts",
          "type": "uint256[]"
        },
        {
          "internalType": "uint256[]",
          "name": "fromChainIDs",
          "type": "uint256[]"
        }
      ],
      "name": "anySwapIn",
      "outputs": [],
      "stateMutability": "nonpayable",
      "type": "function"
    },
    {
      "inputs": [
        {
          "internalType": "bytes32",
          "name": "txs",
          "type": "bytes32"
        },
        {
          "internalType": "address",
          "name": "token",
          "type": "address"
        },
        {
          "internalType": "address",
          "name": "to",
          "type": "address"
        },
        {
          "internalType": "uint256",
          "name": "amount",
          "type": "uint256"
        },
        {
          "internalType": "uint256",
          "name": "fromChainID",
          "type": "uint256"
        }
      ],
      "name": "anySwapIn",
      "outputs": [],
      "stateMutability": "nonpayable",
      "type": "function"
    },
    {
      "inputs": [
        {
          "internalType": "uint256",
          "name": "amountIn",
          "type": "uint256"
        },
        {
          "internalType": "uint256",
          "name": "amountOutMin",
          "type": "uint256"
        },
        {
          "internalType": "address[]",
          "name": "path",
          "type": "address[]"
        },
        {
          "internalType": "address",
          "name": "to",
          "type": "address"
        },
        {
          "internalType": "uint256",
          "name": "deadline",
          "type": "uint256"
        },
        {
          "internalType": "uint256",
          "name": "toChainID",
          "type": "uint256"
        }
      ],
      "name": "anySwapOutExactTokensForTokens",
      "outputs": [],
      "stateMutability": "nonpayable",
      "type": "function"
    },
    {
      "inputs": [
        {
          "internalType": "uint256",
          "name": "amountIn",
          "type": "uint256"
        },
        {
          "internalType": "uint256",
          "name": "amountOutMin",
          "type": "uint256"
        },
        {
          "internalType": "address[]",
          "name": "path",
          "type": "address[]"
        },
        {
          "internalType": "address",
          "name": "to",
          "type": "address"
        },
        {
          "internalType": "uint256",
          "name": "deadline",
          "type": "uint256"
        },
        {
          "internalType": "uint256",
          "name": "toChainID",
          "type": "uint256"
        }
      ],
      "name": "anySwapOutExactTokensForTokensUnderlying",
      "outputs": [],
      "stateMutability": "nonpayable",
      "type": "function"
    },
    {
      "inputs": [
        {
          "internalType": "address",
          "name": "from",
          "type": "address"
        },
        {
          "internalType": "uint256",
          "name": "amountIn",
          "type": "uint256"
        },
        {
          "internalType": "uint256",
          "name": "amountOutMin",
          "type": "uint256"
        },
        {
          "internalType": "address[]",
          "name": "path",
          "type": "address[]"
        },
        {
          "internalType": "address",
          "name": "to",
          "type": "address"
        },
        {
          "internalType": "uint256",
          "name": "deadline",
          "type": "uint256"
        },
        {
          "internalType": "uint8",
          "name": "v",
          "type": "uint8"
        },
        {
          "internalType": "bytes32",
          "name": "r",
          "type": "bytes32"
        },
        {
          "internalType": "bytes32",
          "name": "s",
          "type": "bytes32"
        },
        {
          "internalType": "uint256",
          "name": "toChainID",
          "type": "uint256"
        }
      ],
      "name": "anySwapOutExactTokensForTokensUnderlyingWithPermit",
      "outputs": [],
      "stateMutability": "nonpayable",
      "type": "function"
    },
    {
      "inputs": [
        {
          "internalType": "address",
          "name": "from",
          "type": "address"
        },
        {
          "internalType": "uint256",
          "name": "amountIn",
          "type": "uint256"
        },
        {
          "internalType": "uint256",
          "name": "amountOutMin",
          "type": "uint256"
        },
        {
          "internalType": "address[]",
          "name": "path",
          "type": "address[]"
        },
        {
          "internalType": "address",
          "name": "to",
          "type": "address"
        },
        {
          "internalType": "uint256",
          "name": "deadline",
          "type": "uint256"
        },
        {
          "internalType": "uint8",
          "name": "v",
          "type": "uint8"
        },
        {
          "internalType": "bytes32",
          "name": "r",
          "type": "bytes32"
        },
        {
          "internalType": "bytes32",
          "name": "s",
          "type": "bytes32"
        },
        {
          "internalType": "uint256",
          "name": "toChainID",
          "type": "uint256"
        }
      ],
      "name": "anySwapOutExactTokensForTokensUnderlyingWithTransferPermit",
      "outputs": [],
      "stateMutability": "nonpayable",
      "type": "function"
    },
    {
      "inputs": [
        {
          "internalType": "bytes32",
          "name": "txs",
          "type": "bytes32"
        },
        {
          "internalType": "uint256",
          "name": "amountIn",
          "type": "uint256"
        },
        {
          "internalType": "uint256",
          "name": "amountOutMin",
          "type": "uint256"
        },
        {
          "internalType": "address[]",
          "name": "path",
          "type": "address[]"
        },
        {
          "internalType": "address",
          "name": "to",
          "type": "address"
        },
        {
          "internalType": "uint256",
          "name": "deadline",
          "type": "uint256"
        },
        {
          "internalType": "uint256",
          "name": "fromChainID",
          "type": "uint256"
        }
      ],
      "name": "anySwapInExactTokensForTokens",
      "outputs": [
        {
          "internalType": "uint256[]",
          "name": "amounts",
          "type": "uint256[]"
        }
      ],
      "stateMutability": "nonpayable",
      "type": "function"
    },
    {
      "inputs": [
        {
          "internalType": "uint256",
          "name": "amountIn",
          "type": "uint256"
        },
        {
          "internalType": "uint256",
          "name": "amountOutMin",
          "type": "uint256"
        },
        {
          "internalType": "address[]",
          "name": "path",
          "type": "address[]"
        },
        {
          "internalType": "address",
          "name": "to",
          "type": "address"
        },
        {
          "internalType": "uint256",
          "name": "deadline",
          "type": "uint256"
        },
        {
          "internalType": "uint256",
          "name": "toChainID",
          "type": "uint256"
        }
      ],
      "name": "anySwapOutExactTokensForNative",
      "outputs": [],
      "stateMutability": "nonpayable",
      "type": "function"
    },
    {
      "inputs": [
        {
          "internalType": "uint256",
          "name": "amountIn",
          "type": "uint256"
        },
        {
          "internalType": "uint256",
          "name": "amountOutMin",
          "type": "uint256"
        },
        {
          "internalType": "address[]",
          "name": "path",
          "type": "address[]"
        },
        {
          "internalType": "address",
          "name": "to",
          "type": "address"
        },
        {
          "internalType": "uint256",
          "name": "deadline",
          "type": "uint256"
        },
        {
          "internalType": "uint256",
          "name": "toChainID",
          "type": "uint256"
        }
      ],
      "name": "anySwapOutExactTokensForNativeUnderlying",
      "outputs": [],
      "stateMutability": "nonpayable",
      "type": "function"
    },
    {
      "inputs": [
        {
          "internalType": "address",
          "name": "from",
          "type": "address"
        },
        {
          "internalType": "uint256",
          "name": "amountIn",
          "type": "uint256"
        },
        {
          "internalType": "uint256",
          "name": "amountOutMin",
          "type": "uint256"
        },
        {
          "internalType": "address[]",
          "name": "path",
          "type": "address[]"
        },
        {
          "internalType": "address",
          "name": "to",
          "type": "address"
        },
        {
          "internalType": "uint256",
          "name": "deadline",
          "type": "uint256"
        },
        {
          "internalType": "uint8",
          "name": "v",
          "type": "uint8"
        },
        {
          "internalType": "bytes32",
          "name": "r",
          "type": "bytes32"
        },
        {
          "internalType": "bytes32",
          "name": "s",
          "type": "bytes32"
        },
        {
          "internalType": "uint256",
          "name": "toChainID",
          "type": "uint256"
        }
      ],
      "name": "anySwapOutExactTokensForNativeUnderlyingWithPermit",
      "outputs": [],
      "stateMutability": "nonpayable",
      "type": "function"
    },
    {
      "inputs": [
        {
          "internalType": "address",
          "name": "from",
          "type": "address"
        },
        {
          "internalType": "uint256",
          "name": "amountIn",
          "type": "uint256"
        },
        {
          "internalType": "uint256",
          "name": "amountOutMin",
          "type": "uint256"
        },
        {
          "internalType": "address[]",
          "name": "path",
          "type": "address[]"
        },
        {
          "internalType": "address",
          "name": "to",
          "type": "address"
        },
        {
          "internalType": "uint256",
          "name": "deadline",
          "type": "uint256"
        },
        {
          "internalType": "uint8",
          "name": "v",
          "type": "uint8"
        },
        {
          "internalType": "bytes32",
          "name": "r",
          "type": "bytes32"
        },
        {
          "internalType": "bytes32",
          "name": "s",
          "type": "bytes32"
        },
        {
          "internalType": "uint256",
          "name": "toChainID",
          "type": "uint256"
        }
      ],
      "name": "anySwapOutExactTokensForNativeUnderlyingWithTransferPermit",
      "outputs": [],
      "stateMutability": "nonpayable",
      "type": "function"
    },
    {
      "inputs": [
        {
          "internalType": "bytes32",
          "name": "txs",
          "type": "bytes32"
        },
        {
          "internalType": "uint256",
          "name": "amountIn",
          "type": "uint256"
        },
        {
          "internalType": "uint256",
          "name": "amountOutMin",
          "type": "uint256"
        },
        {
          "internalType": "address[]",
          "name": "path",
          "type": "address[]"
        },
        {
          "internalType": "address",
          "name": "to",
          "type": "address"
        },
        {
          "internalType": "uint256",
          "name": "deadline",
          "type": "uint256"
        },
        {
          "internalType": "uint256",
          "name": "fromChainID",
          "type": "uint256"
        }
      ],
      "name": "anySwapInExactTokensForNative",
      "outputs": [
        {
          "internalType": "uint256[]",
          "name": "amounts",
          "type": "uint256[]"
        }
      ],
      "stateMutability": "nonpayable",
      "type": "function"
    }
  ],
  "bytecode": "0x60806040526000806001816200001462000593565b8160ff021916908315150217906200002b620005f5565b505050734200000000000000000000000000000000000006600460006101000a816200005662000593565b816001600160a01b0302191690836001600160a01b03160217906200007a620005f5565b50505034801562000095576000806200009262000644565b50505b50604051620070c2380380620070c283398181016040526060811015620000c657600080620000c362000644565b50505b810190808051929190602001805192919060200180519250620000f69150505a620000f0620006b1565b62000139565b6001600160a01b0383161562000113576200011183620001f6565b505b6001600160a01b0381161562000130576200012e8162000399565b505b50505062000786565b806000610100816200014a62000593565b816001600160a01b0302191690836001600160a01b03160217906200016e620005f5565b50505060016000806101000a816200018562000593565b8160ff021916908315150217906200019c620005f5565b5050506000600190620001ae62000593565b906101000a90046001600160a01b03166001600160a01b03167f4ca1e636510fb5eb7a50a996b94ce31b551c71ea18b7ce9602848b9b7ef44c8460405160405180910390a250565b600062000202620004b4565b62000217576000806200021462000644565b50505b6000620002236200051e565b6001600160a01b031614620002895760405162461bcd60e51b815260206004820152601a60248201527f416e79737761705633526f757465723a20464f5242494444454e0000000000006044820152606401604051809103906200028662000644565b50505b6001600160a01b038216620002ef5760405162461bcd60e51b815260206004820152601d60248201527f416e79737761705633526f757465723a20616464726573732830783029000000604482015260640160405180910390620002ec62000644565b50505b816002600181620002ff62000593565b816001600160a01b0302191690836001600160a01b031602179062000323620005f5565b5050505a62000331620006f8565b8060036200033e620005f5565b506200034c9150506200051e565b6001600160a01b03167f5b7384df796a80bd0e76b3a25888d23d62a7b82410d4d45a45ec7cae4c6b08d16200038062000586565b60405190815260200160405180910390a2506001919050565b6000620003a5620004b4565b80620003d55750620003b66200051e565b6001600160a01b03165a620003ca620006b1565b6001600160a01b0316145b620004315760405162461bcd60e51b815260206004820152601a60248201527f416e79737761705633526f757465723a20464f5242494444454e0000000000006044820152606401604051809103906200042e62000644565b50505b8160056001816200044162000593565b816001600160a01b0302191690836001600160a01b031602179062000465620005f5565b50505060056000906200047762000593565b6001600160a01b036101009290920a9004167fdcf5801f17d6275c0da859782646316d59374e06133bdd3447a1dab5635d5a5d6200038062000586565b60008080620004c262000593565b906101000a900460ff1615156001151514801562000518575060016000620004e962000593565b906101000a90046001600160a01b03166001600160a01b03165a6200050d620006b1565b6001600160a01b0316145b90505b90565b600060036200052c62000593565b5a62000537620006f8565b106200056357600060026200054b62000593565b906101000a90046001600160a01b031690506200051b565b600060016200057162000593565b906101000a90046001600160a01b0316905090565b60005a620005186200073f565b6303daa959598160e01b8152836004820152602081602483336000905af158600e01573d6000803e3d6000fd5b3d6001141558600a015760016000f35b8051935060005b6040811015620005f057600082820152602001620005d7565b505050565b6322bd64c0598160e01b8152836004820152846024820152600081604483336000905af158600e01573d6000803e3d6000fd5b3d6001141558600a015760016000f35b600081526020620005d7565b632a2a7adb598160e01b8152600481016020815285602082015260005b868110156200067e57808601518282016040015260200162000661565b506020828760640184336000905af158600e01573d6000803e3d6000fd5b3d6001141558600a015760016000f35b505050565b6373509064598160e01b8152602081600483336000905af158600e01573d6000803e3d6000fd5b3d6001141558600a015760016000f35b80516000825293506020620005d7565b63bdbf8c36598160e01b8152602081600483336000905af158600e01573d6000803e3d6000fd5b3d6001141558600a015760016000f35b80516000825293506020620005d7565b6390580256598160e01b8152602081600483336000905af158600e01573d6000803e3d6000fd5b3d6001141558600a015760016000f35b80516000825293506020620005d7565b61692c80620007966000396000f3fe60806040526004361061018d5760003560e01c80630175b1c4146101e05780630bb57203146102415780631b91a9341461030a578063241dc2df1461038857806324663b6c146103e357806325121b761461043c578063255d6a98146106905780632fc1e728146106d55780633f88de89146107f8578063456862aa146108595780634d93bb94146108a657806352a397d5146109955780635b7b018c14610a6557806365782f5614610aaa5780636a45397214610b735780636ce65fe514610c3c578063701bb89114610c5a578063825bb13c14610ca3578063832e949214610d0457806387cc6e2f14610d595780638d7d3eea14610da45780638fd903f514610e2257806399a2f2d714610e5c57806399cd84b514610e7a5780639aa1ac6114610f69578063a5e5657114611058578063c8e174f614611097578063d77d73ce14611186578063d8b9f610146111cb578063dcd3564614611294578063dcfb77b1146112b2578063edbdf5e21461149b578063f75c2664146114f6578063f851a44014611514576101d2565b366101d2576000600461019e61638a565b906101000a90046001600160a01b03166001600160a01b03165a6101c06163e5565b6001600160a01b0316146101d057fe5b005b6000806101dd61642b565b50505b3480156101f5576000806101f261642b565b50505b506101d0600480360360a08110156102155760008061021261642b565b50505b508035906001600160a01b03602082013581169160408101359091169060608101359060800135611532565b3480156102565760008061025361642b565b50505b506101d0600480360360c08110156102765760008061027361642b565b50505b813591602081013591810190606081016040820135600160201b8111156102a5576000806102a261642b565b50505b8201836020820111156102c0576000806102bd61642b565b50505b803590602001918460208302840111600160201b831117156102ea576000806102e761642b565b50505b91935091506001600160a01b038135169060208101359060400135611977565b34801561031f5760008061031c61642b565b50505b506101d060048036036101208110156103405760008061033d61642b565b50505b506001600160a01b03813581169160208101358216916040820135169060608101359060808101359060ff60a0820135169060c08101359060e0810135906101000135611b46565b34801561039d5760008061039a61642b565b50505b506101d0600480360360808110156103bd576000806103ba61642b565b50505b506001600160a01b03813581169160208101359091169060408101359060600135611da1565b3480156103f8576000806103f561642b565b50505b50610428600480360360208110156104185760008061041561642b565b50505b50356001600160a01b0316611dbc565b604051901515815260200160405180910390f35b3480156104515760008061044e61642b565b50505b506101d0600480360360a08110156104715760008061046e61642b565b50505b810190602081018135600160201b8111156104945760008061049161642b565b50505b8201836020820111156104af576000806104ac61642b565b50505b803590602001918460208302840111600160201b831117156104d9576000806104d661642b565b50505b919390929091602081019035600160201b8111156104ff576000806104fc61642b565b50505b82018360208201111561051a5760008061051761642b565b50505b803590602001918460208302840111600160201b831117156105445760008061054161642b565b50505b919390929091602081019035600160201b81111561056a5760008061056761642b565b50505b8201836020820111156105855760008061058261642b565b50505b803590602001918460208302840111600160201b831117156105af576000806105ac61642b565b50505b919390929091602081019035600160201b8111156105d5576000806105d261642b565b50505b8201836020820111156105f0576000806105ed61642b565b50505b803590602001918460208302840111600160201b8311171561061a5760008061061761642b565b50505b919390929091602081019035600160201b8111156106405760008061063d61642b565b50505b82018360208201111561065b5760008061065861642b565b50505b803590602001918460208302840111600160201b831117156106855760008061068261642b565b50505b509092509050611ed3565b3480156106a5576000806106a261642b565b50505b50610428600480360360208110156106c5576000806106c261642b565b50505b50356001600160a01b0316611fe6565b3480156106ea576000806106e761642b565b50505b506107a5600480360360e081101561070a5760008061070761642b565b50505b81359160208101359160408201359190810190608081016060820135600160201b8111156107405760008061073d61642b565b50505b82018360208201111561075b5760008061075861642b565b50505b803590602001918460208302840111600160201b831117156107855760008061078261642b565b50505b91935091506001600160a01b038135169060208101359060400135612169565b60405160208082528190810183818151815260200191508051906020019060200280838360005b838110156107e45780820151838201526020016107cc565b505050509050019250505060405180910390f35b34801561080d5760008061080a61642b565b50505b506101d0600480360360a081101561082d5760008061082a61642b565b50505b508035906001600160a01b036020820135811691604081013590911690606081013590608001356125d8565b34801561086e5760008061086b61642b565b50505b506104286004803603604081101561088e5760008061088b61642b565b50505b506001600160a01b038135811691602001351661272b565b3480156108bb576000806108b861642b565b50505b506101d060048036036101408110156108dc576000806108d961642b565b50505b6001600160a01b038235169160208101359160408201359190810190608081016060820135600160201b81111561091b5760008061091861642b565b50505b8201836020820111156109365760008061093361642b565b50505b803590602001918460208302840111600160201b831117156109605760008061095d61642b565b50505b91935091506001600160a01b038135169060208101359060ff6040820135169060608101359060808101359060a001356128b4565b3480156109aa576000806109a761642b565b50505b506107a5600480360360e08110156109ca576000806109c761642b565b50505b81359160208101359160408201359190810190608081016060820135600160201b811115610a00576000806109fd61642b565b50505b820183602082011115610a1b57600080610a1861642b565b50505b803590602001918460208302840111600160201b83111715610a4557600080610a4261642b565b50505b91935091506001600160a01b038135169060208101359060400135612dd9565b348015610a7a57600080610a7761642b565b50505b5061042860048036036020811015610a9a57600080610a9761642b565b50505b50356001600160a01b0316613235565b348015610abf57600080610abc61642b565b50505b506101d0600480360360c0811015610adf57600080610adc61642b565b50505b813591602081013591810190606081016040820135600160201b811115610b0e57600080610b0b61642b565b50505b820183602082011115610b2957600080610b2661642b565b50505b803590602001918460208302840111600160201b83111715610b5357600080610b5061642b565b50505b91935091506001600160a01b03813516906020810135906040013561338b565b348015610b8857600080610b8561642b565b50505b506101d0600480360360c0811015610ba857600080610ba561642b565b50505b813591602081013591810190606081016040820135600160201b811115610bd757600080610bd461642b565b50505b820183602082011115610bf257600080610bef61642b565b50505b803590602001918460208302840111600160201b83111715610c1c57600080610c1961642b565b50505b91935091506001600160a01b0381351690602081013590604001356134f5565b348015610c5157600080610c4e61642b565b50505b50610428613729565b610c9160048036036040811015610c7957600080610c7661642b565b50505b506001600160a01b0381358116916020013516613741565b60405190815260200160405180910390f35b348015610cb857600080610cb561642b565b50505b506101d0600480360360a0811015610cd857600080610cd561642b565b50505b508035906001600160a01b03602082013581169160408101359091169060608101359060800135613a89565b348015610d1957600080610d1661642b565b50505b50610c9160048036036060811015610d3957600080610d3661642b565b50505b506001600160a01b03813581169160208101359160409091013516613b17565b348015610d6e57600080610d6b61642b565b50505b506101d060048036036040811015610d8e57600080610d8b61642b565b50505b506001600160a01b038135169060200135613e06565b348015610db957600080610db661642b565b50505b506101d06004803603610120811015610dda57600080610dd761642b565b50505b506001600160a01b03813581169160208101358216916040820135169060608101359060808101359060ff60a0820135169060c08101359060e0810135906101000135614011565b348015610e3757600080610e3461642b565b50505b50610e406142b9565b6040516001600160a01b03909116815260200160405180910390f35b348015610e7157600080610e6e61642b565b50505b50610c916142d8565b348015610e8f57600080610e8c61642b565b50505b506101d06004803603610140811015610eb057600080610ead61642b565b50505b6001600160a01b038235169160208101359160408201359190810190608081016060820135600160201b811115610eef57600080610eec61642b565b50505b820183602082011115610f0a57600080610f0761642b565b50505b803590602001918460208302840111600160201b83111715610f3457600080610f3161642b565b50505b91935091506001600160a01b038135169060208101359060ff6040820135169060608101359060808101359060a001356142e8565b348015610f7e57600080610f7b61642b565b50505b506101d06004803603610140811015610f9f57600080610f9c61642b565b50505b6001600160a01b038235169160208101359160408201359190810190608081016060820135600160201b811115610fde57600080610fdb61642b565b50505b820183602082011115610ff957600080610ff661642b565b50505b803590602001918460208302840111600160201b831117156110235760008061102061642b565b50505b91935091506001600160a01b038135169060208101359060ff6040820135169060608101359060808101359060a001356147b1565b6101d0600480360360608110156110775760008061107461642b565b50505b506001600160a01b03813581169160208101359091169060400135614c00565b3480156110ac576000806110a961642b565b50505b506101d060048036036101408110156110cd576000806110ca61642b565b50505b6001600160a01b038235169160208101359160408201359190810190608081016060820135600160201b81111561110c5760008061110961642b565b50505b8201836020820111156111275760008061112461642b565b50505b803590602001918460208302840111600160201b831117156111515760008061114e61642b565b50505b91935091506001600160a01b038135169060208101359060ff6040820135169060608101359060808101359060a00135614e24565b34801561119b5760008061119861642b565b50505b50610428600480360360208110156111bb576000806111b861642b565b50505b50356001600160a01b031661520a565b3480156111e0576000806111dd61642b565b50505b506101d0600480360360c0811015611200576000806111fd61642b565b50505b813591602081013591810190606081016040820135600160201b81111561122f5760008061122c61642b565b50505b82018360208201111561124a5760008061124761642b565b50505b803590602001918460208302840111600160201b831117156112745760008061127161642b565b50505b91935091506001600160a01b038135169060208101359060400135615356565b3480156112a9576000806112a661642b565b50505b506101d06154a3565b3480156112c7576000806112c461642b565b50505b506101d0600480360360808110156112e7576000806112e461642b565b50505b810190602081018135600160201b81111561130a5760008061130761642b565b50505b8201836020820111156113255760008061132261642b565b50505b803590602001918460208302840111600160201b8311171561134f5760008061134c61642b565b50505b919390929091602081019035600160201b8111156113755760008061137261642b565b50505b8201836020820111156113905760008061138d61642b565b50505b803590602001918460208302840111600160201b831117156113ba576000806113b761642b565b50505b919390929091602081019035600160201b8111156113e0576000806113dd61642b565b50505b8201836020820111156113fb576000806113f861642b565b50505b803590602001918460208302840111600160201b831117156114255760008061142261642b565b50505b919390929091602081019035600160201b81111561144b5760008061144861642b565b50505b8201836020820111156114665760008061146361642b565b50505b803590602001918460208302840111600160201b831117156114905760008061148d61642b565b50505b509092509050615511565b3480156114b0576000806114ad61642b565b50505b506101d0600480360360808110156114d0576000806114cd61642b565b50505b506001600160a01b03813581169160208101359091169060408101359060600135615593565b34801561150b5760008061150861642b565b50505b50610e406156a5565b3480156115295760008061152661642b565b50505b50610e40615704565b61153a615710565b8061156557506115486156a5565b6001600160a01b03165a61155a6163e5565b6001600160a01b0316145b6115ac5760405162461bcd60e51b815260206004820152601a60248201526000805160206168378339815191526044820152606401604051809103906115a961642b565b50505b6115b98585858585615771565b8360006001600160a01b038216636f307dc36040518163ffffffff1660e01b815260040160206040518083038186806115f0616496565b1580156116055760008061160261642b565b50505b505a61160f6164e2565b505050505015801561162e573d6000803e3d600061162b61642b565b50505b505050506040513d602081101561164d5760008061164a61642b565b50505b81019080805193505050506001600160a01b03811615801590611723575083816001600160a01b03166370a08231886040516001600160e01b031960e084901b1681526001600160a01b03909116600482015260240160206040518083038186806116b6616496565b1580156116cb576000806116c861642b565b50505b505a6116d56164e2565b50505050501580156116f4573d6000803e3d60006116f161642b565b50505b505050506040513d60208110156117135760008061171061642b565b50505b8101908080519390931015925050505b1561196e576000600461173461638a565b906101000a90046001600160a01b03166001600160a01b0316816001600160a01b031614156118a857816001600160a01b03166239d6ec86865a63996d79a5598160e01b8152602081600483336000905af158600e01573d6000803e3d6000fd5b3d6001141558600a015760016000f35b8051925060005b60408110156117c3576000828201526020016117ac565b5050506040516001600160e01b031960e086901b1681526001600160a01b0393841660048201526024810192909252909116604482015260640160206040518083038160008780611812616496565b1580156118275760008061182461642b565b50505b505a6118316165cd565b505050505050158015611851573d6000803e3d600061184e61642b565b50505b505050506040513d60208110156118705760008061186d61642b565b50505b810190808051506118a39250600091506004905061188c61638a565b906101000a90046001600160a01b0316868661588f565b61196e565b816001600160a01b03166239d6ec8686886040516001600160e01b031960e086901b1681526001600160a01b0393841660048201526024810192909252909116604482015260640160206040518083038160008780611905616496565b15801561191a5760008061191761642b565b50505b505a6119246165cd565b505050505050158015611944573d6000803e3d600061194161642b565b50505b505050506040513d60208110156119635760008061196061642b565b50505b810190808051505050505b50505050505050565b815a611981616693565b8110156119cb5760405162461bcd60e51b815260206004820152601860248201526000805160206168828339815191526044820152606401604051809103906119c861642b565b50505b858560008181106119d857fe5b905060200201356001600160a01b03166001600160a01b0316639dc29fac5a6119ff6163e5565b8a6040516001600160e01b031960e085901b1681526001600160a01b039092166004830152602482015260440160206040518083038160008780611a41616496565b158015611a5657600080611a5361642b565b50505b505a611a606165cd565b505050505050158015611a80573d6000803e3d6000611a7d61642b565b50505b505050506040513d6020811015611a9f57600080611a9c61642b565b50505b81019080805150506001600160a01b0386169150505a611abd6163e5565b6001600160a01b03166000805160206168a283398151915288888c8c611ae16142d8565b8960405180806020018681526020018581526020018481526020018381526020018281038252888882818152602001925060200280828437600083820152601f01601f1916909101985060409750505050505050505180910390a35050505050505050565b876001600160a01b0316636f307dc36040518163ffffffff1660e01b81526004016020604051808303818680611b7a616496565b158015611b8f57600080611b8c61642b565b50505b505a611b996164e2565b5050505050158015611bb8573d6000803e3d6000611bb561642b565b50505b505050506040513d6020811015611bd757600080611bd461642b565b50505b8101908080516001600160a01b0316925063605629d691508b90508a89898989896040516001600160e01b031960e08a901b1681526001600160a01b0397881660048201529590961660248601526044850193909352606484019190915260ff16608483015260a482015260c481019190915260e40160206040518083038160008780611c62616496565b158015611c7757600080611c7461642b565b50505b505a611c816165cd565b505050505050158015611ca1573d6000803e3d6000611c9e61642b565b50505b505050506040513d6020811015611cc057600080611cbd61642b565b50505b8101908080515050506001600160a01b038916905063bebbf4d0878b6040516001600160e01b031960e085901b16815260048101929092526001600160a01b0316602482015260440160206040518083038160008780611d1e616496565b158015611d3357600080611d3061642b565b50505b505a611d3d6165cd565b505050505050158015611d5d573d6000803e3d6000611d5a61642b565b50505b505050506040513d6020811015611d7c57600080611d7961642b565b50505b81019080805150611d9692508b91508a9050898985615a1c565b505050505050505050565b611db65a611dad6163e5565b85858585615a1c565b50505050565b6000611dc6615710565b80611df15750611dd46156a5565b6001600160a01b03165a611de66163e5565b6001600160a01b0316145b611e385760405162461bcd60e51b815260206004820152601a6024820152600080516020616837833981519152604482015260640160405180910390611e3561642b565b50505b816005600181611e4661638a565b816001600160a01b0302191690836001600160a01b0316021790611e686166d9565b5050506005600090611e7861638a565b906101000a90046001600160a01b03166001600160a01b03167fdcf5801f17d6275c0da859782646316d59374e06133bdd3447a1dab5635d5a5d611eba6142d8565b60405190815260200160405180910390a2506001919050565b611edb615710565b80611f065750611ee96156a5565b6001600160a01b03165a611efb6163e5565b6001600160a01b0316145b611f4d5760405162461bcd60e51b815260206004820152601a6024820152600080516020616837833981519152604482015260640160405180910390611f4a61642b565b50505b60005b87811015611fd957611fd18b8b83818110611f6757fe5b905060200201358a8a84818110611f7a57fe5b905060200201356001600160a01b0316898985818110611f9657fe5b905060200201356001600160a01b0316888886818110611fb257fe5b90506020020135878787818110611fc557fe5b90506020020135615771565b600101611f50565b5050505050505050505050565b6000611ff0615710565b61200257600080611fff61642b565b50505b6001600160a01b0382166120535760405162461bcd60e51b815260206004820152601d602482015260008051602061690c83398151915260448201526064016040518091039061205061642b565b50505b61205b6156a5565b6001808061206761638a565b816001600160a01b0302191690836001600160a01b03160217906120896166d9565b50505081600260006101000a8161209e61638a565b816001600160a01b0302191690836001600160a01b03160217906120c06166d9565b5050505a6120cc616693565b8060036120d76166d9565b50505060036120e461638a565b600060026120f061638a565b6001600160a01b036101009290920a9004166000600161210e61638a565b906101000a90046001600160a01b03166001600160a01b03167fcda32bc39904597666dfa9f9c845714756e1ffffad55b52e0d344673a21981216121506142d8565b60405190815260200160405180910390a4506001919050565b6060612173615710565b8061219e57506121816156a5565b6001600160a01b03165a6121936163e5565b6001600160a01b0316145b6121e55760405162461bcd60e51b815260206004820152601a60248201526000805160206168378339815191526044820152606401604051809103906121e261642b565b50505b825a6121ef616693565b8110156122395760405162461bcd60e51b8152602060048201526018602482015260008051602061688283398151915260448201526064016040518091039061223661642b565b50505b6000600561224561638a565b906101000a90046001600160a01b03166001600160a01b031663d06ca61f8a89896040518463ffffffff1660e01b8152600401808481526020018060200182810382528484828181526020019250602002808284376000838201819052601f909101601f1916909201965090945060409350505050518083038186806122c9616496565b1580156122de576000806122db61642b565b50505b505a6122e86164e2565b5050505050158015612307573d6000803e3d600061230461642b565b50505b505050506040513d6000823e601f3d908101601f1916820160405260208110156123395760008061233661642b565b50505b8101908080516040519392919084600160201b8211156123615760008061235e61642b565b50505b90830190602082018581111561237f5760008061237c61642b565b50505b82518660208202830111600160201b821117156123a4576000806123a161642b565b50505b825250602001908051906020019060200280838360005b838110156123d35780820151838201526020016123bb565b50505050905001604052505050915087826001845103815181106123f357fe5b602002602001015110156124415760405162461bcd60e51b815260040180806020018281038252602d8152602001806167e4602d91396040019150506040518091039061243e61642b565b50505b61258c8a8888600081811061245257fe5b905060200201356001600160a01b0316600560009061246f61638a565b906101000a90046001600160a01b03166001600160a01b03166396ed28f98b8b600081811061249a57fe5b905060200201356001600160a01b03168c8c60018181106124b757fe5b905060200201356001600160a01b03166040516001600160e01b031960e085901b1681526001600160a01b039283166004820152911660248201526044016020604051808303818680612508616496565b15801561251d5760008061251a61642b565b50505b505a6125276164e2565b5050505050158015612546573d6000803e3d600061254361642b565b50505b505050506040513d60208110156125655760008061256261642b565b50505b8101908080519250879150600090508151811061257e57fe5b602002602001015187615771565b6125cb828888808060200260200160405190810160405280939291908181526020018383602002808284376000920191909152508a9250615b3d915050565b5098975050505050505050565b6125e0615710565b8061260b57506125ee6156a5565b6001600160a01b03165a6126006163e5565b6001600160a01b0316145b6126525760405162461bcd60e51b815260206004820152601a602482015260008051602061683783398151915260448201526064016040518091039061264f61642b565b50505b61265f8585858585615771565b836001600160a01b03166239d6ec8484866040516001600160e01b031960e086901b1681526001600160a01b03938416600482015260248101929092529091166044820152606401602060405180830381600087806126bc616496565b1580156126d1576000806126ce61642b565b50505b505a6126db6165cd565b5050505050501580156126fb573d6000803e3d60006126f861642b565b50505b505050506040513d602081101561271a5760008061271761642b565b50505b810190808051505050505050505050565b6000612735615710565b8061276057506127436156a5565b6001600160a01b03165a6127556163e5565b6001600160a01b0316145b6127a75760405162461bcd60e51b815260206004820152601a60248201526000805160206168378339815191526044820152606401604051809103906127a461642b565b50505b6001600160a01b0382166127f85760405162461bcd60e51b815260206004820152601d602482015260008051602061690c8339815191526044820152606401604051809103906127f561642b565b50505b826001600160a01b03166360e232a9836040516001600160e01b031960e084901b1681526001600160a01b03909116600482015260240160206040518083038160008780612844616496565b1580156128595760008061285661642b565b50505b505a6128636165cd565b505050505050158015612883573d6000803e3d600061288061642b565b50505b505050506040513d60208110156128a25760008061289f61642b565b50505b81019080805193505050505b92915050565b845a6128be616693565b8110156129085760405162461bcd60e51b8152602060048201526018602482015260008051602061688283398151915260448201526064016040518091039061290561642b565b50505b60008989600081811061291757fe5b905060200201356001600160a01b03166001600160a01b0316636f307dc36040518163ffffffff1660e01b8152600401602060405180830381868061295a616496565b15801561296f5760008061296c61642b565b50505b505a6129796164e2565b5050505050158015612998573d6000803e3d600061299561642b565b50505b505050506040513d60208110156129b7576000806129b461642b565b50505b8101908080519350506001600160a01b038316915063d505accf90508e5a63996d79a5598160e01b8152602081600483336000905af158600e01573d6000803e3d6000fd5b3d6001141558600a015760016000f35b8051925060005b6040811015612a2a57600082820152602001612a13565b5050508f8b8b8b8b6040516001600160e01b031960e08a901b1681526001600160a01b0397881660048201529590961660248601526044850193909352606484019190915260ff16608483015260a482015260c481019190915260e40160006040518083038160008780612a9c616496565b158015612ab157600080612aae61642b565b50505b505a612abb6165cd565b505050505050158015612adb573d6000803e3d6000612ad861642b565b50505b50505050612b1b8d8b8b6000818110612af057fe5b905060200201356001600160a01b03168e846001600160a01b0316615fc3909392919063ffffffff16565b89896000818110612b2857fe5b905060200201356001600160a01b03166001600160a01b031663bebbf4d08d8f6040516001600160e01b031960e085901b16815260048101929092526001600160a01b0316602482015260440160206040518083038160008780612b8a616496565b158015612b9f57600080612b9c61642b565b50505b505a612ba96165cd565b505050505050158015612bc9573d6000803e3d6000612bc661642b565b50505b505050506040513d6020811015612be857600080612be561642b565b50505b810190808051508c92508b91506000905081612c0057fe5b905060200201356001600160a01b03166001600160a01b0316639dc29fac8e8e6040516001600160e01b031960e085901b1681526001600160a01b039092166004830152602482015260440160206040518083038160008780612c61616496565b158015612c7657600080612c7361642b565b50505b505a612c806165cd565b505050505050158015612ca0573d6000803e3d6000612c9d61642b565b50505b505050506040513d6020811015612cbf57600080612cbc61642b565b50505b81019080805150600092508c91508b9050806020818102016040519081016040528093929190818152602001838360200280828437600081840152601f19601f82011690508083019250505050505050905060008e905060008a905060008f905060008f90506000612d2f6142d8565b9050886001600160a01b038086169087166000805160206168ec83398151915289878787876040518080602001868152602001858152602001848152602001838152602001828103825287818151815260200191508051906020019060200280838360005b83811015612dac578082015183820152602001612d94565b50505050905001965050505050505060405180910390a35050505050505050505050505050505050505050565b6060612de3615710565b80612e0e5750612df16156a5565b6001600160a01b03165a612e036163e5565b6001600160a01b0316145b612e555760405162461bcd60e51b815260206004820152601a6024820152600080516020616837833981519152604482015260640160405180910390612e5261642b565b50505b825a612e5f616693565b811015612ea95760405162461bcd60e51b81526020600482015260186024820152600080516020616882833981519152604482015260640160405180910390612ea661642b565b50505b60006004612eb561638a565b6001600160a01b036101009290920a90041687876000198101818110612ed757fe5b905060200201356001600160a01b03166001600160a01b031614612f4a5760405162461bcd60e51b815260206004820152601d60248201527f416e79737761705633526f757465723a20494e56414c49445f50415448000000604482015260640160405180910390612f4761642b565b50505b60006005612f5661638a565b906101000a90046001600160a01b03166001600160a01b031663d06ca61f8a89896040518463ffffffff1660e01b8152600401808481526020018060200182810382528484828181526020019250602002808284376000838201819052601f909101601f191690920196509094506040935050505051808303818680612fda616496565b158015612fef57600080612fec61642b565b50505b505a612ff96164e2565b5050505050158015613018573d6000803e3d600061301561642b565b50505b505050506040513d6000823e601f3d908101601f19168201604052602081101561304a5760008061304761642b565b50505b8101908080516040519392919084600160201b8211156130725760008061306f61642b565b50505b9083019060208201858111156130905760008061308d61642b565b50505b82518660208202830111600160201b821117156130b5576000806130b261642b565b50505b825250602001908051906020019060200280838360005b838110156130e45780820151838201526020016130cc565b505050509050016040525050509150878260018451038151811061310457fe5b602002602001015110156131525760405162461bcd60e51b815260040180806020018281038252602b815260200180616857602b91396040019150506040518091039061314f61642b565b50505b6131638a8888600081811061245257fe5b6131f8828888808060200260200160405190810160405280939291908181526020018383602002808284376000920191909152505050505a63996d79a5598160e01b8152602081600483336000905af158600e01573d6000803e3d6000fd5b3d6001141558600a015760016000f35b8051925060005b60408110156131f0576000828201526020016131d9565b505050615b3d565b6125cb6000600461320761638a565b906101000a90046001600160a01b0316868460018651038151811061322857fe5b602002602001015161588f565b600061323f615710565b8061326a575061324d6156a5565b6001600160a01b03165a61325f6163e5565b6001600160a01b0316145b6132b15760405162461bcd60e51b815260206004820152601a60248201526000805160206168378339815191526044820152606401604051809103906132ae61642b565b50505b6001600160a01b0382166133025760405162461bcd60e51b815260206004820152601d602482015260008051602061690c8339815191526044820152606401604051809103906132ff61642b565b50505b61330a6156a5565b6001808061331661638a565b816001600160a01b0302191690836001600160a01b03160217906133386166d9565b50505081600260006101000a8161334d61638a565b816001600160a01b0302191690836001600160a01b031602179061336f6166d9565b5050505a61337b616693565b6202a300018060036120d76166d9565b815a613395616693565b8110156133df5760405162461bcd60e51b815260206004820152601860248201526000805160206168828339815191526044820152606401604051809103906133dc61642b565b50505b858560008181106133ec57fe5b905060200201356001600160a01b03166001600160a01b0316639dc29fac5a6134136163e5565b8a6040516001600160e01b031960e085901b1681526001600160a01b039092166004830152602482015260440160206040518083038160008780613455616496565b15801561346a5760008061346761642b565b50505b505a6134746165cd565b505050505050158015613494573d6000803e3d600061349161642b565b50505b505050506040513d60208110156134b3576000806134b061642b565b50505b81019080805150506001600160a01b0386169150505a6134d16163e5565b6001600160a01b03166000805160206168ec83398151915288888c8c611ae16142d8565b815a6134ff616693565b8110156135495760405162461bcd60e51b8152602060048201526018602482015260008051602061688283398151915260448201526064016040518091039061354661642b565b50505b61363c5a6135556163e5565b8787600081811061356257fe5b905060200201356001600160a01b03168a8989600081811061358057fe5b905060200201356001600160a01b03166001600160a01b0316636f307dc36040518163ffffffff1660e01b815260040160206040518083038186806135c3616496565b1580156135d8576000806135d561642b565b50505b505a6135e26164e2565b5050505050158015613601573d6000803e3d60006135fe61642b565b50505b505050506040513d60208110156136205760008061361d61642b565b50505b8101908080516001600160a01b0316959493925050615fc39050565b8585600081811061364957fe5b905060200201356001600160a01b03166001600160a01b031663bebbf4d0895a6136716163e5565b6040516001600160e01b031960e085901b16815260048101929092526001600160a01b03166024820152604401602060405180830381600087806136b3616496565b1580156136c8576000806136c561642b565b50505b505a6136d26165cd565b5050505050501580156136f2573d6000803e3d60006136ef61642b565b50505b505050506040513d60208110156137115760008061370e61642b565b50505b8101908080515088925087915060009050816133ec57fe5b60008061373461638a565b906101000a900460ff1681565b600080600461374e61638a565b906101000a90046001600160a01b03166001600160a01b0316836001600160a01b0316636f307dc36040518163ffffffff1660e01b8152600401602060405180830381868061379b616496565b1580156137b0576000806137ad61642b565b50505b505a6137ba6164e2565b50505050501580156137d9573d6000803e3d60006137d661642b565b50505b505050506040513d60208110156137f8576000806137f561642b565b50505b8101908080516001600160a01b03169390931492506138549150505760405162461bcd60e51b815260040180806020018281038252602a8152602001806167ba602a91396040019150506040518091039061385161642b565b50505b6000600461386061638a565b906101000a90046001600160a01b03166001600160a01b031663d0e30db0346040518263ffffffff1660e01b81526004016000604051808303818588806138a5616496565b1580156138ba576000806138b761642b565b50505b505a6138c46165cd565b5050505050501580156138e4573d6000803e3d60006138e161642b565b50505b505050505060046000906138f661638a565b906101000a90046001600160a01b03166001600160a01b031663a9059cbb84346040516001600160e01b031960e085901b1681526001600160a01b039092166004830152602482015260440160206040518083038160008780613957616496565b15801561396c5760008061396961642b565b50505b505a6139766165cd565b505050505050158015613996573d6000803e3d600061399361642b565b50505b505050506040513d60208110156139b5576000806139b261642b565b50505b81019080805192506139c691505057fe5b826001600160a01b031663bebbf4d034846040516001600160e01b031960e085901b16815260048101929092526001600160a01b0316602482015260440160206040518083038160008780613a19616496565b158015613a2e57600080613a2b61642b565b50505b505a613a386165cd565b505050505050158015613a58573d6000803e3d6000613a5561642b565b50505b505050506040513d6020811015613a7757600080613a7461642b565b50505b81019080805150349695505050505050565b613a91615710565b80613abc5750613a9f6156a5565b6001600160a01b03165a613ab16163e5565b6001600160a01b0316145b613b035760405162461bcd60e51b815260206004820152601a6024820152600080516020616837833981519152604482015260640160405180910390613b0061642b565b50505b613b108585858585615771565b5050505050565b6000806004613b2461638a565b906101000a90046001600160a01b03166001600160a01b0316846001600160a01b0316636f307dc36040518163ffffffff1660e01b81526004016020604051808303818680613b71616496565b158015613b8657600080613b8361642b565b50505b505a613b906164e2565b5050505050158015613baf573d6000803e3d6000613bac61642b565b50505b505050506040513d6020811015613bce57600080613bcb61642b565b50505b8101908080516001600160a01b0316939093149250613c2a9150505760405162461bcd60e51b815260040180806020018281038252602a8152602001806167ba602a913960400191505060405180910390613c2761642b565b50505b836001600160a01b03166239d6ec5a613c416163e5565b855a63996d79a5598160e01b8152602081600483336000905af158600e01573d6000803e3d6000fd5b3d6001141558600a015760016000f35b8051925060005b6040811015613c9857600082820152602001613c81565b5050506040516001600160e01b031960e086901b1681526001600160a01b0393841660048201526024810192909252909116604482015260640160206040518083038160008780613ce7616496565b158015613cfc57600080613cf961642b565b50505b505a613d066165cd565b505050505050158015613d26573d6000803e3d6000613d2361642b565b50505b505050506040513d6020811015613d4557600080613d4261642b565b50505b810190808051506000925060049150613d5e905061638a565b906101000a90046001600160a01b03166001600160a01b0316632e1a7d4d846040516001600160e01b031960e084901b168152600481019190915260240160006040518083038160008780613db1616496565b158015613dc657600080613dc361642b565b50505b505a613dd06165cd565b505050505050158015613df0573d6000803e3d6000613ded61642b565b50505b50505050613dfe828461602c565b509092915050565b613e0e615710565b80613e395750613e1c6156a5565b6001600160a01b03165a613e2e6163e5565b6001600160a01b0316145b613e805760405162461bcd60e51b815260206004820152601a6024820152600080516020616837833981519152604482015260640160405180910390613e7d61642b565b50505b6000613e8a6156a5565b9050826001600160a01b03166340c10f1982846040516001600160e01b031960e085901b1681526001600160a01b039092166004830152602482015260440160206040518083038160008780613ede616496565b158015613ef357600080613ef061642b565b50505b505a613efd6165cd565b505050505050158015613f1d573d6000803e3d6000613f1a61642b565b50505b505050506040513d6020811015613f3c57600080613f3961642b565b50505b8101908080515050506001600160a01b03841690506239d6ec8284816040516001600160e01b031960e086901b1681526001600160a01b0393841660048201526024810192909252909116604482015260640160206040518083038160008780613fa4616496565b158015613fb957600080613fb661642b565b50505b505a613fc36165cd565b505050505050158015613fe3573d6000803e3d6000613fe061642b565b50505b505050506040513d602081101561400257600080613fff61642b565b50505b81019080805150505050505050565b6000886001600160a01b0316636f307dc36040518163ffffffff1660e01b81526004016020604051808303818680614047616496565b15801561405c5760008061405961642b565b50505b505a6140666164e2565b5050505050158015614085573d6000803e3d600061408261642b565b50505b505050506040513d60208110156140a4576000806140a161642b565b50505b8101908080519350506001600160a01b038316915063d505accf90508b5a63996d79a5598160e01b8152602081600483336000905af158600e01573d6000803e3d6000fd5b3d6001141558600a015760016000f35b8051925060005b604081101561411757600082820152602001614100565b5050508a8a8a8a8a6040516001600160e01b031960e08a901b1681526001600160a01b0397881660048201529590961660248601526044850193909352606484019190915260ff16608483015260a482015260c481019190915260e40160006040518083038160008780614189616496565b15801561419e5760008061419b61642b565b50505b505a6141a86165cd565b5050505050501580156141c8573d6000803e3d60006141c561642b565b50505b506141e2925050506001600160a01b0382168b8b8a615fc3565b886001600160a01b031663bebbf4d0888c6040516001600160e01b031960e085901b16815260048101929092526001600160a01b0316602482015260440160206040518083038160008780614235616496565b15801561424a5760008061424761642b565b50505b505a6142546165cd565b505050505050158015614274573d6000803e3d600061427161642b565b50505b505050506040513d60208110156142935760008061429061642b565b50505b810190808051506142ad92508c91508b90508a8a86615a1c565b50505050505050505050565b600060046142c561638a565b906101000a90046001600160a01b031681565b60005a6142e3616727565b905090565b845a6142f2616693565b81101561433c5760405162461bcd60e51b8152602060048201526018602482015260008051602061688283398151915260448201526064016040518091039061433961642b565b50505b60008989600081811061434b57fe5b905060200201356001600160a01b03166001600160a01b0316636f307dc36040518163ffffffff1660e01b8152600401602060405180830381868061438e616496565b1580156143a3576000806143a061642b565b50505b505a6143ad6164e2565b50505050501580156143cc573d6000803e3d60006143c961642b565b50505b505050506040513d60208110156143eb576000806143e861642b565b50505b8101908080519350506001600160a01b038316915063d505accf90508e5a63996d79a5598160e01b8152602081600483336000905af158600e01573d6000803e3d6000fd5b3d6001141558600a015760016000f35b8051925060005b604081101561445e57600082820152602001614447565b5050508f8b8b8b8b6040516001600160e01b031960e08a901b1681526001600160a01b0397881660048201529590961660248601526044850193909352606484019190915260ff16608483015260a482015260c481019190915260e401600060405180830381600087806144d0616496565b1580156144e5576000806144e261642b565b50505b505a6144ef6165cd565b50505050505015801561450f573d6000803e3d600061450c61642b565b50505b505050506145248d8b8b6000818110612af057fe5b8989600081811061453157fe5b905060200201356001600160a01b03166001600160a01b031663bebbf4d08d8f6040516001600160e01b031960e085901b16815260048101929092526001600160a01b0316602482015260440160206040518083038160008780614593616496565b1580156145a8576000806145a561642b565b50505b505a6145b26165cd565b5050505050501580156145d2573d6000803e3d60006145cf61642b565b50505b505050506040513d60208110156145f1576000806145ee61642b565b50505b810190808051508c92508b9150600090508161460957fe5b905060200201356001600160a01b03166001600160a01b0316639dc29fac8e8e6040516001600160e01b031960e085901b1681526001600160a01b03909216600483015260248201526044016020604051808303816000878061466a616496565b15801561467f5760008061467c61642b565b50505b505a6146896165cd565b5050505050501580156146a9573d6000803e3d60006146a661642b565b50505b505050506040513d60208110156146c8576000806146c561642b565b50505b81019080805150600092508c91508b9050806020818102016040519081016040528093929190818152602001838360200280828437600081840152601f19601f82011690508083019250505050505050905060008e905060008a905060008f905060008f905060006147386142d8565b9050886001600160a01b038086169087166000805160206168a2833981519152898787878760405180806020018681526020018581526020018481526020018381526020018281038252878181518152602001915080516020918201910280838360008315612dac578082015183820152602001612d94565b845a6147bb616693565b8110156148055760405162461bcd60e51b8152602060048201526018602482015260008051602061688283398151915260448201526064016040518091039061480261642b565b50505b8888600081811061481257fe5b905060200201356001600160a01b03166001600160a01b0316636f307dc36040518163ffffffff1660e01b81526004016020604051808303818680614855616496565b15801561486a5760008061486761642b565b50505b505a6148746164e2565b5050505050158015614893573d6000803e3d600061489061642b565b50505b505050506040513d60208110156148b2576000806148af61642b565b50505b8101908080516001600160a01b0316925063605629d691508e90508b8b6000816148d857fe5b905060200201356001600160a01b03168e8a8a8a8a6040516001600160e01b031960e08a901b1681526001600160a01b0397881660048201529590961660248601526044850193909352606484019190915260ff16608483015260a482015260c481019190915260e40160206040518083038160008780614957616496565b15801561496c5760008061496961642b565b50505b505a6149766165cd565b505050505050158015614996573d6000803e3d600061499361642b565b50505b505050506040513d60208110156149b5576000806149b261642b565b50505b810190808051508b92508a915060009050816149cd57fe5b905060200201356001600160a01b03166001600160a01b031663bebbf4d08c8e6040516001600160e01b031960e085901b16815260048101929092526001600160a01b0316602482015260440160206040518083038160008780614a2f616496565b158015614a4457600080614a4161642b565b50505b505a614a4e6165cd565b505050505050158015614a6e573d6000803e3d6000614a6b61642b565b50505b505050506040513d6020811015614a8d57600080614a8a61642b565b50505b810190808051508b92508a91506000905081614aa557fe5b905060200201356001600160a01b03166001600160a01b0316639dc29fac8d8d6040516001600160e01b031960e085901b1681526001600160a01b039092166004830152602482015260440160206040518083038160008780614b06616496565b158015614b1b57600080614b1861642b565b50505b505a614b256165cd565b505050505050158015614b45573d6000803e3d6000614b4261642b565b50505b505050506040513d6020811015614b6457600080614b6161642b565b50505b8101908080515050506001600160a01b0388811691508d166000805160206168a28339815191528b8b8f8f614b976142d8565b8960405180806020018681526020018581526020018481526020018381526020018281038252888882818152602001925060200280828437600083820152601f01601f1916909101985060409750505050505050505180910390a3505050505050505050505050565b60006004614c0c61638a565b906101000a90046001600160a01b03166001600160a01b0316836001600160a01b0316636f307dc36040518163ffffffff1660e01b81526004016020604051808303818680614c59616496565b158015614c6e57600080614c6b61642b565b50505b505a614c786164e2565b5050505050158015614c97573d6000803e3d6000614c9461642b565b50505b505050506040513d6020811015614cb657600080614cb361642b565b50505b8101908080516001600160a01b0316939093149250614d129150505760405162461bcd60e51b815260040180806020018281038252602a8152602001806167ba602a913960400191505060405180910390614d0f61642b565b50505b614d465a614d1e6163e5565b843460006004614d2c61638a565b6001600160a01b036101009290920a900416929190615fc3565b826001600160a01b031663bebbf4d0345a614d5f6163e5565b6040516001600160e01b031960e085901b16815260048101929092526001600160a01b0316602482015260440160206040518083038160008780614da1616496565b158015614db657600080614db361642b565b50505b505a614dc06165cd565b505050505050158015614de0573d6000803e3d6000614ddd61642b565b50505b505050506040513d6020811015614dff57600080614dfc61642b565b50505b81019080805150614e1f925050505a614e166163e5565b84843485615a1c565b505050565b845a614e2e616693565b811015614e785760405162461bcd60e51b81526020600482015260186024820152600080516020616882833981519152604482015260640160405180910390614e7561642b565b50505b88886000818110614e8557fe5b905060200201356001600160a01b03166001600160a01b0316636f307dc36040518163ffffffff1660e01b81526004016020604051808303818680614ec8616496565b158015614edd57600080614eda61642b565b50505b505a614ee76164e2565b5050505050158015614f06573d6000803e3d6000614f0361642b565b50505b505050506040513d6020811015614f2557600080614f2261642b565b50505b8101908080516001600160a01b0316925063605629d691508e90508b8b600081614f4b57fe5b905060200201356001600160a01b03168e8a8a8a8a6040516001600160e01b031960e08a901b1681526001600160a01b0397881660048201529590961660248601526044850193909352606484019190915260ff16608483015260a482015260c481019190915260e40160206040518083038160008780614fca616496565b158015614fdf57600080614fdc61642b565b50505b505a614fe96165cd565b505050505050158015615009573d6000803e3d600061500661642b565b50505b505050506040513d60208110156150285760008061502561642b565b50505b810190808051508b92508a9150600090508161504057fe5b905060200201356001600160a01b03166001600160a01b031663bebbf4d08c8e6040516001600160e01b031960e085901b16815260048101929092526001600160a01b03166024820152604401602060405180830381600087806150a2616496565b1580156150b7576000806150b461642b565b50505b505a6150c16165cd565b5050505050501580156150e1573d6000803e3d60006150de61642b565b50505b505050506040513d6020811015615100576000806150fd61642b565b50505b810190808051508b92508a9150600090508161511857fe5b905060200201356001600160a01b03166001600160a01b0316639dc29fac8d8d6040516001600160e01b031960e085901b1681526001600160a01b039092166004830152602482015260440160206040518083038160008780615179616496565b15801561518e5760008061518b61642b565b50505b505a6151986165cd565b5050505050501580156151b8573d6000803e3d60006151b561642b565b50505b505050506040513d60208110156151d7576000806151d461642b565b50505b8101908080515050506001600160a01b0388811691508d166000805160206168ec8339815191528b8b8f8f614b976142d8565b6000615214615710565b6152265760008061522361642b565b50505b60006152306156a5565b6001600160a01b0316146152815760405162461bcd60e51b815260206004820152601a602482015260008051602061683783398151915260448201526064016040518091039061527e61642b565b50505b6001600160a01b0382166152d25760405162461bcd60e51b815260206004820152601d602482015260008051602061690c8339815191526044820152606401604051809103906152cf61642b565b50505b8160026001816152e061638a565b816001600160a01b0302191690836001600160a01b03160217906153026166d9565b5050505a61530e616693565b8060036153196166d9565b5050506153246156a5565b6001600160a01b03167f5b7384df796a80bd0e76b3a25888d23d62a7b82410d4d45a45ec7cae4c6b08d1611eba6142d8565b815a615360616693565b8110156153aa5760405162461bcd60e51b815260206004820152601860248201526000805160206168828339815191526044820152606401604051809103906153a761642b565b50505b6153b65a6135556163e5565b858560008181106153c357fe5b905060200201356001600160a01b03166001600160a01b031663bebbf4d0895a6153eb6163e5565b6040516001600160e01b031960e085901b16815260048101929092526001600160a01b031660248201526044016020604051808303816000878061542d616496565b1580156154425760008061543f61642b565b50505b505a61544c6165cd565b50505050505015801561546c573d6000803e3d600061546961642b565b50505b505050506040513d602081101561548b5760008061548861642b565b50505b8101908080515088925087915060009050816119d857fe5b6154ab615710565b6154bd576000806154ba61642b565b50505b6000806001816154cb61638a565b8160ff021916908315150217906154e06166d9565b5050507f84f44a11e6386cfcb5e3f85d5fbd3dce7f88fe8ac94c250cbec731c8c83cde7b60405160405180910390a1565b60005b87811015611d965761558b5a6155286163e5565b8a8a8481811061553457fe5b905060200201356001600160a01b031689898581811061555057fe5b905060200201356001600160a01b031688888681811061556c57fe5b9050602002013587878781811061557f57fe5b90506020020135615a1c565b600101615514565b6155d55a61559f6163e5565b8584876001600160a01b0316636f307dc36040518163ffffffff1660e01b815260040160206040518083038186806135c3616496565b836001600160a01b031663bebbf4d0835a6155ee6163e5565b6040516001600160e01b031960e085901b16815260048101929092526001600160a01b0316602482015260440160206040518083038160008780615630616496565b1580156156455760008061564261642b565b50505b505a61564f6165cd565b50505050505015801561566f573d6000803e3d600061566c61642b565b50505b505050506040513d602081101561568e5760008061568b61642b565b50505b81019080805150611db6925050505a611dad6163e5565b600060036156b161638a565b5a6156ba616693565b106156e257600060026156cb61638a565b906101000a90046001600160a01b03169050615701565b600060016156ee61638a565b906101000a90046001600160a01b031690505b90565b600160006142c561638a565b6000808061571c61638a565b906101000a900460ff161515600115151480156142e357506001600061574061638a565b906101000a90046001600160a01b03166001600160a01b03165a6157626163e5565b6001600160a01b031614905090565b836001600160a01b03166340c10f1984846040516001600160e01b031960e085901b1681526001600160a01b0390921660048301526024820152604401602060405180830381600087806157c3616496565b1580156157d8576000806157d561642b565b50505b505a6157e26165cd565b505050505050158015615802573d6000803e3d60006157ff61642b565b50505b505050506040513d60208110156158215760008061581e61642b565b50505b8101908080515050506001600160a01b0384811691508516867faac9ce45fe3adf5143598c4f18a369591a20a3384aedaf1b525d29127e1fcd5585856158656142d8565b60405180848152602001838152602001828152602001935050505060405180910390a45050505050565b600080846001600160a01b031663a9059cbb85856040516001600160a01b03909216602483015260448201526064016040516020818303038152906040529060e01b6020820180516001600160e01b031690911790526040518082805190602001908083835b602083106159145780518252601f1990920191602091820191016158f5565b6001836020036101000a0380198251168184511680821785525050505050509050019150506000604051808303816000865a61594e6165cd565b5050505050509150503d8060008114615983576040513d603f01601f191681016040523d815291503d6000602084013e615988565b606091505b50915091508180156159c65750805115806159c6575060208101815160208110156159bb576000806159b861642b565b50505b810190808051925050505b613b105760405162461bcd60e51b815260206004820152601f60248201527f5472616e7366657248656c7065723a205452414e534645525f4641494c45440060448201526064016040518091039061196e61642b565b836001600160a01b0316639dc29fac86846040516001600160e01b031960e085901b1681526001600160a01b039092166004830152602482015260440160206040518083038160008780615a6e616496565b158015615a8357600080615a8061642b565b50505b505a615a8d6165cd565b505050505050158015615aad573d6000803e3d6000615aaa61642b565b50505b505050506040513d6020811015615acc57600080615ac961642b565b50505b81019080805150506001600160a01b038086169250878116915086167f97116cf6cd4f6412bb47914d6db18da9e16ab2142f543b86e207c24fbd16b23a85615b126142d8565b8660405180848152602001838152602001828152602001935050505060405180910390a45050505050565b60005b6001835103811015611db657600080848381518110615b5b57fe5b6020026020010151858460010181518110615b7257fe5b60200260200101519150915060006005600090615b8d61638a565b906101000a90046001600160a01b03166001600160a01b031663544caa5684846040516001600160e01b031960e085901b1681526001600160a01b0392831660048201529116602482015260440160408051808303818680615bed616496565b158015615c0257600080615bff61642b565b50505b505a615c0c6164e2565b5050505050158015615c2b573d6000803e3d6000615c2861642b565b50505b505050506040513d6040811015615c4a57600080615c4761642b565b50505b81019080805192919060200180515092935060009250899150506001860181518110615c7257fe5b60200260200101519050600080836001600160a01b0316866001600160a01b031614615ca057826000615ca4565b6000835b91509150600060028a51038810615cbb5788615da6565b60006005615cc761638a565b906101000a90046001600160a01b03166001600160a01b03166396ed28f9878c8b60020181518110615cf557fe5b60200260200101516040516001600160e01b031960e085901b1681526001600160a01b039283166004820152911660248201526044016020604051808303818680615d3e616496565b158015615d5357600080615d5061642b565b50505b505a615d5d6164e2565b5050505050158015615d7c573d6000803e3d6000615d7961642b565b50505b505050506040513d6020811015615d9b57600080615d9861642b565b50505b810190808051925050505b905060006005615db461638a565b906101000a90046001600160a01b03166001600160a01b03166396ed28f988886040516001600160e01b031960e085901b1681526001600160a01b039283166004820152911660248201526044016020604051808303818680615e15616496565b158015615e2a57600080615e2761642b565b50505b505a615e346164e2565b5050505050158015615e53573d6000803e3d6000615e5061642b565b50505b505050506040513d6020811015615e7257600080615e6f61642b565b50505b8101908080516001600160a01b0316925063022c0d9f915085905084846000604051818152601f19601f8301168101602001604052908015615ebb576020820181803683370190505b506040518563ffffffff1660e01b815260040180858152602001848152602001836001600160a01b0316815260200180602001828103825283818151815260200191508051906020019080838360005b83811015615f23578082015183820152602001615f0b565b50505050905090810190601f168015615f505780820380516001836020036101000a031916815260200191505b509550505050505060006040518083038160008780615f6d616496565b158015615f8257600080615f7f61642b565b50505b505a615f8c6165cd565b505050505050158015615fac573d6000803e3d6000615fa961642b565b50505b505060019099019850615b40975050505050505050565b611db6846323b872dd60e01b8585856040516001600160a01b0393841660248201529190921660448201526064810191909152608401604051602081830303815290604052906001600160e01b0319166020820180516001600160e01b0316909117905261614e565b60006001600160a01b0383168282604051818152601f19601f8301168101602001604052908015616064576020820181803683370190505b506040518082805190602001908083835b602083106160945780518252601f199092019160209182019101616075565b6001836020036101000a03801982511681845116808217855250505050505090500191505060006040518083038185875a6160cd6165cd565b505050505050925050503d8060008114616103576040513d603f01601f191681016040523d815291503d6000602084013e616108565b606091505b5050905080614e1f5760405162461bcd60e51b81526004018080602001828103825260268152602001806168116026913960400191505060405180910390613b1061642b565b616160826001600160a01b0316616344565b6161b95760405162461bcd60e51b815260206004820152601f60248201527f5361666545524332303a2063616c6c20746f206e6f6e2d636f6e7472616374006044820152606401604051809103906161b661642b565b50505b600080836001600160a01b0316836040518082805190602001908083835b602083106161f65780518252601f1990920191602091820191016161d7565b6001836020036101000a0380198251168184511680821785525050505050509050019150506000604051808303816000865a6162306165cd565b5050505050509150503d8060008114616265576040513d603f01601f191681016040523d815291503d6000602084013e61626a565b606091505b5091509150816162c95760405162461bcd60e51b815260206004820181905260248201527f5361666545524332303a206c6f772d6c6576656c2063616c6c206661696c65646044820152606401604051809103906162c661642b565b50505b600081511115611db65760208101815160208110156162f0576000806162ed61642b565b50505b8101908080519250611db69150505760405162461bcd60e51b815260040180806020018281038252602a8152602001806168c2602a91396040019150506040518091039061633c61642b565b505050505050565b6000807fc5d2460186f7233c927e7db2dcc703c0e500b653ca82273b7bfad8045d85a4708361637161676d565b915081158015906163825750808214155b949350505050565b6303daa959598160e01b8152836004820152602081602483336000905af158600e01573d6000803e3d6000fd5b3d6001141558600a015760016000f35b8051935060005b6040811015614e1f576000828201526020016163ce565b6373509064598160e01b8152602081600483336000905af158600e01573d6000803e3d6000fd5b3d6001141558600a015760016000f35b805160008252935060206163ce565b632a2a7adb598160e01b8152600481016020815285602082015260005b86811015616463578086015182820160400152602001616448565b506020828760640184336000905af158600e01573d6000803e3d6000fd5b3d6001141558600a015760016000f35b505050565b638435035b598160e01b8152836004820152602081602483336000905af158600e01573d6000803e3d6000fd5b3d6001141558600a015760016000f35b805160008252935060206163ce565b638540661f598160e01b8152616513565b80808311156128ae575090919050565b80808310156128ae575090919050565b836004820152846024820152606060448201528660648201526084810160005b8881101561654b578088015182820152602001616533565b506060828960a40184336000905af158600e01573d6000803e3d6000fd5b3d6001141558600a015760016000f35b815160408301513d6000853e8b8b82606087013350600060045af150596165a08d3d616503565b8c016165ac81876164f3565b5b828110156165c157600081526020016165ad565b50929c50505050505050565b6385979f76598160e01b8152836004820152846024820152606060448201528760648201526084810160005b898110156166115780890151828201526020016165f9565b506060828a60a40184336000905af158600e01573d6000803e3d6000fd5b3d6001141558600a015760016000f35b815160408301513d6000853e8c8c82606087013350600060045af150596166668e3d616503565b8d0161667281876164f3565b5b828110156166875760008152602001616673565b50929d50505050505050565b63bdbf8c36598160e01b8152602081600483336000905af158600e01573d6000803e3d6000fd5b3d6001141558600a015760016000f35b805160008252935060206163ce565b6322bd64c0598160e01b8152836004820152846024820152600081604483336000905af158600e01573d6000803e3d6000fd5b3d6001141558600a015760016000f35b6000815260206163ce565b6390580256598160e01b8152602081600483336000905af158600e01573d6000803e3d6000fd5b3d6001141558600a015760016000f35b805160008252935060206163ce565b6324749d5c598160e01b8152836004820152602081602483336000905af158600e01573d6000803e3d6000fd5b3d6001141558600a015760016000f35b805160008252935060206163ce56fe416e79737761705633526f757465723a20756e6465726c79696e67206973206e6f7420774e41544956455375736869737761705632526f757465723a20494e53554646494349454e545f4f55545055545f414d4f554e545472616e7366657248656c7065723a204e41544956455f5452414e534645525f4641494c4544416e79737761705633526f757465723a20464f5242494444454e000000000000416e79737761705633526f757465723a20494e53554646494349454e545f4f55545055545f414d4f554e54416e79737761705633526f757465723a20455850495245440000000000000000fea6abdf4fd32f20966dff7619354cd82cd43dc78a3bee479f04c74dbfc585b35361666545524332303a204552433230206f7065726174696f6e20646964206e6f742073756363656564278277e0209c347189add7bd92411973b5f6b8644f7ac62ea1be984ce993f8f4416e79737761705633526f757465723a20616464726573732830783029000000",
  "immutableReferences": {},
  "source": "// SPDX-License-Identifier: GPL-3.0-or-later\n\npragma solidity 0.7.6;\n\n// a library for performing overflow-safe math, courtesy of DappHub (https://github.com/dapphub/ds-math)\n\nlibrary SafeMathSushiswap {\n    function add(uint256 x, uint256 y) internal pure returns (uint256 z) {\n        require((z = x + y) >= x, \"ds-math-add-overflow\");\n    }\n\n    function sub(uint256 x, uint256 y) internal pure returns (uint256 z) {\n        require((z = x - y) <= x, \"ds-math-sub-underflow\");\n    }\n\n    function mul(uint256 x, uint256 y) internal pure returns (uint256 z) {\n        require(y == 0 || (z = x * y) / y == x, \"ds-math-mul-overflow\");\n    }\n}\n\ninterface AnyswapV1ERC20 {\n    function mint(address to, uint256 amount) external returns (bool);\n\n    function burn(address from, uint256 amount) external returns (bool);\n\n    function changeVault(address newVault) external returns (bool);\n\n    function depositVault(uint256 amount, address to)\n        external\n        returns (uint256);\n\n    function withdrawVault(\n        address from,\n        uint256 amount,\n        address to\n    ) external returns (uint256);\n\n    function underlying() external view returns (address);\n}\n\n/**\n * @dev Interface of the ERC20 standard as defined in the EIP.\n */\ninterface IERC20 {\n    function totalSupply() external view returns (uint256);\n\n    function balanceOf(address account) external view returns (uint256);\n\n    function transfer(address recipient, uint256 amount)\n        external\n        returns (bool);\n\n    function allowance(address owner, address spender)\n        external\n        view\n        returns (uint256);\n\n    function approve(address spender, uint256 amount) external returns (bool);\n\n    function permit(\n        address target,\n        address spender,\n        uint256 value,\n        uint256 deadline,\n        uint8 v,\n        bytes32 r,\n        bytes32 s\n    ) external;\n\n    function transferFrom(\n        address sender,\n        address recipient,\n        uint256 amount\n    ) external returns (bool);\n\n    function transferWithPermit(\n        address target,\n        address to,\n        uint256 value,\n        uint256 deadline,\n        uint8 v,\n        bytes32 r,\n        bytes32 s\n    ) external returns (bool);\n\n    event Transfer(address indexed from, address indexed to, uint256 value);\n    event Approval(\n        address indexed owner,\n        address indexed spender,\n        uint256 value\n    );\n}\n\ninterface ISushiswapV2Pair {\n    event Approval(\n        address indexed owner,\n        address indexed spender,\n        uint256 value\n    );\n    event Transfer(address indexed from, address indexed to, uint256 value);\n\n    function name() external pure returns (string memory);\n\n    function symbol() external pure returns (string memory);\n\n    function decimals() external pure returns (uint8);\n\n    function totalSupply() external view returns (uint256);\n\n    function balanceOf(address owner) external view returns (uint256);\n\n    function allowance(address owner, address spender)\n        external\n        view\n        returns (uint256);\n\n    function approve(address spender, uint256 value) external returns (bool);\n\n    function transfer(address to, uint256 value) external returns (bool);\n\n    function transferFrom(\n        address from,\n        address to,\n        uint256 value\n    ) external returns (bool);\n\n    function DOMAIN_SEPARATOR() external view returns (bytes32);\n\n    function PERMIT_TYPEHASH() external pure returns (bytes32);\n\n    function nonces(address owner) external view returns (uint256);\n\n    function permit(\n        address owner,\n        address spender,\n        uint256 value,\n        uint256 deadline,\n        uint8 v,\n        bytes32 r,\n        bytes32 s\n    ) external;\n\n    event Mint(address indexed sender, uint256 amount0, uint256 amount1);\n    event Burn(\n        address indexed sender,\n        uint256 amount0,\n        uint256 amount1,\n        address indexed to\n    );\n    event Swap(\n        address indexed sender,\n        uint256 amount0In,\n        uint256 amount1In,\n        uint256 amount0Out,\n        uint256 amount1Out,\n        address indexed to\n    );\n    event Sync(uint112 reserve0, uint112 reserve1);\n\n    function MINIMUM_LIQUIDITY() external pure returns (uint256);\n\n    function factory() external view returns (address);\n\n    function token0() external view returns (address);\n\n    function token1() external view returns (address);\n\n    function getReserves()\n        external\n        view\n        returns (\n            uint112 reserve0,\n            uint112 reserve1,\n            uint32 blockTimestampLast\n        );\n\n    function price0CumulativeLast() external view returns (uint256);\n\n    function price1CumulativeLast() external view returns (uint256);\n\n    function kLast() external view returns (uint256);\n\n    function mint(address to) external returns (uint256 liquidity);\n\n    function burn(address to)\n        external\n        returns (uint256 amount0, uint256 amount1);\n\n    function swap(\n        uint256 amount0Out,\n        uint256 amount1Out,\n        address to,\n        bytes calldata data\n    ) external;\n\n    function skim(address to) external;\n\n    function sync() external;\n\n    function initialize(address, address) external;\n}\n\nlibrary Address {\n    function isContract(address account) internal view returns (bool) {\n        bytes32 codehash;\n        bytes32 accountHash = 0xc5d2460186f7233c927e7db2dcc703c0e500b653ca82273b7bfad8045d85a470;\n        // solhint-disable-next-line no-inline-assembly\n        assembly {\n            codehash := extcodehash(account)\n        }\n        return (codehash != 0x0 && codehash != accountHash);\n    }\n}\n\nlibrary SafeERC20 {\n    using Address for address;\n\n    function safeTransfer(\n        IERC20 token,\n        address to,\n        uint256 value\n    ) internal {\n        callOptionalReturn(\n            token,\n            abi.encodeWithSelector(token.transfer.selector, to, value)\n        );\n    }\n\n    function safeTransferFrom(\n        IERC20 token,\n        address from,\n        address to,\n        uint256 value\n    ) internal {\n        callOptionalReturn(\n            token,\n            abi.encodeWithSelector(token.transferFrom.selector, from, to, value)\n        );\n    }\n\n    function safeApprove(\n        IERC20 token,\n        address spender,\n        uint256 value\n    ) internal {\n        require(\n            (value == 0) || (token.allowance(address(this), spender) == 0),\n            \"SafeERC20: approve from non-zero to non-zero allowance\"\n        );\n        callOptionalReturn(\n            token,\n            abi.encodeWithSelector(token.approve.selector, spender, value)\n        );\n    }\n\n    function callOptionalReturn(IERC20 token, bytes memory data) private {\n        require(address(token).isContract(), \"SafeERC20: call to non-contract\");\n\n        // solhint-disable-next-line avoid-low-level-calls\n        (bool success, bytes memory returndata) = address(token).call(data);\n        require(success, \"SafeERC20: low-level call failed\");\n\n        if (returndata.length > 0) {\n            // Return data is optional\n            // solhint-disable-next-line max-line-length\n            require(\n                abi.decode(returndata, (bool)),\n                \"SafeERC20: ERC20 operation did not succeed\"\n            );\n        }\n    }\n}\n\ninterface ISushiswapV2Proxy {\n    function factory() external view returns (address);\n\n    function sortTokens(address tokenA, address tokenB)\n        external\n        pure\n        returns (address token0, address token1);\n\n    function pairFor(address tokenA, address tokenB)\n        external\n        view\n        returns (address pair);\n\n    function getReserves(address tokenA, address tokenB)\n        external\n        view\n        returns (uint256 reserveA, uint256 reserveB);\n\n    function quote(\n        uint256 amountA,\n        uint256 reserveA,\n        uint256 reserveB\n    ) external pure returns (uint256 amountB);\n\n    function getAmountOut(\n        uint256 amountIn,\n        uint256 reserveIn,\n        uint256 reserveOut\n    ) external pure returns (uint256 amountOut);\n\n    function getAmountIn(\n        uint256 amountOut,\n        uint256 reserveIn,\n        uint256 reserveOut\n    ) external pure returns (uint256 amountIn);\n\n    function getAmountsOut(uint256 amountIn, address[] memory path)\n        external\n        view\n        returns (uint256[] memory amounts);\n\n    function getAmountsIn(uint256 amountOut, address[] memory path)\n        external\n        view\n        returns (uint256[] memory amounts);\n}\n\n// helper methods for interacting with ERC20 tokens and sending NATIVE that do not consistently return true/false\nlibrary TransferHelper {\n    function safeApprove(\n        address token,\n        address to,\n        uint256 value\n    ) internal {\n        // bytes4(keccak256(bytes('approve(address,uint256)')));\n        (bool success, bytes memory data) = token.call(\n            abi.encodeWithSelector(0x095ea7b3, to, value)\n        );\n        require(\n            success && (data.length == 0 || abi.decode(data, (bool))),\n            \"TransferHelper: APPROVE_FAILED\"\n        );\n    }\n\n    function safeTransfer(\n        address token,\n        address to,\n        uint256 value\n    ) internal {\n        // bytes4(keccak256(bytes('transfer(address,uint256)')));\n        (bool success, bytes memory data) = token.call(\n            abi.encodeWithSelector(0xa9059cbb, to, value)\n        );\n        require(\n            success && (data.length == 0 || abi.decode(data, (bool))),\n            \"TransferHelper: TRANSFER_FAILED\"\n        );\n    }\n\n    function safeTransferFrom(\n        address token,\n        address from,\n        address to,\n        uint256 value\n    ) internal {\n        // bytes4(keccak256(bytes('transferFrom(address,address,uint256)')));\n        (bool success, bytes memory data) = token.call(\n            abi.encodeWithSelector(0x23b872dd, from, to, value)\n        );\n        require(\n            success && (data.length == 0 || abi.decode(data, (bool))),\n            \"TransferHelper: TRANSFER_FROM_FAILED\"\n        );\n    }\n\n    function safeTransferNative(address to, uint256 value) internal {\n        (bool success, ) = to.call{value: value}(new bytes(0));\n        require(success, \"TransferHelper: NATIVE_TRANSFER_FAILED\");\n    }\n}\n\n\ninterface IwNATIVE {\n    function deposit() external payable;\n\n    function transfer(address to, uint256 value) external returns (bool);\n\n    function withdraw(uint256) external;\n}\n\ncontract AdminManagable {\n    bool public underAdmin = false;\n    address public admin;\n\n    modifier onlyAdmin() {\n        require(isAdmin());\n        _;\n    }\n\n    function isAdmin() internal view returns (bool) {\n        return (underAdmin == true && msg.sender == admin);\n    }\n\n    function allowAdmin(address _admin) internal {\n        admin = _admin;\n        underAdmin = true;\n        emit LogAllowAdmin(admin);\n    }\n\n    function forbidAdmin() external onlyAdmin {\n        underAdmin = false;\n        emit LogForbitAdmin();\n    }\n\n    event LogAllowAdmin(address indexed admin);\n    event LogForbitAdmin();\n}\n\ncontract MPCManagable is AdminManagable {\n    address private _oldMPC;\n    address private _newMPC;\n    uint256 private _newMPCEffectiveTime;\n\n    event LogInitMPC(address indexed factory, uint256 chainID);\n    event LogChangeMPC(\n        address indexed oldMPC,\n        address indexed newMPC,\n        uint256 indexed effectiveTime,\n        uint256 chainID\n    );\n\n    function initialMPC(address _mpc) public onlyAdmin returns (bool) {\n        require(mpc() == address(0), \"AnyswapV3Router: FORBIDDEN\");\n        require(_mpc != address(0), \"AnyswapV3Router: address(0x0)\");\n        _newMPC = _mpc;\n        _newMPCEffectiveTime = block.timestamp;\n        emit LogInitMPC(mpc(), cID());\n        return true;\n    }\n\n    modifier onlyMPC() {\n        require(isAdmin() || msg.sender == mpc(), \"AnyswapV3Router: FORBIDDEN\");\n        _;\n    }\n\n    function mpc() public view returns (address) {\n        if (block.timestamp >= _newMPCEffectiveTime) {\n            return _newMPC;\n        }\n        return _oldMPC;\n    }\n\n    function changeMPCInstantly(address newMPC)\n        public\n        onlyAdmin\n        returns (bool)\n    {\n        require(newMPC != address(0), \"AnyswapV3Router: address(0x0)\");\n        _oldMPC = mpc();\n        _newMPC = newMPC;\n        _newMPCEffectiveTime = block.timestamp;\n        emit LogChangeMPC(_oldMPC, _newMPC, _newMPCEffectiveTime, cID());\n        return true;\n    }\n\n    function changeMPC(address newMPC) public onlyMPC returns (bool) {\n        require(newMPC != address(0), \"AnyswapV3Router: address(0x0)\");\n        _oldMPC = mpc();\n        _newMPC = newMPC;\n        _newMPCEffectiveTime = block.timestamp + 2 * 24 * 3600;\n        emit LogChangeMPC(_oldMPC, _newMPC, _newMPCEffectiveTime, cID());\n        return true;\n    }\n\n    function cID() public pure returns (uint256 id) {\n        assembly {\n            id := chainid()\n        }\n    }\n}\n\ncontract AnyswapV3Router is MPCManagable {\n    using SafeERC20 for IERC20;\n    using SafeMathSushiswap for uint256;\n\n    address public wNATIVE = 0x4200000000000000000000000000000000000006;\n\n    address private sushiProxy;\n\n    modifier ensure(uint256 deadline) {\n        require(deadline >= block.timestamp, \"AnyswapV3Router: EXPIRED\");\n        _;\n    }\n\n    receive() external payable {\n        assert(msg.sender == wNATIVE); // only accept Native via fallback from the wNative contract\n    }\n\n    constructor(\n        address _mpc,\n        address _wNATIVE,\n        address _sushiproxy\n    ) {\n        allowAdmin(msg.sender);\n        if (_mpc != address(0)) {\n            initialMPC(_mpc);\n        }\n        if (_sushiproxy != address(0)) {\n            setSushiProxy(_sushiproxy);\n        }\n    }\n\n    function setSushiProxy(address _sushiproxy) public onlyMPC returns (bool) {\n        sushiProxy = _sushiproxy;\n        emit LogSetSushiProxy(sushiProxy, cID());\n        return true;\n    }\n\n    address private _oldMPC;\n    address private _newMPC;\n    uint256 private _newMPCEffectiveTime;\n\n    event LogSetSushiProxy(address indexed factory, uint256 chainID);\n    event LogChangeRouter(\n        address indexed oldRouter,\n        address indexed newRouter,\n        uint256 chainID\n    );\n    event LogAnySwapIn(\n        bytes32 indexed txhash,\n        address indexed token,\n        address indexed to,\n        uint256 amount,\n        uint256 fromChainID,\n        uint256 toChainID\n    );\n    event LogAnySwapOut(\n        address indexed token,\n        address indexed from,\n        address indexed to,\n        uint256 amount,\n        uint256 fromChainID,\n        uint256 toChainID\n    );\n    event LogAnySwapTradeTokensForTokens(\n        address[] path,\n        address indexed from,\n        address indexed to,\n        uint256 amountIn,\n        uint256 amountOutMin,\n        uint256 fromChainID,\n        uint256 toChainID\n    );\n    event LogAnySwapTradeTokensForNative(\n        address[] path,\n        address indexed from,\n        address indexed to,\n        uint256 amountIn,\n        uint256 amountOutMin,\n        uint256 fromChainID,\n        uint256 toChainID\n    );\n\n    function changeVault(address token, address newVault)\n        public\n        onlyMPC\n        returns (bool)\n    {\n        require(newVault != address(0), \"AnyswapV3Router: address(0x0)\");\n        return AnyswapV1ERC20(token).changeVault(newVault);\n    }\n\n    function _anySwapOut(\n        address from,\n        address token,\n        address to,\n        uint256 amount,\n        uint256 toChainID\n    ) internal {\n        AnyswapV1ERC20(token).burn(from, amount);\n        emit LogAnySwapOut(token, from, to, amount, cID(), toChainID);\n    }\n\n    // Swaps `amount` `token` from this chain to `toChainID` chain with recipient `to`\n    function anySwapOut(\n        address token,\n        address to,\n        uint256 amount,\n        uint256 toChainID\n    ) external {\n        _anySwapOut(msg.sender, token, to, amount, toChainID);\n    }\n\n    // Swaps `amount` `token` from this chain to `toChainID` chain with recipient `to` by minting with `underlying`\n    function anySwapOutUnderlying(\n        address token,\n        address to,\n        uint256 amount,\n        uint256 toChainID\n    ) external {\n        IERC20(AnyswapV1ERC20(token).underlying()).safeTransferFrom(\n            msg.sender,\n            token,\n            amount\n        );\n        AnyswapV1ERC20(token).depositVault(amount, msg.sender);\n        _anySwapOut(msg.sender, token, to, amount, toChainID);\n    }\n\n    function anySwapOutNative(\n        address token,\n        address to,\n        uint256 toChainID\n    ) external payable {\n        require(\n            AnyswapV1ERC20(token).underlying() == wNATIVE,\n            \"AnyswapV3Router: underlying is not wNATIVE\"\n        );\n        IERC20(wNATIVE).safeTransferFrom(msg.sender, token, msg.value);\n        AnyswapV1ERC20(token).depositVault(msg.value, msg.sender);\n        _anySwapOut(msg.sender, token, to, msg.value, toChainID);\n    }\n\n    function anySwapOutUnderlyingWithPermit(\n        address from,\n        address token,\n        address to,\n        uint256 amount,\n        uint256 deadline,\n        uint8 v,\n        bytes32 r,\n        bytes32 s,\n        uint256 toChainID\n    ) external {\n        address _underlying = AnyswapV1ERC20(token).underlying();\n        IERC20(_underlying).permit(\n            from,\n            address(this),\n            amount,\n            deadline,\n            v,\n            r,\n            s\n        );\n        IERC20(_underlying).safeTransferFrom(from, token, amount);\n        AnyswapV1ERC20(token).depositVault(amount, from);\n        _anySwapOut(from, token, to, amount, toChainID);\n    }\n\n    function anySwapOutUnderlyingWithTransferPermit(\n        address from,\n        address token,\n        address to,\n        uint256 amount,\n        uint256 deadline,\n        uint8 v,\n        bytes32 r,\n        bytes32 s,\n        uint256 toChainID\n    ) external {\n        IERC20(AnyswapV1ERC20(token).underlying()).transferWithPermit(\n            from,\n            token,\n            amount,\n            deadline,\n            v,\n            r,\n            s\n        );\n        AnyswapV1ERC20(token).depositVault(amount, from);\n        _anySwapOut(from, token, to, amount, toChainID);\n    }\n\n    function anySwapOut(\n        address[] calldata tokens,\n        address[] calldata to,\n        uint256[] calldata amounts,\n        uint256[] calldata toChainIDs\n    ) external {\n        for (uint256 i = 0; i < tokens.length; i++) {\n            _anySwapOut(\n                msg.sender,\n                tokens[i],\n                to[i],\n                amounts[i],\n                toChainIDs[i]\n            );\n        }\n    }\n\n    // swaps `amount` `token` in `fromChainID` to `to` on this chainID\n    function _anySwapIn(\n        bytes32 txs,\n        address token,\n        address to,\n        uint256 amount,\n        uint256 fromChainID\n    ) internal {\n        AnyswapV1ERC20(token).mint(to, amount);\n        emit LogAnySwapIn(txs, token, to, amount, fromChainID, cID());\n    }\n\n    // swaps `amount` `token` in `fromChainID` to `to` on this chainID\n    // triggered by `anySwapOut`\n    function anySwapIn(\n        bytes32 txs,\n        address token,\n        address to,\n        uint256 amount,\n        uint256 fromChainID\n    ) external onlyMPC {\n        _anySwapIn(txs, token, to, amount, fromChainID);\n    }\n\n    // swaps `amount` `token` in `fromChainID` to `to` on this chainID with `to` receiving `underlying`\n    function anySwapInUnderlying(\n        bytes32 txs,\n        address token,\n        address to,\n        uint256 amount,\n        uint256 fromChainID\n    ) external onlyMPC {\n        _anySwapIn(txs, token, to, amount, fromChainID);\n        AnyswapV1ERC20(token).withdrawVault(to, amount, to);\n    }\n\n    // swaps `amount` `token` in `fromChainID` to `to` on this chainID with `to` receiving `underlying` if possible\n    function anySwapInAuto(\n        bytes32 txs,\n        address token,\n        address to,\n        uint256 amount,\n        uint256 fromChainID\n    ) external onlyMPC {\n        _anySwapIn(txs, token, to, amount, fromChainID);\n        AnyswapV1ERC20 _anyToken = AnyswapV1ERC20(token);\n        address _underlying = _anyToken.underlying();\n        if (\n            _underlying != address(0) &&\n            IERC20(_underlying).balanceOf(token) >= amount\n        ) {\n            if (_underlying == wNATIVE) {\n                _anyToken.withdrawVault(to, amount, address(this));\n                TransferHelper.safeTransfer(wNATIVE, to, amount);\n            } else {\n                _anyToken.withdrawVault(to, amount, to);\n            }\n        }\n    }\n\n    function depositNative(address token, address to)\n        external\n        payable\n        returns (uint256)\n    {\n        require(\n            AnyswapV1ERC20(token).underlying() == wNATIVE,\n            \"AnyswapV3Router: underlying is not wNATIVE\"\n        );\n        IwNATIVE(wNATIVE).deposit{value: msg.value}();\n        assert(IwNATIVE(wNATIVE).transfer(token, msg.value));\n        AnyswapV1ERC20(token).depositVault(msg.value, to);\n        return msg.value;\n    }\n\n    function withdrawNative(\n        address token,\n        uint256 amount,\n        address to\n    ) external returns (uint256) {\n        require(\n            AnyswapV1ERC20(token).underlying() == wNATIVE,\n            \"AnyswapV3Router: underlying is not wNATIVE\"\n        );\n        AnyswapV1ERC20(token).withdrawVault(msg.sender, amount, address(this));\n        IwNATIVE(wNATIVE).withdraw(amount);\n        TransferHelper.safeTransferNative(to, amount);\n        return amount;\n    }\n\n    // extracts mpc fee from bridge fees\n    function anySwapFeeTo(address token, uint256 amount) external onlyMPC {\n        address _mpc = mpc();\n        AnyswapV1ERC20(token).mint(_mpc, amount);\n        AnyswapV1ERC20(token).withdrawVault(_mpc, amount, _mpc);\n    }\n\n    function anySwapIn(\n        bytes32[] calldata txs,\n        address[] calldata tokens,\n        address[] calldata to,\n        uint256[] calldata amounts,\n        uint256[] calldata fromChainIDs\n    ) external onlyMPC {\n        for (uint256 i = 0; i < tokens.length; i++) {\n            _anySwapIn(txs[i], tokens[i], to[i], amounts[i], fromChainIDs[i]);\n        }\n    }\n\n    // sets up a cross-chain trade from this chain to `toChainID` for `path` trades to `to`\n    function anySwapOutExactTokensForTokens(\n        uint256 amountIn,\n        uint256 amountOutMin,\n        address[] calldata path,\n        address to,\n        uint256 deadline,\n        uint256 toChainID\n    ) external virtual ensure(deadline) {\n        AnyswapV1ERC20(path[0]).burn(msg.sender, amountIn);\n        emit LogAnySwapTradeTokensForTokens(\n            path,\n            msg.sender,\n            to,\n            amountIn,\n            amountOutMin,\n            cID(),\n            toChainID\n        );\n    }\n\n    // sets up a cross-chain trade from this chain to `toChainID` for `path` trades to `to`\n    function anySwapOutExactTokensForTokensUnderlying(\n        uint256 amountIn,\n        uint256 amountOutMin,\n        address[] calldata path,\n        address to,\n        uint256 deadline,\n        uint256 toChainID\n    ) external virtual ensure(deadline) {\n        IERC20(AnyswapV1ERC20(path[0]).underlying()).safeTransferFrom(\n            msg.sender,\n            path[0],\n            amountIn\n        );\n        AnyswapV1ERC20(path[0]).depositVault(amountIn, msg.sender);\n        AnyswapV1ERC20(path[0]).burn(msg.sender, amountIn);\n        emit LogAnySwapTradeTokensForTokens(\n            path,\n            msg.sender,\n            to,\n            amountIn,\n            amountOutMin,\n            cID(),\n            toChainID\n        );\n    }\n\n    // sets up a cross-chain trade from this chain to `toChainID` for `path` trades to `to`\n    function anySwapOutExactTokensForTokensUnderlyingWithPermit(\n        address from,\n        uint256 amountIn,\n        uint256 amountOutMin,\n        address[] calldata path,\n        address to,\n        uint256 deadline,\n        uint8 v,\n        bytes32 r,\n        bytes32 s,\n        uint256 toChainID\n    ) external virtual ensure(deadline) {\n        address _underlying = AnyswapV1ERC20(path[0]).underlying();\n        IERC20(_underlying).permit(\n            from,\n            address(this),\n            amountIn,\n            deadline,\n            v,\n            r,\n            s\n        );\n        IERC20(_underlying).safeTransferFrom(from, path[0], amountIn);\n        AnyswapV1ERC20(path[0]).depositVault(amountIn, from);\n        AnyswapV1ERC20(path[0]).burn(from, amountIn);\n        {\n            address[] memory _path = path;\n            address _from = from;\n            address _to = to;\n            uint256 _amountIn = amountIn;\n            uint256 _amountOutMin = amountOutMin;\n            uint256 _cID = cID();\n            uint256 _toChainID = toChainID;\n            emit LogAnySwapTradeTokensForTokens(\n                _path,\n                _from,\n                _to,\n                _amountIn,\n                _amountOutMin,\n                _cID,\n                _toChainID\n            );\n        }\n    }\n\n    // sets up a cross-chain trade from this chain to `toChainID` for `path` trades to `to`\n    function anySwapOutExactTokensForTokensUnderlyingWithTransferPermit(\n        address from,\n        uint256 amountIn,\n        uint256 amountOutMin,\n        address[] calldata path,\n        address to,\n        uint256 deadline,\n        uint8 v,\n        bytes32 r,\n        bytes32 s,\n        uint256 toChainID\n    ) external virtual ensure(deadline) {\n        IERC20(AnyswapV1ERC20(path[0]).underlying()).transferWithPermit(\n            from,\n            path[0],\n            amountIn,\n            deadline,\n            v,\n            r,\n            s\n        );\n        AnyswapV1ERC20(path[0]).depositVault(amountIn, from);\n        AnyswapV1ERC20(path[0]).burn(from, amountIn);\n        emit LogAnySwapTradeTokensForTokens(\n            path,\n            from,\n            to,\n            amountIn,\n            amountOutMin,\n            cID(),\n            toChainID\n        );\n    }\n\n    // Swaps `amounts[path.length-1]` `path[path.length-1]` to `to` on this chain\n    // Triggered by `anySwapOutExactTokensForTokens`\n    function anySwapInExactTokensForTokens(\n        bytes32 txs,\n        uint256 amountIn,\n        uint256 amountOutMin,\n        address[] calldata path,\n        address to,\n        uint256 deadline,\n        uint256 fromChainID\n    )\n        external\n        virtual\n        onlyMPC\n        ensure(deadline)\n        returns (uint256[] memory amounts)\n    {\n        amounts = ISushiswapV2Proxy(sushiProxy).getAmountsOut(amountIn, path);\n        require(\n            amounts[amounts.length - 1] >= amountOutMin,\n            \"SushiswapV2Router: INSUFFICIENT_OUTPUT_AMOUNT\"\n        );\n        _anySwapIn(\n            txs,\n            path[0],\n            ISushiswapV2Proxy(sushiProxy).pairFor(path[0], path[1]),\n            amounts[0],\n            fromChainID\n        );\n        _swap(amounts, path, to);\n    }\n\n    // sets up a cross-chain trade from this chain to `toChainID` for `path` trades to `to`\n    function anySwapOutExactTokensForNative(\n        uint256 amountIn,\n        uint256 amountOutMin,\n        address[] calldata path,\n        address to,\n        uint256 deadline,\n        uint256 toChainID\n    ) external virtual ensure(deadline) {\n        AnyswapV1ERC20(path[0]).burn(msg.sender, amountIn);\n        emit LogAnySwapTradeTokensForNative(\n            path,\n            msg.sender,\n            to,\n            amountIn,\n            amountOutMin,\n            cID(),\n            toChainID\n        );\n    }\n\n    // sets up a cross-chain trade from this chain to `toChainID` for `path` trades to `to`\n    function anySwapOutExactTokensForNativeUnderlying(\n        uint256 amountIn,\n        uint256 amountOutMin,\n        address[] calldata path,\n        address to,\n        uint256 deadline,\n        uint256 toChainID\n    ) external virtual ensure(deadline) {\n        IERC20(AnyswapV1ERC20(path[0]).underlying()).safeTransferFrom(\n            msg.sender,\n            path[0],\n            amountIn\n        );\n        AnyswapV1ERC20(path[0]).depositVault(amountIn, msg.sender);\n        AnyswapV1ERC20(path[0]).burn(msg.sender, amountIn);\n        emit LogAnySwapTradeTokensForNative(\n            path,\n            msg.sender,\n            to,\n            amountIn,\n            amountOutMin,\n            cID(),\n            toChainID\n        );\n    }\n\n    // sets up a cross-chain trade from this chain to `toChainID` for `path` trades to `to`\n    function anySwapOutExactTokensForNativeUnderlyingWithPermit(\n        address from,\n        uint256 amountIn,\n        uint256 amountOutMin,\n        address[] calldata path,\n        address to,\n        uint256 deadline,\n        uint8 v,\n        bytes32 r,\n        bytes32 s,\n        uint256 toChainID\n    ) external virtual ensure(deadline) {\n        address _underlying = AnyswapV1ERC20(path[0]).underlying();\n        IERC20(_underlying).permit(\n            from,\n            address(this),\n            amountIn,\n            deadline,\n            v,\n            r,\n            s\n        );\n        IERC20(_underlying).safeTransferFrom(from, path[0], amountIn);\n        AnyswapV1ERC20(path[0]).depositVault(amountIn, from);\n        AnyswapV1ERC20(path[0]).burn(from, amountIn);\n        {\n            address[] memory _path = path;\n            address _from = from;\n            address _to = to;\n            uint256 _amountIn = amountIn;\n            uint256 _amountOutMin = amountOutMin;\n            uint256 _cID = cID();\n            uint256 _toChainID = toChainID;\n            emit LogAnySwapTradeTokensForNative(\n                _path,\n                _from,\n                _to,\n                _amountIn,\n                _amountOutMin,\n                _cID,\n                _toChainID\n            );\n        }\n    }\n\n    // sets up a cross-chain trade from this chain to `toChainID` for `path` trades to `to`\n    function anySwapOutExactTokensForNativeUnderlyingWithTransferPermit(\n        address from,\n        uint256 amountIn,\n        uint256 amountOutMin,\n        address[] calldata path,\n        address to,\n        uint256 deadline,\n        uint8 v,\n        bytes32 r,\n        bytes32 s,\n        uint256 toChainID\n    ) external virtual ensure(deadline) {\n        IERC20(AnyswapV1ERC20(path[0]).underlying()).transferWithPermit(\n            from,\n            path[0],\n            amountIn,\n            deadline,\n            v,\n            r,\n            s\n        );\n        AnyswapV1ERC20(path[0]).depositVault(amountIn, from);\n        AnyswapV1ERC20(path[0]).burn(from, amountIn);\n        emit LogAnySwapTradeTokensForNative(\n            path,\n            from,\n            to,\n            amountIn,\n            amountOutMin,\n            cID(),\n            toChainID\n        );\n    }\n\n    // Swaps `amounts[path.length-1]` `path[path.length-1]` to `to` on this chain\n    // Triggered by `anySwapOutExactTokensForNative`\n    function anySwapInExactTokensForNative(\n        bytes32 txs,\n        uint256 amountIn,\n        uint256 amountOutMin,\n        address[] calldata path,\n        address to,\n        uint256 deadline,\n        uint256 fromChainID\n    )\n        external\n        virtual\n        onlyMPC\n        ensure(deadline)\n        returns (uint256[] memory amounts)\n    {\n        require(\n            path[path.length - 1] == wNATIVE,\n            \"AnyswapV3Router: INVALID_PATH\"\n        );\n        amounts = ISushiswapV2Proxy(sushiProxy).getAmountsOut(amountIn, path);\n        require(\n            amounts[amounts.length - 1] >= amountOutMin,\n            \"AnyswapV3Router: INSUFFICIENT_OUTPUT_AMOUNT\"\n        );\n        _anySwapIn(\n            txs,\n            path[0],\n            ISushiswapV2Proxy(sushiProxy).pairFor(path[0], path[1]),\n            amounts[0],\n            fromChainID\n        );\n        _swap(amounts, path, address(this));\n        TransferHelper.safeTransfer(wNATIVE, to, amounts[amounts.length - 1]);\n    }\n\n    // **** SWAP ****\n    // requires the initial amount to have already been sent to the first pair\n    function _swap(\n        uint256[] memory amounts,\n        address[] memory path,\n        address _to\n    ) internal virtual {\n        for (uint256 i; i < path.length - 1; i++) {\n            (address input, address output) = (path[i], path[i + 1]);\n            (address token0, ) = ISushiswapV2Proxy(sushiProxy).sortTokens(\n                input,\n                output\n            );\n            uint256 amountOut = amounts[i + 1];\n            (uint256 amount0Out, uint256 amount1Out) = input == token0\n                ? (uint256(0), amountOut)\n                : (amountOut, uint256(0));\n            address to = i < path.length - 2\n                ? ISushiswapV2Proxy(sushiProxy).pairFor(output, path[i + 2])\n                : _to;\n            ISushiswapV2Pair(\n                ISushiswapV2Proxy(sushiProxy).pairFor(input, output)\n            ).swap(amount0Out, amount1Out, to, new bytes(0));\n        }\n    }\n}\n",
  "sourcePath": "/home/justin/anyswap/L2Router/contracts/boba/contracts/BOBA_AnyswapV3Router.sol",
  "compiler": {
    "name": "solc",
    "version": "0.7.6"
  },
  "schemaVersion": "3.2.4",
  "updatedAt": "2021-09-15T08:42:58.202Z",
  "devdoc": {
    "kind": "dev",
    "methods": {},
    "version": 1
  },
  "userdoc": {
    "kind": "user",
    "methods": {},
    "version": 1
  }
}