{
  "contractName": "SushiswapV2Proxy",
  "abi": [
    {
      "inputs": [
        {
          "internalType": "address",
          "name": "_factory",
          "type": "address"
        }
      ],
      "stateMutability": "nonpayable",
      "type": "constructor"
    },
    {
      "anonymous": false,
      "inputs": [
        {
          "indexed": true,
          "internalType": "address",
          "name": "factory",
          "type": "address"
        }
      ],
      "name": "LogSetFactory",
      "type": "event"
    },
    {
      "inputs": [],
      "name": "admin",
      "outputs": [
        {
          "internalType": "address",
          "name": "",
          "type": "address"
        }
      ],
      "stateMutability": "view",
      "type": "function"
    },
    {
      "inputs": [],
      "name": "factory",
      "outputs": [
        {
          "internalType": "address",
          "name": "",
          "type": "address"
        }
      ],
      "stateMutability": "view",
      "type": "function"
    },
    {
      "inputs": [
        {
          "internalType": "address",
          "name": "_admin",
          "type": "address"
        }
      ],
      "name": "setAdmin",
      "outputs": [],
      "stateMutability": "nonpayable",
      "type": "function"
    },
    {
      "inputs": [
        {
          "internalType": "address",
          "name": "_factory",
          "type": "address"
        }
      ],
      "name": "setFactory",
      "outputs": [
        {
          "internalType": "bool",
          "name": "",
          "type": "bool"
        }
      ],
      "stateMutability": "nonpayable",
      "type": "function"
    },
    {
      "inputs": [
        {
          "internalType": "uint256",
          "name": "amountA",
          "type": "uint256"
        },
        {
          "internalType": "uint256",
          "name": "reserveA",
          "type": "uint256"
        },
        {
          "internalType": "uint256",
          "name": "reserveB",
          "type": "uint256"
        }
      ],
      "name": "quote",
      "outputs": [
        {
          "internalType": "uint256",
          "name": "amountB",
          "type": "uint256"
        }
      ],
      "stateMutability": "pure",
      "type": "function"
    },
    {
      "inputs": [
        {
          "internalType": "uint256",
          "name": "amountIn",
          "type": "uint256"
        },
        {
          "internalType": "uint256",
          "name": "reserveIn",
          "type": "uint256"
        },
        {
          "internalType": "uint256",
          "name": "reserveOut",
          "type": "uint256"
        }
      ],
      "name": "getAmountOut",
      "outputs": [
        {
          "internalType": "uint256",
          "name": "amountOut",
          "type": "uint256"
        }
      ],
      "stateMutability": "pure",
      "type": "function"
    },
    {
      "inputs": [
        {
          "internalType": "uint256",
          "name": "amountOut",
          "type": "uint256"
        },
        {
          "internalType": "uint256",
          "name": "reserveIn",
          "type": "uint256"
        },
        {
          "internalType": "uint256",
          "name": "reserveOut",
          "type": "uint256"
        }
      ],
      "name": "getAmountIn",
      "outputs": [
        {
          "internalType": "uint256",
          "name": "amountIn",
          "type": "uint256"
        }
      ],
      "stateMutability": "pure",
      "type": "function"
    },
    {
      "inputs": [
        {
          "internalType": "uint256",
          "name": "amountIn",
          "type": "uint256"
        },
        {
          "internalType": "address[]",
          "name": "path",
          "type": "address[]"
        }
      ],
      "name": "getAmountsOut",
      "outputs": [
        {
          "internalType": "uint256[]",
          "name": "amounts",
          "type": "uint256[]"
        }
      ],
      "stateMutability": "view",
      "type": "function"
    },
    {
      "inputs": [
        {
          "internalType": "uint256",
          "name": "amountOut",
          "type": "uint256"
        },
        {
          "internalType": "address[]",
          "name": "path",
          "type": "address[]"
        }
      ],
      "name": "getAmountsIn",
      "outputs": [
        {
          "internalType": "uint256[]",
          "name": "amounts",
          "type": "uint256[]"
        }
      ],
      "stateMutability": "view",
      "type": "function"
    }
  ],
  "bytecode": "0x60806040523480156200001c5760008062000019620002e0565b50505b50604051620017e7380380620017e7833981810160405260208110156200004d576000806200004a620002e0565b50505b810190808051925050505a620000626200034d565b6001808062000070620003a9565b816001600160a01b0302191690836001600160a01b031602179062000094620003f6565b5050506001600160a01b03811615620000b457620000b281620000bb565b505b5062000445565b6000806001620000ca620003a9565b906101000a90046001600160a01b03166001600160a01b03165a620000ee6200034d565b6001600160a01b031614620001545760405162461bcd60e51b815260206004820152601b60248201527f537573686973776170563250726f78793a20464f5242494444454e000000000060448201526064016040518091039062000151620002e0565b50505b6000808062000162620003a9565b906101000a90046001600160a01b03166001600160a01b031614620001d85760405162461bcd60e51b815260206004820152601b60248201527f537573686973776170563250726f78793a20464f5242494444454e0000000000604482015260640160405180910390620001d5620002e0565b50505b6001600160a01b0382166200023e5760405162461bcd60e51b815260206004820152601e60248201527f537573686973776170563250726f78793a2061646472657373283078302900006044820152606401604051809103906200023b620002e0565b50505b8160006001816200024e620003a9565b816001600160a01b0302191690836001600160a01b031602179062000272620003f6565b5062000280915050620002bd565b6001600160a01b03167f68ec1681f33885e64cf3268f285f4789bd226f23a394700823d46105a1c03e8160405160405180910390a2506001919050565b60008080620002cb620003a9565b906101000a90046001600160a01b0316905090565b632a2a7adb598160e01b8152600481016020815285602082015260005b868110156200031a578086015182820160400152602001620002fd565b506020828760640184336000905af158600e01573d6000803e3d6000fd5b3d6001141558600a015760016000f35b505050565b6373509064598160e01b8152602081600483336000905af158600e01573d6000803e3d6000fd5b3d6001141558600a015760016000f35b8051935060005b6040811015620003a4576000828201526020016200038b565b505050565b6303daa959598160e01b8152836004820152602081602483336000905af158600e01573d6000803e3d6000fd5b3d6001141558600a015760016000f35b805160008252935060206200038b565b6322bd64c0598160e01b8152836004820152846024820152600081604483336000905af158600e01573d6000803e3d6000fd5b3d6001141558600a015760016000f35b6000815260206200038b565b61139280620004556000396000f3fe608060405234801561001957600080610016610fe8565b50505b506004361061008c5760003560e01c8063054d50d41461009a5780631f00ca74146100de5780635bb47808146101fd578063704b6c021461024057806385f8c25914610271578063ad615dec146102a3578063c45a0155146102d5578063d06ca61f146102f9578063f851a440146103c5575b600080610097610fe8565b50505b6100cc600480360360608110156100b9576000806100b6610fe8565b50505b50803590602081013590604001356103cd565b60405190815260200160405180910390f35b6101aa600480360360408110156100fd576000806100fa610fe8565b50505b81359190810190604081016020820135600160201b81111561012757600080610124610fe8565b50505b8201836020820111156101425760008061013f610fe8565b50505b803590602001918460208302840111600160201b8311171561016c57600080610169610fe8565b50505b9190808060200260200160405190810160405280939291908181526020018383602002808284376000920191909152509295506103e2945050505050565b60405160208082528190810183818151815260200191508051906020019060200280838360005b838110156101e95780820151838201526020016101d1565b505050509050019250505060405180910390f35b61022c6004803603602081101561021c57600080610219610fe8565b50505b50356001600160a01b03166103ff565b604051901515815260200160405180910390f35b61026f6004803603602081101561025f5760008061025c610fe8565b50505b50356001600160a01b03166105c7565b005b6100cc600480360360608110156102905760008061028d610fe8565b50505b5080359060208101359060400135610697565b6100cc600480360360608110156102c2576000806102bf610fe8565b50505b50803590602081013590604001356106a4565b6102dd6106b1565b6040516001600160a01b03909116815260200160405180910390f35b6101aa6004803603604081101561031857600080610315610fe8565b50505b81359190810190604081016020820135600160201b8111156103425760008061033f610fe8565b50505b82018360208201111561035d5760008061035a610fe8565b50505b803590602001918460208302840111600160201b8311171561038757600080610384610fe8565b50505b9190808060200260200160405190810160405280939291908181526020018383602002808284376000920191909152509295506106d2945050505050565b6102dd6106e6565b60006103da848484610705565b949350505050565b60606103f66103ef6106b1565b84846107ef565b90505b92915050565b600080600161040c611053565b906101000a90046001600160a01b03166001600160a01b03165a61042e6110b3565b6001600160a01b03161461047f5760405162461bcd60e51b815260206004820152601b60248201526000805160206112fe83398151915260448201526064016040518091039061047c610fe8565b50505b6000808061048b611053565b906101000a90046001600160a01b03166001600160a01b0316146104ec5760405162461bcd60e51b815260206004820152601b60248201526000805160206112fe8339815191526044820152606401604051809103906104e9610fe8565b50505b6001600160a01b03821661054f5760405162461bcd60e51b815260206004820152601e60248201527f537573686973776170563250726f78793a20616464726573732830783029000060448201526064016040518091039061054c610fe8565b50505b81600060018161055d611053565b816001600160a01b0302191690836001600160a01b031602179061057f6110f9565b50505061058a6106b1565b6001600160a01b03167f68ec1681f33885e64cf3268f285f4789bd226f23a394700823d46105a1c03e8160405160405180910390a2506001919050565b600060016105d3611053565b906101000a90046001600160a01b03166001600160a01b03165a6105f56110b3565b6001600160a01b0316146106465760405162461bcd60e51b815260206004820152601b60248201526000805160206112fe833981519152604482015260640160405180910390610643610fe8565b50505b6001600160a01b0381166106625760008061065f610fe8565b50505b806001808061066f611053565b816001600160a01b0302191690836001600160a01b03160217906106916110f9565b50505050565b60006103da84848461093e565b60006103da848484610a28565b600080806106bd611053565b906101000a90046001600160a01b0316905090565b60606103f66106df6106b1565b8484610ae0565b600060016106f2611053565b906101000a90046001600160a01b031681565b600080841161074e5760405162461bcd60e51b815260040180806020018281038252602d815260200180611345602d91396040019150506040518091039061074b610fe8565b50505b60008311801561075e5750600082115b6107a25760405162461bcd60e51b815260040180806020018281038252602a81526020018061127f602a91396040019150506040518091039061079f610fe8565b50505b60006107b0856103e5610c15565b905060006107be8285610c15565b905060006107d8836107d2886103e8610c15565b90610c85565b90508082816107e357fe5b04979650505050505050565b606060028251101561083e5760405162461bcd60e51b8152602060048201819052602482015260008051602061137283398151915260448201526064016040518091039061083b610fe8565b50505b81516001600160401b038111801561085e5760008061085b610fe8565b50505b50604051908082528060200260200182016040528015610888578160200160208202803683370190505b509050828160018351038151811061089c57fe5b6020026020010181815250506000600183510390505b8015610936576000806108ef878660018603815181106108ce57fe5b60200260200101518786815181106108e257fe5b6020026020010151610cd9565b9150915061091184848151811061090257fe5b6020026020010151838361093e565b84600185038151811061092057fe5b60209081029190910101525050600019016108b2565b509392505050565b60008084116109875760405162461bcd60e51b815260040180806020018281038252602e8152602001806112d0602e913960400191505060405180910390610984610fe8565b50505b6000831180156109975750600082115b6109db5760405162461bcd60e51b815260040180806020018281038252602a81526020018061127f602a9139604001915050604051809103906109d8610fe8565b50505b60006109f36103e86109ed8688610c15565b90610c15565b90506000610a076103e56109ed8689610ddf565b9050610a1e6001828481610a1757fe5b0490610c85565b9695505050505050565b6000808411610a715760405162461bcd60e51b815260040180806020018281038252602781526020018061131e6027913960400191505060405180910390610a6e610fe8565b50505b600083118015610a815750600082115b610ac55760405162461bcd60e51b815260040180806020018281038252602a81526020018061127f602a913960400191505060405180910390610ac2610fe8565b50505b82610ad08584610c15565b81610ad757fe5b04949350505050565b6060600282511015610b2f5760405162461bcd60e51b81526020600482018190526024820152600080516020611372833981519152604482015260640160405180910390610b2c610fe8565b50505b81516001600160401b0381118015610b4f57600080610b4c610fe8565b50505b50604051908082528060200260200182016040528015610b79578160200160208202803683370190505b5090508281600081518110610b8a57fe5b60200260200101818152505060005b600183510381101561093657600080610bcf87868581518110610bb857fe5b60200260200101518786600101815181106108e257fe5b91509150610bf1848481518110610be257fe5b60200260200101518383610705565b848460010181518110610c0057fe5b60209081029190910101525050600101610b99565b6000811580610c3057505080820282828281610c2d57fe5b04145b6103f95760405162461bcd60e51b815260206004820152601460248201527364732d6d6174682d6d756c2d6f766572666c6f7760601b604482015260640160405180910390610c7d610fe8565b505092915050565b808201828110156103f95760405162461bcd60e51b815260206004820152601460248201527364732d6d6174682d6164642d6f766572666c6f7760601b604482015260640160405180910390610c7d610fe8565b6000806000610ce88585610e34565b509050600080610cf9888888610f23565b6001600160a01b0316630902f1ac6040518163ffffffff1660e01b81526004016060604051808303818680610d2c611147565b158015610d4157600080610d3e610fe8565b50505b505a610d4b611193565b5050505050158015610d6a573d6000803e3d6000610d67610fe8565b50505b505050506040513d6060811015610d8957600080610d86610fe8565b50505b810190808051929190602001805192919060200180515050506001600160701b039283169450501690506001600160a01b0387811690841614610dcd578082610dd0565b81815b90999098509650505050505050565b808203828111156103f95760405162461bcd60e51b815260206004820152601560248201527464732d6d6174682d7375622d756e646572666c6f7760581b604482015260640160405180910390610c7d610fe8565b600080826001600160a01b0316846001600160a01b03161415610e915760405162461bcd60e51b81526004018080602001828103825260278152602001806112a96027913960400191505060405180910390610e8e610fe8565b50505b826001600160a01b0316846001600160a01b031610610eb1578284610eb4565b83835b90925090506001600160a01b038216610f1c5760405162461bcd60e51b815260206004820181905260248201527f53757368697377617056324c6962726172793a205a45524f5f41444452455353604482015260640160405180910390610f19610fe8565b50505b9250929050565b6000806000610f328585610e34565b915091508582826040516001600160601b0319606093841b811660208301529190921b166034820152604801604051602081830303815290604052805190602001206040516001600160f81b0319602082015260609290921b6001600160601b031916602183015260358201527fe18a34eb0e04b04f7a0ac29a6e80748dca96319b42c54d679cb821dca90c63036055820152607501604051602081830303815290604052805190602001209695505050505050565b632a2a7adb598160e01b8152600481016020815285602082015260005b86811015611020578086015182820160400152602001611005565b506020828760640184336000905af158600e01573d6000803e3d6000fd5b3d6001141558600a015760016000f35b505050565b6303daa959598160e01b8152836004820152602081602483336000905af158600e01573d6000803e3d6000fd5b3d6001141558600a015760016000f35b8051935060005b60408110156110ae57600082820152602001611097565b505050565b6373509064598160e01b8152602081600483336000905af158600e01573d6000803e3d6000fd5b3d6001141558600a015760016000f35b80516000825293506020611097565b6322bd64c0598160e01b8152836004820152846024820152600081604483336000905af158600e01573d6000803e3d6000fd5b3d6001141558600a015760016000f35b600081526020611097565b638435035b598160e01b8152836004820152602081602483336000905af158600e01573d6000803e3d6000fd5b3d6001141558600a015760016000f35b80516000825293506020611097565b638540661f598160e01b81526111c4565b80808311156103f9575090919050565b80808310156103f9575090919050565b836004820152846024820152606060448201528660648201526084810160005b888110156111fc5780880151828201526020016111e4565b506060828960a40184336000905af158600e01573d6000803e3d6000fd5b3d6001141558600a015760016000f35b815160408301513d6000853e8b8b82606087013350600060045af150596112518d3d6111b4565b8c0161125d81876111a4565b5b82811015611272576000815260200161125e565b50929c5050505050505056fe53757368697377617056324c6962726172793a20494e53554646494349454e545f4c495155494449545953757368697377617056324c6962726172793a204944454e544943414c5f41444452455353455353757368697377617056324c6962726172793a20494e53554646494349454e545f4f55545055545f414d4f554e54537573686973776170563250726f78793a20464f5242494444454e000000000053757368697377617056324c6962726172793a20494e53554646494349454e545f414d4f554e5453757368697377617056324c6962726172793a20494e53554646494349454e545f494e5055545f414d4f554e5453757368697377617056324c6962726172793a20494e56414c49445f50415448",
  "immutableReferences": {},
  "source": "// SPDX-License-Identifier: GPL-3.0-or-later\n\npragma solidity 0.7.6;\n\n// a library for performing overflow-safe math, courtesy of DappHub (https://github.com/dapphub/ds-math)\n\nlibrary SafeMathSushiswap {\n    function add(uint256 x, uint256 y) internal pure returns (uint256 z) {\n        require((z = x + y) >= x, \"ds-math-add-overflow\");\n    }\n\n    function sub(uint256 x, uint256 y) internal pure returns (uint256 z) {\n        require((z = x - y) <= x, \"ds-math-sub-underflow\");\n    }\n\n    function mul(uint256 x, uint256 y) internal pure returns (uint256 z) {\n        require(y == 0 || (z = x * y) / y == x, \"ds-math-mul-overflow\");\n    }\n}\n\ninterface ISushiswapV2Pair {\n    event Approval(\n        address indexed owner,\n        address indexed spender,\n        uint256 value\n    );\n    event Transfer(address indexed from, address indexed to, uint256 value);\n\n    function name() external pure returns (string memory);\n\n    function symbol() external pure returns (string memory);\n\n    function decimals() external pure returns (uint8);\n\n    function totalSupply() external view returns (uint256);\n\n    function balanceOf(address owner) external view returns (uint256);\n\n    function allowance(address owner, address spender)\n        external\n        view\n        returns (uint256);\n\n    function approve(address spender, uint256 value) external returns (bool);\n\n    function transfer(address to, uint256 value) external returns (bool);\n\n    function transferFrom(\n        address from,\n        address to,\n        uint256 value\n    ) external returns (bool);\n\n    function DOMAIN_SEPARATOR() external view returns (bytes32);\n\n    function PERMIT_TYPEHASH() external pure returns (bytes32);\n\n    function nonces(address owner) external view returns (uint256);\n\n    function permit(\n        address owner,\n        address spender,\n        uint256 value,\n        uint256 deadline,\n        uint8 v,\n        bytes32 r,\n        bytes32 s\n    ) external;\n\n    event Mint(address indexed sender, uint256 amount0, uint256 amount1);\n    event Burn(\n        address indexed sender,\n        uint256 amount0,\n        uint256 amount1,\n        address indexed to\n    );\n    event Swap(\n        address indexed sender,\n        uint256 amount0In,\n        uint256 amount1In,\n        uint256 amount0Out,\n        uint256 amount1Out,\n        address indexed to\n    );\n    event Sync(uint112 reserve0, uint112 reserve1);\n\n    function MINIMUM_LIQUIDITY() external pure returns (uint256);\n\n    function factory() external view returns (address);\n\n    function token0() external view returns (address);\n\n    function token1() external view returns (address);\n\n    function getReserves()\n        external\n        view\n        returns (\n            uint112 reserve0,\n            uint112 reserve1,\n            uint32 blockTimestampLast\n        );\n\n    function price0CumulativeLast() external view returns (uint256);\n\n    function price1CumulativeLast() external view returns (uint256);\n\n    function kLast() external view returns (uint256);\n\n    function mint(address to) external returns (uint256 liquidity);\n\n    function burn(address to)\n        external\n        returns (uint256 amount0, uint256 amount1);\n\n    function swap(\n        uint256 amount0Out,\n        uint256 amount1Out,\n        address to,\n        bytes calldata data\n    ) external;\n\n    function skim(address to) external;\n\n    function sync() external;\n\n    function initialize(address, address) external;\n}\n\nlibrary SushiswapV2Library {\n    using SafeMathSushiswap for uint256;\n\n    // returns sorted token addresses, used to handle return values from pairs sorted in this order\n    function sortTokens(address tokenA, address tokenB)\n        internal\n        pure\n        returns (address token0, address token1)\n    {\n        require(tokenA != tokenB, \"SushiswapV2Library: IDENTICAL_ADDRESSES\");\n        (token0, token1) = tokenA < tokenB\n            ? (tokenA, tokenB)\n            : (tokenB, tokenA);\n        require(token0 != address(0), \"SushiswapV2Library: ZERO_ADDRESS\");\n    }\n\n    // calculates the CREATE2 address for a pair without making any external calls\n    function pairFor(\n        address factory,\n        address tokenA,\n        address tokenB\n    ) internal pure returns (address pair) {\n        (address token0, address token1) = sortTokens(tokenA, tokenB);\n        pair = address(\n            uint160(\n                uint256(\n                    keccak256(\n                        abi.encodePacked(\n                            hex\"ff\",\n                            factory,\n                            keccak256(abi.encodePacked(token0, token1)),\n                            hex\"e18a34eb0e04b04f7a0ac29a6e80748dca96319b42c54d679cb821dca90c6303\" // init code hash\n                        )\n                    )\n                )\n            )\n        );\n    }\n\n    // fetches and sorts the reserves for a pair\n    function getReserves(\n        address factory,\n        address tokenA,\n        address tokenB\n    ) internal view returns (uint256 reserveA, uint256 reserveB) {\n        (address token0, ) = sortTokens(tokenA, tokenB);\n        (uint256 reserve0, uint256 reserve1, ) = ISushiswapV2Pair(\n            pairFor(factory, tokenA, tokenB)\n        ).getReserves();\n        (reserveA, reserveB) = tokenA == token0\n            ? (reserve0, reserve1)\n            : (reserve1, reserve0);\n    }\n\n    // given some amount of an asset and pair reserves, returns an equivalent amount of the other asset\n    function quote(\n        uint256 amountA,\n        uint256 reserveA,\n        uint256 reserveB\n    ) internal pure returns (uint256 amountB) {\n        require(amountA > 0, \"SushiswapV2Library: INSUFFICIENT_AMOUNT\");\n        require(\n            reserveA > 0 && reserveB > 0,\n            \"SushiswapV2Library: INSUFFICIENT_LIQUIDITY\"\n        );\n        amountB = amountA.mul(reserveB) / reserveA;\n    }\n\n    // given an input amount of an asset and pair reserves, returns the maximum output amount of the other asset\n    function getAmountOut(\n        uint256 amountIn,\n        uint256 reserveIn,\n        uint256 reserveOut\n    ) internal pure returns (uint256 amountOut) {\n        require(amountIn > 0, \"SushiswapV2Library: INSUFFICIENT_INPUT_AMOUNT\");\n        require(\n            reserveIn > 0 && reserveOut > 0,\n            \"SushiswapV2Library: INSUFFICIENT_LIQUIDITY\"\n        );\n        uint256 amountInWithFee = amountIn.mul(997);\n        uint256 numerator = amountInWithFee.mul(reserveOut);\n        uint256 denominator = reserveIn.mul(1000).add(amountInWithFee);\n        amountOut = numerator / denominator;\n    }\n\n    // given an output amount of an asset and pair reserves, returns a required input amount of the other asset\n    function getAmountIn(\n        uint256 amountOut,\n        uint256 reserveIn,\n        uint256 reserveOut\n    ) internal pure returns (uint256 amountIn) {\n        require(\n            amountOut > 0,\n            \"SushiswapV2Library: INSUFFICIENT_OUTPUT_AMOUNT\"\n        );\n        require(\n            reserveIn > 0 && reserveOut > 0,\n            \"SushiswapV2Library: INSUFFICIENT_LIQUIDITY\"\n        );\n        uint256 numerator = reserveIn.mul(amountOut).mul(1000);\n        uint256 denominator = reserveOut.sub(amountOut).mul(997);\n        amountIn = (numerator / denominator).add(1);\n    }\n\n    // performs chained getAmountOut calculations on any number of pairs\n    function getAmountsOut(\n        address factory,\n        uint256 amountIn,\n        address[] memory path\n    ) internal view returns (uint256[] memory amounts) {\n        require(path.length >= 2, \"SushiswapV2Library: INVALID_PATH\");\n        amounts = new uint256[](path.length);\n        amounts[0] = amountIn;\n        for (uint256 i; i < path.length - 1; i++) {\n            (uint256 reserveIn, uint256 reserveOut) = getReserves(\n                factory,\n                path[i],\n                path[i + 1]\n            );\n            amounts[i + 1] = getAmountOut(amounts[i], reserveIn, reserveOut);\n        }\n    }\n\n    // performs chained getAmountIn calculations on any number of pairs\n    function getAmountsIn(\n        address factory,\n        uint256 amountOut,\n        address[] memory path\n    ) internal view returns (uint256[] memory amounts) {\n        require(path.length >= 2, \"SushiswapV2Library: INVALID_PATH\");\n        amounts = new uint256[](path.length);\n        amounts[amounts.length - 1] = amountOut;\n        for (uint256 i = path.length - 1; i > 0; i--) {\n            (uint256 reserveIn, uint256 reserveOut) = getReserves(\n                factory,\n                path[i - 1],\n                path[i]\n            );\n            amounts[i - 1] = getAmountIn(amounts[i], reserveIn, reserveOut);\n        }\n    }\n}\n\ncontract SushiswapV2Proxy {\n    address private thefactory;\n    address public admin;\n\n    modifier onlyAdmin() {\n        require(msg.sender == admin, \"SushiswapV2Proxy: FORBIDDEN\");\n        _;\n    }\n\n    constructor(address _factory) {\n        admin = msg.sender;\n        if (_factory != address(0)) {\n            setFactory(_factory);\n        }\n    }\n\n    function factory() public view returns (address) {\n        return thefactory;\n    }\n\n    function setAdmin(address _admin) public onlyAdmin {\n        require(_admin != address(0));\n        admin = _admin;\n    }\n\n    function setFactory(address _factory) public onlyAdmin returns (bool) {\n        require(thefactory == address(0), \"SushiswapV2Proxy: FORBIDDEN\");\n        require(_factory != address(0), \"SushiswapV2Proxy: address(0x0)\");\n        thefactory = _factory;\n        emit LogSetFactory(factory());\n        return true;\n    }\n\n    event LogSetFactory(address indexed factory);\n\n    function sortTokens(address tokenA, address tokenB)\n        internal\n        pure\n        returns (address token0, address token1)\n    {\n        return SushiswapV2Library.sortTokens(tokenA, tokenB);\n    }\n\n    function pairFor(address tokenA, address tokenB)\n        internal\n        view\n        returns (address pair)\n    {\n        return SushiswapV2Library.pairFor(factory(), tokenA, tokenB);\n    }\n\n    function getReserves(address tokenA, address tokenB)\n        internal\n        view\n        returns (uint256 reserveA, uint256 reserveB)\n    {\n        return SushiswapV2Library.getReserves(factory(), tokenA, tokenB);\n    }\n\n    function quote(\n        uint256 amountA,\n        uint256 reserveA,\n        uint256 reserveB\n    ) public pure virtual returns (uint256 amountB) {\n        return SushiswapV2Library.quote(amountA, reserveA, reserveB);\n    }\n\n    function getAmountOut(\n        uint256 amountIn,\n        uint256 reserveIn,\n        uint256 reserveOut\n    ) public pure virtual returns (uint256 amountOut) {\n        return SushiswapV2Library.getAmountOut(amountIn, reserveIn, reserveOut);\n    }\n\n    function getAmountIn(\n        uint256 amountOut,\n        uint256 reserveIn,\n        uint256 reserveOut\n    ) public pure virtual returns (uint256 amountIn) {\n        return SushiswapV2Library.getAmountIn(amountOut, reserveIn, reserveOut);\n    }\n\n    function getAmountsOut(uint256 amountIn, address[] memory path)\n        public\n        view\n        virtual\n        returns (uint256[] memory amounts)\n    {\n        return SushiswapV2Library.getAmountsOut(factory(), amountIn, path);\n    }\n\n    function getAmountsIn(uint256 amountOut, address[] memory path)\n        public\n        view\n        virtual\n        returns (uint256[] memory amounts)\n    {\n        return SushiswapV2Library.getAmountsIn(factory(), amountOut, path);\n    }\n}\n",
  "sourcePath": "/home/justin/anyswap/L2Router/contracts/boba/contracts/BOBA_SushiSwapProxy.sol",
  "compiler": {
    "name": "solc",
    "version": "0.7.6"
  },
  "schemaVersion": "3.2.4",
  "updatedAt": "2021-09-15T08:42:58.354Z",
  "devdoc": {
    "kind": "dev",
    "methods": {},
    "version": 1
  },
  "userdoc": {
    "kind": "user",
    "methods": {},
    "version": 1
  }
}