{
  "contractName": "AnyswapV5ERC20",
  "abi": [
    {
      "inputs": [
        {
          "internalType": "string",
          "name": "_name",
          "type": "string"
        },
        {
          "internalType": "string",
          "name": "_symbol",
          "type": "string"
        },
        {
          "internalType": "uint8",
          "name": "_decimals",
          "type": "uint8"
        },
        {
          "internalType": "address",
          "name": "_underlying",
          "type": "address"
        },
        {
          "internalType": "bool",
          "name": "underAdmin",
          "type": "bool"
        }
      ],
      "stateMutability": "nonpayable",
      "type": "constructor"
    },
    {
      "anonymous": false,
      "inputs": [
        {
          "indexed": true,
          "internalType": "address",
          "name": "owner",
          "type": "address"
        },
        {
          "indexed": true,
          "internalType": "address",
          "name": "spender",
          "type": "address"
        },
        {
          "indexed": false,
          "internalType": "uint256",
          "name": "value",
          "type": "uint256"
        }
      ],
      "name": "Approval",
      "type": "event"
    },
    {
      "anonymous": false,
      "inputs": [
        {
          "indexed": true,
          "internalType": "address",
          "name": "auth",
          "type": "address"
        },
        {
          "indexed": false,
          "internalType": "uint256",
          "name": "timestamp",
          "type": "uint256"
        }
      ],
      "name": "LogAddAuth",
      "type": "event"
    },
    {
      "anonymous": false,
      "inputs": [
        {
          "indexed": true,
          "internalType": "address",
          "name": "admin",
          "type": "address"
        }
      ],
      "name": "LogAllowAdmin",
      "type": "event"
    },
    {
      "anonymous": false,
      "inputs": [
        {
          "indexed": true,
          "internalType": "address",
          "name": "oldVault",
          "type": "address"
        },
        {
          "indexed": true,
          "internalType": "address",
          "name": "newVault",
          "type": "address"
        },
        {
          "indexed": true,
          "internalType": "uint256",
          "name": "effectiveTime",
          "type": "uint256"
        }
      ],
      "name": "LogChangeVault",
      "type": "event"
    },
    {
      "anonymous": false,
      "inputs": [],
      "name": "LogForbitAdmin",
      "type": "event"
    },
    {
      "anonymous": false,
      "inputs": [
        {
          "indexed": true,
          "internalType": "address",
          "name": "auth",
          "type": "address"
        },
        {
          "indexed": false,
          "internalType": "uint256",
          "name": "timestamp",
          "type": "uint256"
        }
      ],
      "name": "LogRevokeAuth",
      "type": "event"
    },
    {
      "anonymous": false,
      "inputs": [
        {
          "indexed": true,
          "internalType": "bytes32",
          "name": "txhash",
          "type": "bytes32"
        },
        {
          "indexed": true,
          "internalType": "address",
          "name": "account",
          "type": "address"
        },
        {
          "indexed": false,
          "internalType": "uint256",
          "name": "amount",
          "type": "uint256"
        }
      ],
      "name": "LogSwapin",
      "type": "event"
    },
    {
      "anonymous": false,
      "inputs": [
        {
          "indexed": true,
          "internalType": "address",
          "name": "account",
          "type": "address"
        },
        {
          "indexed": true,
          "internalType": "address",
          "name": "bindaddr",
          "type": "address"
        },
        {
          "indexed": false,
          "internalType": "uint256",
          "name": "amount",
          "type": "uint256"
        }
      ],
      "name": "LogSwapout",
      "type": "event"
    },
    {
      "anonymous": false,
      "inputs": [
        {
          "indexed": true,
          "internalType": "address",
          "name": "from",
          "type": "address"
        },
        {
          "indexed": true,
          "internalType": "address",
          "name": "to",
          "type": "address"
        },
        {
          "indexed": false,
          "internalType": "uint256",
          "name": "value",
          "type": "uint256"
        }
      ],
      "name": "Transfer",
      "type": "event"
    },
    {
      "inputs": [],
      "name": "admin",
      "outputs": [
        {
          "internalType": "address",
          "name": "",
          "type": "address"
        }
      ],
      "stateMutability": "view",
      "type": "function",
      "constant": true
    },
    {
      "inputs": [
        {
          "internalType": "address",
          "name": "",
          "type": "address"
        },
        {
          "internalType": "address",
          "name": "",
          "type": "address"
        }
      ],
      "name": "allowance",
      "outputs": [
        {
          "internalType": "uint256",
          "name": "",
          "type": "uint256"
        }
      ],
      "stateMutability": "view",
      "type": "function",
      "constant": true
    },
    {
      "inputs": [
        {
          "internalType": "address",
          "name": "",
          "type": "address"
        }
      ],
      "name": "balanceOf",
      "outputs": [
        {
          "internalType": "uint256",
          "name": "",
          "type": "uint256"
        }
      ],
      "stateMutability": "view",
      "type": "function",
      "constant": true
    },
    {
      "inputs": [],
      "name": "decimals",
      "outputs": [
        {
          "internalType": "uint8",
          "name": "",
          "type": "uint8"
        }
      ],
      "stateMutability": "view",
      "type": "function",
      "constant": true
    },
    {
      "inputs": [],
      "name": "delay",
      "outputs": [
        {
          "internalType": "uint256",
          "name": "",
          "type": "uint256"
        }
      ],
      "stateMutability": "view",
      "type": "function",
      "constant": true
    },
    {
      "inputs": [],
      "name": "delayMinter",
      "outputs": [
        {
          "internalType": "uint256",
          "name": "",
          "type": "uint256"
        }
      ],
      "stateMutability": "view",
      "type": "function",
      "constant": true
    },
    {
      "inputs": [],
      "name": "delayVault",
      "outputs": [
        {
          "internalType": "uint256",
          "name": "",
          "type": "uint256"
        }
      ],
      "stateMutability": "view",
      "type": "function",
      "constant": true
    },
    {
      "inputs": [],
      "name": "forbidAdmin",
      "outputs": [],
      "stateMutability": "nonpayable",
      "type": "function"
    },
    {
      "inputs": [],
      "name": "initialized",
      "outputs": [
        {
          "internalType": "bool",
          "name": "",
          "type": "bool"
        }
      ],
      "stateMutability": "view",
      "type": "function",
      "constant": true
    },
    {
      "inputs": [
        {
          "internalType": "address",
          "name": "",
          "type": "address"
        }
      ],
      "name": "isMinter",
      "outputs": [
        {
          "internalType": "bool",
          "name": "",
          "type": "bool"
        }
      ],
      "stateMutability": "view",
      "type": "function",
      "constant": true
    },
    {
      "inputs": [
        {
          "internalType": "uint256",
          "name": "",
          "type": "uint256"
        }
      ],
      "name": "minters",
      "outputs": [
        {
          "internalType": "address",
          "name": "",
          "type": "address"
        }
      ],
      "stateMutability": "view",
      "type": "function",
      "constant": true
    },
    {
      "inputs": [],
      "name": "name",
      "outputs": [
        {
          "internalType": "string",
          "name": "",
          "type": "string"
        }
      ],
      "stateMutability": "view",
      "type": "function",
      "constant": true
    },
    {
      "inputs": [],
      "name": "pendingMinter",
      "outputs": [
        {
          "internalType": "address",
          "name": "",
          "type": "address"
        }
      ],
      "stateMutability": "view",
      "type": "function",
      "constant": true
    },
    {
      "inputs": [],
      "name": "pendingVault",
      "outputs": [
        {
          "internalType": "address",
          "name": "",
          "type": "address"
        }
      ],
      "stateMutability": "view",
      "type": "function",
      "constant": true
    },
    {
      "inputs": [],
      "name": "symbol",
      "outputs": [
        {
          "internalType": "string",
          "name": "",
          "type": "string"
        }
      ],
      "stateMutability": "view",
      "type": "function",
      "constant": true
    },
    {
      "inputs": [],
      "name": "underAdmin",
      "outputs": [
        {
          "internalType": "bool",
          "name": "",
          "type": "bool"
        }
      ],
      "stateMutability": "view",
      "type": "function",
      "constant": true
    },
    {
      "inputs": [],
      "name": "underlying",
      "outputs": [
        {
          "internalType": "address",
          "name": "",
          "type": "address"
        }
      ],
      "stateMutability": "view",
      "type": "function",
      "constant": true
    },
    {
      "inputs": [],
      "name": "vault",
      "outputs": [
        {
          "internalType": "address",
          "name": "",
          "type": "address"
        }
      ],
      "stateMutability": "view",
      "type": "function",
      "constant": true
    },
    {
      "inputs": [],
      "name": "vaultOnly",
      "outputs": [
        {
          "internalType": "bool",
          "name": "",
          "type": "bool"
        }
      ],
      "stateMutability": "view",
      "type": "function",
      "constant": true
    },
    {
      "inputs": [],
      "name": "owner",
      "outputs": [
        {
          "internalType": "address",
          "name": "",
          "type": "address"
        }
      ],
      "stateMutability": "view",
      "type": "function",
      "constant": true
    },
    {
      "inputs": [],
      "name": "mpc",
      "outputs": [
        {
          "internalType": "address",
          "name": "",
          "type": "address"
        }
      ],
      "stateMutability": "view",
      "type": "function",
      "constant": true
    },
    {
      "inputs": [
        {
          "internalType": "bool",
          "name": "enabled",
          "type": "bool"
        }
      ],
      "name": "setVaultOnly",
      "outputs": [],
      "stateMutability": "nonpayable",
      "type": "function"
    },
    {
      "inputs": [
        {
          "internalType": "address",
          "name": "_vault",
          "type": "address"
        }
      ],
      "name": "setVault",
      "outputs": [],
      "stateMutability": "nonpayable",
      "type": "function"
    },
    {
      "inputs": [
        {
          "internalType": "address",
          "name": "_vault",
          "type": "address"
        }
      ],
      "name": "setVaultInstantly",
      "outputs": [],
      "stateMutability": "nonpayable",
      "type": "function"
    },
    {
      "inputs": [],
      "name": "applyVault",
      "outputs": [],
      "stateMutability": "nonpayable",
      "type": "function"
    },
    {
      "inputs": [
        {
          "internalType": "address",
          "name": "_auth",
          "type": "address"
        }
      ],
      "name": "setMinter",
      "outputs": [],
      "stateMutability": "nonpayable",
      "type": "function"
    },
    {
      "inputs": [],
      "name": "applyMinter",
      "outputs": [],
      "stateMutability": "nonpayable",
      "type": "function"
    },
    {
      "inputs": [
        {
          "internalType": "address",
          "name": "_auth",
          "type": "address"
        }
      ],
      "name": "revokeMinter",
      "outputs": [],
      "stateMutability": "nonpayable",
      "type": "function"
    },
    {
      "inputs": [],
      "name": "getAllMintersLength",
      "outputs": [
        {
          "internalType": "uint256",
          "name": "",
          "type": "uint256"
        }
      ],
      "stateMutability": "view",
      "type": "function",
      "constant": true
    },
    {
      "inputs": [],
      "name": "getAllMinters",
      "outputs": [
        {
          "internalType": "address[]",
          "name": "",
          "type": "address[]"
        }
      ],
      "stateMutability": "view",
      "type": "function",
      "constant": true
    },
    {
      "inputs": [
        {
          "internalType": "address",
          "name": "to",
          "type": "address"
        },
        {
          "internalType": "uint256",
          "name": "amount",
          "type": "uint256"
        }
      ],
      "name": "mint",
      "outputs": [
        {
          "internalType": "bool",
          "name": "",
          "type": "bool"
        }
      ],
      "stateMutability": "nonpayable",
      "type": "function"
    },
    {
      "inputs": [
        {
          "internalType": "address",
          "name": "from",
          "type": "address"
        },
        {
          "internalType": "uint256",
          "name": "amount",
          "type": "uint256"
        }
      ],
      "name": "burn",
      "outputs": [
        {
          "internalType": "bool",
          "name": "",
          "type": "bool"
        }
      ],
      "stateMutability": "nonpayable",
      "type": "function"
    },
    {
      "inputs": [
        {
          "internalType": "bytes32",
          "name": "txhash",
          "type": "bytes32"
        },
        {
          "internalType": "address",
          "name": "account",
          "type": "address"
        },
        {
          "internalType": "uint256",
          "name": "amount",
          "type": "uint256"
        }
      ],
      "name": "Swapin",
      "outputs": [
        {
          "internalType": "bool",
          "name": "",
          "type": "bool"
        }
      ],
      "stateMutability": "nonpayable",
      "type": "function"
    },
    {
      "inputs": [
        {
          "internalType": "uint256",
          "name": "amount",
          "type": "uint256"
        },
        {
          "internalType": "address",
          "name": "bindaddr",
          "type": "address"
        }
      ],
      "name": "Swapout",
      "outputs": [
        {
          "internalType": "bool",
          "name": "",
          "type": "bool"
        }
      ],
      "stateMutability": "nonpayable",
      "type": "function"
    },
    {
      "inputs": [
        {
          "internalType": "address",
          "name": "_vault",
          "type": "address"
        },
        {
          "internalType": "bool",
          "name": "_isV1",
          "type": "bool"
        }
      ],
      "name": "initVault",
      "outputs": [],
      "stateMutability": "nonpayable",
      "type": "function"
    },
    {
      "inputs": [],
      "name": "totalSupply",
      "outputs": [
        {
          "internalType": "uint256",
          "name": "",
          "type": "uint256"
        }
      ],
      "stateMutability": "view",
      "type": "function",
      "constant": true
    },
    {
      "inputs": [
        {
          "internalType": "uint256",
          "name": "amount",
          "type": "uint256"
        },
        {
          "internalType": "address",
          "name": "to",
          "type": "address"
        }
      ],
      "name": "deposit",
      "outputs": [
        {
          "internalType": "uint256",
          "name": "",
          "type": "uint256"
        }
      ],
      "stateMutability": "nonpayable",
      "type": "function"
    },
    {
      "inputs": [
        {
          "internalType": "uint256",
          "name": "amount",
          "type": "uint256"
        }
      ],
      "name": "deposit",
      "outputs": [
        {
          "internalType": "uint256",
          "name": "",
          "type": "uint256"
        }
      ],
      "stateMutability": "nonpayable",
      "type": "function"
    },
    {
      "inputs": [
        {
          "internalType": "uint256",
          "name": "amount",
          "type": "uint256"
        },
        {
          "internalType": "address",
          "name": "to",
          "type": "address"
        }
      ],
      "name": "depositVault",
      "outputs": [
        {
          "internalType": "uint256",
          "name": "",
          "type": "uint256"
        }
      ],
      "stateMutability": "nonpayable",
      "type": "function"
    },
    {
      "inputs": [
        {
          "internalType": "uint256",
          "name": "amount",
          "type": "uint256"
        },
        {
          "internalType": "address",
          "name": "to",
          "type": "address"
        }
      ],
      "name": "withdraw",
      "outputs": [
        {
          "internalType": "uint256",
          "name": "",
          "type": "uint256"
        }
      ],
      "stateMutability": "nonpayable",
      "type": "function"
    },
    {
      "inputs": [
        {
          "internalType": "uint256",
          "name": "amount",
          "type": "uint256"
        }
      ],
      "name": "withdraw",
      "outputs": [
        {
          "internalType": "uint256",
          "name": "",
          "type": "uint256"
        }
      ],
      "stateMutability": "nonpayable",
      "type": "function"
    },
    {
      "inputs": [
        {
          "internalType": "address",
          "name": "from",
          "type": "address"
        },
        {
          "internalType": "uint256",
          "name": "amount",
          "type": "uint256"
        },
        {
          "internalType": "address",
          "name": "to",
          "type": "address"
        }
      ],
      "name": "withdrawVault",
      "outputs": [
        {
          "internalType": "uint256",
          "name": "",
          "type": "uint256"
        }
      ],
      "stateMutability": "nonpayable",
      "type": "function"
    },
    {
      "inputs": [
        {
          "internalType": "address",
          "name": "spender",
          "type": "address"
        },
        {
          "internalType": "uint256",
          "name": "value",
          "type": "uint256"
        }
      ],
      "name": "approve",
      "outputs": [
        {
          "internalType": "bool",
          "name": "",
          "type": "bool"
        }
      ],
      "stateMutability": "nonpayable",
      "type": "function"
    },
    {
      "inputs": [
        {
          "internalType": "address",
          "name": "to",
          "type": "address"
        },
        {
          "internalType": "uint256",
          "name": "value",
          "type": "uint256"
        }
      ],
      "name": "transfer",
      "outputs": [
        {
          "internalType": "bool",
          "name": "",
          "type": "bool"
        }
      ],
      "stateMutability": "nonpayable",
      "type": "function"
    },
    {
      "inputs": [
        {
          "internalType": "address",
          "name": "from",
          "type": "address"
        },
        {
          "internalType": "address",
          "name": "to",
          "type": "address"
        },
        {
          "internalType": "uint256",
          "name": "value",
          "type": "uint256"
        }
      ],
      "name": "transferFrom",
      "outputs": [
        {
          "internalType": "bool",
          "name": "",
          "type": "bool"
        }
      ],
      "stateMutability": "nonpayable",
      "type": "function"
    }
  ],
  "bytecode": "0x60806040526000806001816200001462000513565b8160ff021916908315150217906200002b62000575565b505050348015620000465760008062000043620005c4565b50505b506040516200371838038062003718833981810160405260a0811015620000775760008062000074620005c4565b50505b8101908080516040519392919084640100000000821115620000a357600080620000a0620005c4565b50505b908301906020820185811115620000c457600080620000c1620005c4565b50505b8251640100000000811182820188101715620000ea57600080620000e7620005c4565b50505b825250602001908051906020019080838360005b8381101562000118578082015183820152602001620000fe565b50505050905090810190601f168015620001465780820380516001836020036101000a031916815260200191505b5060405260200180516040519392919084640100000000821115620001755760008062000172620005c4565b50505b908301906020820185811115620001965760008062000193620005c4565b50505b8251640100000000811182820188101715620001bc57600080620001b9620005c4565b50505b825250602001908051906020019080838360005b83811015620001ea578082015183820152602001620001d0565b50505050905090810190601f168015620002185780820380516001836020036101000a031916815260200191505b50604052602001805192919060200180519291906020018051925060009150600790506200024562000513565b906101000a900460ff1615620002985760405162461bcd60e51b8152600401808060200182810382526023815260200180620036f5602391396040019150506040518091039062000295620005c4565b50505b6001858051620002ad92916020019062000631565b506002848051620002c392916020019062000631565b50826003600181620002d462000513565b8160ff021916908360ff16021790620002ec62000575565b50505081600360016101000a816200030362000513565b816001600160a01b0302191690836001600160a01b03160217906200032762000575565b5050506001600160a01b038216156200040057816001600160a01b031663313ce5676040518163ffffffff1660e01b8152600401602060405180830381868062000370620006f3565b158015620003885760008062000385620005c4565b50505b505a6200039462000740565b5050505050158015620003b6573d6000803e3d6000620003b3620005c4565b50505b505050506040513d6020811015620003d857600080620003d5620005c4565b50505b81019080805160ff87811691161492506200040091505057600080620003fd620005c4565b50505b600181151514156200042157620004215a6200041b62000838565b62000456565b6001600781816200043162000513565b8160ff021916908315150217906200044862000575565b5050505050505050620008a2565b806000610100816200046762000513565b816001600160a01b0302191690836001600160a01b03160217906200048b62000575565b50505060016000806101000a81620004a262000513565b8160ff02191690831515021790620004b962000575565b5050506000600190620004cb62000513565b906101000a90046001600160a01b03166001600160a01b03167f4ca1e636510fb5eb7a50a996b94ce31b551c71ea18b7ce9602848b9b7ef44c8460405160405180910390a250565b6303daa959598160e01b8152836004820152602081602483336000905af158600e01573d6000803e3d6000fd5b3d6001141558600a015760016000f35b8051935060005b6040811015620005705760008282015260200162000557565b505050565b6322bd64c0598160e01b8152836004820152846024820152600081604483336000905af158600e01573d6000803e3d6000fd5b3d6001141558600a015760016000f35b60008152602062000557565b632a2a7adb598160e01b8152600481016020815285602082015260005b86811015620005fe578086015182820160400152602001620005e1565b506020828760640184336000905af158600e01573d6000803e3d6000fd5b3d6001141558600a015760016000f35b505050565b82806200063d62000513565b600181600116156101000203166002900490600052602060002090601f0160209004810192826200067d576000856200067562000575565b5050620006e1565b82601f106200069b57805160ff191683800117856200067562000575565b82800160010185620006ac62000575565b50508215620006e1579182015b82811115620006e157825182620006cf62000575565b505091602001919060010190620006b9565b50620006ef9291506200087f565b5090565b638435035b598160e01b8152836004820152602081602483336000905af158600e01573d6000803e3d6000fd5b3d6001141558600a015760016000f35b8051600082529350602062000557565b638540661f598160e01b815262000776565b80808311156200075f5750815b92915050565b80808310156200075f575090919050565b836004820152846024820152606060448201528660648201526084810160005b88811015620007b057808801518282015260200162000796565b506060828960a40184336000905af158600e01573d6000803e3d6000fd5b3d6001141558600a015760016000f35b815160408301513d6000853e8b8b82606087013350600060045af15059620008078d3d62000765565b8c0162000815818762000752565b5b828110156200082c576000815260200162000816565b50929c50505050505050565b6373509064598160e01b8152602081600483336000905af158600e01573d6000803e3d6000fd5b3d6001141558600a015760016000f35b8051600082529350602062000557565b80821115620006ef57600080826200089662000575565b5050506001016200087f565b612e4380620008b26000396000f3fe608060405234801561001957600080610016612a7d565b50505b50600436106102865760003560e01c806387689e2811610165578063c3081240116100d7578063ec126c7711610090578063ec126c7714610832578063f75c266414610625578063f851a4401461086d578063fbfa77cf14610875578063fca3b5aa1461087d578063fea4f758146108ac57610286565b8063c30812401461078c578063c4b740f514610794578063cfbd4885146107bc578063d93f2445146107eb578063dcd35646146107f3578063dd62ed3e146107fb57610286565b80639dc29fac116101295780639dc29fac1461063d578063a045442c14610672578063a9059cbb146106cd578063aa271e1a14610702578063b6b55f2514610731578063bebbf4d01461075757610286565b806387689e28146105ee5780638d14710c146105f65780638da5cb5b1461062557806391c5df491461062d57806395d89b411461063557610286565b806340c10f19116101fe5780636a42b8f8116101c25780636a42b8f81461054c5780636ce65fe5146105545780636e553f651461055c5780636f307dc31461059157806370a08231146105995780638623ec7b146105c857610286565b806340c10f19146104875780635165c892146104bc57806352113ba7146104c4578063628d6cba146104e85780636817031b1461051d57610286565b80630d707df8116102505780630d707df8146103ea578063158ef93e146103f457806318160ddd146103fc57806323b872dd146104045780632e1a7d4d14610443578063313ce5671461046957610286565b806239d6ec14610294578062f714ce146102e557806306e0c52c1461031a57806306fdde0314610336578063095ea7b3146103b5575b600080610291612a7d565b50505b6102d3600480360360608110156102b3576000806102b0612a7d565b50505b506001600160a01b038135811691602081013591604090910135166108e3565b60405190815260200160405180910390f35b6102d36004803603604081101561030457600080610301612a7d565b50505b50803590602001356001600160a01b0316610986565b6103226109a4565b604051901515815260200160405180910390f35b61033e6109bd565b60405160208082528190810183818151815260200191508051906020019080838360005b8381101561037a578082015183820152602001610362565b50505050905090810190601f1680156103a75780820380516001836020036101000a031916815260200191505b509250505060405180910390f35b610322600480360360408110156103d4576000806103d1612a7d565b50505b506001600160a01b038135169060200135610a76565b6103f2610b24565b005b610322610d0c565b6102d3610d18565b6103226004803603606081101561042357600080610420612a7d565b50505b506001600160a01b03813581169160208101359091169060400135610d29565b6102d3600480360360208110156104625760008061045f612a7d565b50505b5035611030565b61047161104d565b60405160ff909116815260200160405180910390f35b610322600480360360408110156104a6576000806104a3612a7d565b50505b506001600160a01b038135169060200135611059565b6102d3611169565b6104cc61117c565b6040516001600160a01b03909116815260200160405180910390f35b6103226004803603604081101561050757600080610504612a7d565b50505b50803590602001356001600160a01b031661119b565b6103f26004803603602081101561053c57600080610539612a7d565b50505b50356001600160a01b03166112d6565b6102d36113b6565b6103226113bd565b6102d36004803603604081101561057b57600080610578612a7d565b50505b50803590602001356001600160a01b03166113c8565b6104cc611461565b6102d3600480360360208110156105b8576000806105b5612a7d565b50505b50356001600160a01b031661146d565b6104cc600480360360208110156105e7576000806105e4612a7d565b50505b5035611488565b6102d36114be565b6103f26004803603602081101561061557600080610612612a7d565b50505b50356001600160a01b03166114c8565b6104cc61162b565b6104cc61164d565b61033e611659565b6103226004803603604081101561065c57600080610659612a7d565b50505b506001600160a01b0381351690602001356116fb565b61067a611802565b60405160208082528190810183818151815260200191508051906020019060200280838360005b838110156106b95780820151838201526020016106a1565b505050509050019250505060405180910390f35b610322600480360360408110156106ec576000806106e9612a7d565b50505b506001600160a01b038135169060200135611889565b610322600480360360208110156107215760008061071e612a7d565b50505b50356001600160a01b0316611a5a565b6102d3600480360360208110156107505760008061074d612a7d565b50505b5035611a74565b6102d36004803603604081101561077657600080610773612a7d565b50505b50803590602001356001600160a01b0316611afb565b6102d3611b94565b6103f2600480360360208110156107b3576000806107b0612a7d565b50505b50351515611b9e565b6103f2600480360360208110156107db576000806107d8612a7d565b50505b50356001600160a01b0316611c50565b6103f2611d61565b6103f2611eaf565b6102d36004803603604081101561081a57600080610817612a7d565b50505b506001600160a01b0381358116916020013516611f1d565b610322600480360360608110156108515760008061084e612a7d565b50505b508035906001600160a01b036020820135169060400135611f43565b6104cc61209b565b6104cc6120a7565b6103f26004803603602081101561089c57600080610899612a7d565b50505b50356001600160a01b03166120b3565b6103f2600480360360408110156108cb576000806108c8612a7d565b50505b506001600160a01b038135169060200135151561218d565b60006108ed61228b565b8061092c57506000600a6108ff612ae8565b906101000a90046001600160a01b03166001600160a01b03165a610921612b43565b6001600160a01b0316145b6109735760405162461bcd60e51b81526020600482015260196024820152600080516020612d82833981519152604482015260640160405180910390610970612a7d565b50505b61097e8484846122ec565b949350505050565b600061099b5a610994612b43565b84846122ec565b90505b92915050565b600160076109b0612ae8565b906101000a900460ff1681565b6001806109c8612ae8565b600181600116156101000203166002900480601f016020809104026020016040519081016040528181529190602083018280610a02612ae8565b60018160011615610100020316600290048015610a6e5780601f10610a3c576101008083610a2e612ae8565b040283529160200191610a6e565b820191906000526020600020905b81610a53612ae8565b81529060010190602001808311610a4a57829003601f168201915b505050505081565b600081600660005a610a86612b43565b6001600160a01b03166001600160a01b031681526020019081526020016000206001600160a01b0385166000908152602091909152604090208190610ac9612b89565b505050826001600160a01b03165a610adf612b43565b6001600160a01b03167f8c5be1e5ebec7d5bd14f71427d1e84f3dd0314c0f7b2291e5b200ac8c7c3b9258460405190815260200160405180910390a350600192915050565b6000600b610b30612ae8565b906101000a90046001600160a01b03166001600160a01b03165a610b52612b43565b6001600160a01b031614610b6e57600080610b6b612a7d565b50505b600c610b78612ae8565b5a610b81612bd7565b1015610b9557600080610b92612a7d565b50505b6000600b610ba1612ae8565b906101000a90046001600160a01b03166001600160a01b03167fff9be4a5a0b9027fd253167d4c170ef1bbf8403af21bf06a0ed87ac8c8ecb5c65a610be4612bd7565b60405190815260200160405180910390a260016008600080600b610c06612ae8565b906101000a90046001600160a01b03166001600160a01b03166001600160a01b03168152602001908152602001600020600181610c41612ae8565b8160ff02191690831515021790610c56612b89565b5050506009600b600090610c68612ae8565b906101000a90046001600160a01b03169080600181610c85612ae8565b018082610c90612b89565b505060009283526000190191602091502001600181610cad612ae8565b816001600160a01b0302191690836001600160a01b0316021790610ccf612b89565b5050506000600b60006101000a81610ce5612ae8565b816001600160a01b0302191690836001600160a01b0316021790610d07612b89565b505050565b600060076109b0612ae8565b60006005610d24612ae8565b905090565b60006001600160a01b038316151580610dac57505a63996d79a5598160e01b8152602081600483336000905af158600e01573d6000803e3d6000fd5b3d6001141558600a015760016000f35b8051925060005b6040811015610d9357600082820152602001610d7c565b5050506001600160a01b0316836001600160a01b031614155b610dbe57600080610dbb612a7d565b50505b5a610dc7612b43565b6001600160a01b0316846001600160a01b031614610f26576001600160a01b038416600090815260066020526040812060005a610e02612b43565b6001600160a01b03166001600160a01b03168152602001908152602001600020610e2a612ae8565b90506000198114610f245782811015610e7d5760405162461bcd60e51b8152600401808060200182810382526029815260200180612d596029913960400191505060405180910390610e7a612a7d565b50505b6001600160a01b038516600090815260066020528382039081906040902060005a610ea6612b43565b6001600160a01b03166001600160a01b031681526020019081526020016000208190610ed0612b89565b5050505a610edc612b43565b6001600160a01b0316866001600160a01b03167f8c5be1e5ebec7d5bd14f71427d1e84f3dd0314c0f7b2291e5b200ac8c7c3b9258360405190815260200160405180910390a3505b505b6001600160a01b0384166000908152600460205260408120610f46612ae8565b905082811015610f905760405162461bcd60e51b815260040180806020018281038252602f815260200180612e14602f913960400191505060405180910390610f8d612a7d565b50505b6001600160a01b0385166000908152600460205283820390604090208190610fb6612b89565b5050506001600160a01b0384166000908152600460205283906040902060008282610fdf612ae8565b019250508190610fed612b89565b505050836001600160a01b0316856001600160a01b0316600080516020612dca8339815191528560405190815260200160405180910390a3506001949350505050565b600061099e5a61103e612b43565b835a611048612b43565b6122ec565b600060036109b0612ae8565b600061106361228b565b806110ac5750600860005a611076612b43565b6001600160a01b03166001600160a01b031681526020019081526020016000206000906110a1612ae8565b906101000a900460ff165b6110f35760405162461bcd60e51b81526020600482015260196024820152600080516020612d828339815191526044820152606401604051809103906110f0612a7d565b50505b6001600160a01b0383166111565760405162461bcd60e51b815260206004820152601c60248201527f416e7973776170563545524332303a2061646472657373283078302900000000604482015260640160405180910390611153612a7d565b50505b61116083836123f5565b50600192915050565b6000600980611176612ae8565b91505090565b6000600d611188612ae8565b906101000a90046001600160a01b031681565b6000600160076111a9612ae8565b906101000a900460ff16156112095760405162461bcd60e51b8152602060048201526019602482015278416e7973776170563545524332303a207661756c744f6e6c7960381b604482015260640160405180910390611206612a7d565b50505b6001600160a01b03821661126c5760405162461bcd60e51b815260206004820152601c60248201527f416e7973776170563545524332303a2061646472657373283078302900000000604482015260640160405180910390611269612a7d565b50505b61127e5a611278612b43565b8461251c565b816001600160a01b03165a611291612b43565b6001600160a01b03167f6b616089d04950dc06c45c6dd787d657980543f89651aec47924752c7d16c8888560405190815260200160405180910390a350600192915050565b6112de61228b565b8061131d57506000600a6112f0612ae8565b906101000a90046001600160a01b03166001600160a01b03165a611312612b43565b6001600160a01b0316145b6113645760405162461bcd60e51b81526020600482015260196024820152600080516020612d82833981519152604482015260640160405180910390611361612a7d565b50505b80600d600181611372612ae8565b816001600160a01b0302191690836001600160a01b0316021790611394612b89565b5050506202a3005a6113a4612bd7565b0180600e6113b0612b89565b50505050565b6202a30081565b6000806109b0612ae8565b60006114575a6113d6612b43565b5a63996d79a5598160e01b8152602081600483336000905af158600e01573d6000803e3d6000fd5b3d6001141558600a015760016000f35b8051925060005b604081101561142c57600082820152602001611415565b50505085600360019061143d612ae8565b6001600160a01b036101009290920a900416929190612650565b61099b83836127ff565b60016003611188612ae8565b60046020528060005260406000209050611485612ae8565b81565b60098181611494612ae8565b81106114a8576000806114a5612a7d565b50505b9060005260206000200160009150611188612ae8565b600e611485612ae8565b6114d061228b565b6114e2576000806114df612a7d565b50505b80600d6001816114f0612ae8565b816001600160a01b0302191690836001600160a01b0316021790611512612b89565b5050505a61151e612bd7565b80600e611529612b89565b5050505a611535612bd7565b6000600d611541612ae8565b6001600160a01b036101009290920a9004166000600a61155f612ae8565b906101000a90046001600160a01b03166001600160a01b03167f5c364079e7102c27c608f9b237c735a1b7bfa0b67f27c2ad26bad447bf965cac60405160405180910390a46000600d6115b0612ae8565b906101000a90046001600160a01b0316600a60006101000a816115d1612ae8565b816001600160a01b0302191690836001600160a01b03160217906115f3612b89565b5050506000600d60006101000a81611609612ae8565b816001600160a01b0302191690836001600160a01b03160217906113b0612b89565b600080600a611638612ae8565b906101000a90046001600160a01b0316905090565b6000600b611188612ae8565b600280611664612ae8565b600181600116156101000203166002900480601f01602080910402602001604051908101604052818152919060208301828061169e612ae8565b60018160011615610100020316600290048015610a6e5780601f106116ca576101008083610a2e612ae8565b820191906000526020600020905b816116e1612ae8565b815290600101906020018083116116d85750859350505050565b600061170561228b565b8061174e5750600860005a611718612b43565b6001600160a01b03166001600160a01b03168152602001908152602001600020600090611743612ae8565b906101000a900460ff165b6117955760405162461bcd60e51b81526020600482015260196024820152600080516020612d82833981519152604482015260640160405180910390611792612a7d565b50505b6001600160a01b0383166117f85760405162461bcd60e51b815260206004820152601c60248201527f416e7973776170563545524332303a20616464726573732830783029000000006044820152606401604051809103906117f5612a7d565b50505b611160838361251c565b606060098061180f612ae8565b806020026020016040519081016040528181529190602083018280611832612ae8565b801561187f57602002820191906000526020600020905b600082611854612ae8565b906101000a90046001600160a01b03166001600160a01b031681526020019060010190808311611849575b5050505050905090565b60006001600160a01b03831615158061190c57505a63996d79a5598160e01b8152602081600483336000905af158600e01573d6000803e3d6000fd5b3d6001141558600a015760016000f35b8051925060005b60408110156118f3576000828201526020016118dc565b5050506001600160a01b0316836001600160a01b031614155b61191e5760008061191b612a7d565b50505b6000600460005a61192d612b43565b6001600160a01b03166001600160a01b03168152602001908152602001600020611955612ae8565b90508281101561199f5760405162461bcd60e51b815260040180806020018281038252602f815260200180612e14602f91396040019150506040518091039061199c612a7d565b50505b828103600460005a6119af612b43565b6001600160a01b03166001600160a01b0316815260200190815260200160002081906119d9612b89565b5050506001600160a01b0384166000908152600460205283906040902060008282611a02612ae8565b019250508190611a10612b89565b505050836001600160a01b03165a611a26612b43565b6001600160a01b0316600080516020612dca8339815191528560405190815260200160405180910390a35060019392505050565b6008602052806000526040600020600091506109b0612ae8565b6000611ae95a611a82612b43565b5a63996d79a5598160e01b8152602081600483336000905af158600e01573d6000803e3d6000fd5b3d6001141558600a015760016000f35b8051925060005b6040811015611ad857600082820152602001611ac1565b50505084600360019061143d612ae8565b61099e825a611af6612b43565b6127ff565b6000611b0561228b565b80611b4457506000600a611b17612ae8565b906101000a90046001600160a01b03166001600160a01b03165a611b39612b43565b6001600160a01b0316145b6114575760405162461bcd60e51b81526020600482015260196024820152600080516020612d82833981519152604482015260640160405180910390611b88612a7d565b505061099b83836127ff565b600c611485612ae8565b611ba661228b565b80611be557506000600a611bb8612ae8565b906101000a90046001600160a01b03166001600160a01b03165a611bda612b43565b6001600160a01b0316145b611c2c5760405162461bcd60e51b81526020600482015260196024820152600080516020612d82833981519152604482015260640160405180910390611c29612a7d565b50505b80600761010081611c3b612ae8565b8160ff021916908315150217906113b0612b89565b611c5861228b565b80611c9757506000600a611c6a612ae8565b906101000a90046001600160a01b03166001600160a01b03165a611c8c612b43565b6001600160a01b0316145b611cde5760405162461bcd60e51b81526020600482015260196024820152600080516020612d82833981519152604482015260640160405180910390611cdb612a7d565b50505b6001600160a01b0381166000908152600860205260408120600181611d01612ae8565b8160ff02191690831515021790611d16612b89565b505050806001600160a01b03167f2d18a9f09e02bcffa2cd59b9cd214083ac22b7ba635e56c3260b87737f04a1c75a611d4d612bd7565b60405190815260200160405180910390a250565b6000600d611d6d612ae8565b906101000a90046001600160a01b03166001600160a01b03165a611d8f612b43565b6001600160a01b031614611dab57600080611da8612a7d565b50505b600e611db5612ae8565b5a611dbe612bd7565b1015611dd257600080611dcf612a7d565b50505b5a611ddb612bd7565b6000600d611de7612ae8565b6001600160a01b036101009290920a9004166000600a611e05612ae8565b906101000a90046001600160a01b03166001600160a01b03167f5c364079e7102c27c608f9b237c735a1b7bfa0b67f27c2ad26bad447bf965cac60405160405180910390a46000600d611e56612ae8565b906101000a90046001600160a01b0316600a60006101000a81611e77612ae8565b816001600160a01b0302191690836001600160a01b0316021790611e99612b89565b5050506000600d60006101000a81610ce5612ae8565b611eb761228b565b611ec957600080611ec6612a7d565b50505b600080600181611ed7612ae8565b8160ff02191690831515021790611eec612b89565b5050507f84f44a11e6386cfcb5e3f85d5fbd3dce7f88fe8ac94c250cbec731c8c83cde7b60405160405180910390a1565b600660205281600052604060002060205280600052604060002091506114859050612ae8565b6000611f4d61228b565b80611f965750600860005a611f60612b43565b6001600160a01b03166001600160a01b03168152602001908152602001600020600090611f8b612ae8565b906101000a900460ff165b611fdd5760405162461bcd60e51b81526020600482015260196024820152600080516020612d82833981519152604482015260640160405180910390611fda612a7d565b50505b60016007611fe9612ae8565b906101000a900460ff16156120495760405162461bcd60e51b8152602060048201526019602482015278416e7973776170563545524332303a207661756c744f6e6c7960381b604482015260640160405180910390612046612a7d565b50505b61205383836123f5565b826001600160a01b0316847f05d0634fe981be85c22e2942a880821b70095d84e152c3ea3c17a4e4250d9d618460405190815260200160405180910390a35060019392505050565b60016000611188612ae8565b6000600a611188612ae8565b6120bb61228b565b806120fa57506000600a6120cd612ae8565b906101000a90046001600160a01b03166001600160a01b03165a6120ef612b43565b6001600160a01b0316145b6121415760405162461bcd60e51b81526020600482015260196024820152600080516020612d8283398151915260448201526064016040518091039061213e612a7d565b50505b80600b60018161214f612ae8565b816001600160a01b0302191690836001600160a01b0316021790612171612b89565b5050506202a3005a612181612bd7565b0180600c6113b0612b89565b801560076101008161219d612ae8565b8160ff021916908315150217906121b2612b89565b50505081600a60006101000a816121c7612ae8565b816001600160a01b0302191690836001600160a01b03160217906121e9612b89565b5050506001600160a01b0382166000908152600860205260019060409020600181612212612ae8565b8160ff02191690831515021790612227612b89565b505050600982908060018161223a612ae8565b018082612245612b89565b505060009283526000190191602091502001600181612262612ae8565b816001600160a01b0302191690836001600160a01b0316021790612284612b89565b5050505050565b60008080612297612ae8565b906101000a900460ff16151560011515148015610d245750600160006122bb612ae8565b906101000a90046001600160a01b03166001600160a01b03165a6122dd612b43565b6001600160a01b031614905090565b600080600160036122fb612ae8565b906101000a90046001600160a01b03166001600160a01b0316141580156123a757505a63996d79a5598160e01b8152602081600483336000905af158600e01573d6000803e3d6000fd5b3d6001141558600a015760016000f35b8051925060005b60408110156123735760008282015260200161235c565b5050506001600160a01b03166001600361238b612ae8565b906101000a90046001600160a01b03166001600160a01b031614155b6123b9576000806123b6612a7d565b50505b6123c3848461251c565b6123ed8284600160036123d4612ae8565b6001600160a01b036101009290920a90041691906128dd565b509092915050565b6001600160a01b0382166124435760405162461bcd60e51b8152600401808060200182810382526028815260200180612da26028913960400191505060405180910390612440612a7d565b50505b6000816005612450612ae8565b019050600561245d612ae8565b8110156124a45760405162461bcd60e51b8152600401808060200182810382526025815260200180612d3460259139604001915050604051809103906124a1612a7d565b50505b808060056124b0612b89565b5050506001600160a01b03831660009081526004602052829060409020600082826124d9612ae8565b0192505081906124e7612b89565b5050506001600160a01b0383166000600080516020612dca8339815191528460405190815260200160405180910390a3505050565b6001600160a01b03821661256a5760405162461bcd60e51b815260040180806020018281038252602a815260200180612dea602a913960400191505060405180910390612567612a7d565b50505b6001600160a01b038216600090815260046020526040812061258a612ae8565b9050818110156125d45760405162461bcd60e51b815260040180806020018281038252602b815260200180612d09602b9139604001915050604051809103906125d1612a7d565b50505b6001600160a01b03831660009081526004602052828203906040902081906125fa612b89565b5050508160056000828261260c612ae8565b03925050819061261a612b89565b5060009150506001600160a01b038416600080516020612dca8339815191528460405190815260200160405180910390a3505050565b6000806001600160a01b0386166323b872dd60e01b8686866040516001600160a01b0393841660248201529190921660448201526064810191909152608401604051602081830303815290604052906001600160e01b0319166020820180516001600160e01b031690911790526040518082805190602001908083835b602083106126ec5780518252601f1990920191602091820191016126cd565b6001836020036101000a0380198251168184511680821785525050505050509050019150506000604051808303816000865a612726612c1d565b5050505050509150503d806000811461275b576040513d603f01601f191681016040523d815291503d6000602084013e612760565b606091505b509150915081801561279e57508051158061279e5750602081018151602081101561279357600080612790612a7d565b50505b810190808051925050505b6127f75760405162461bcd60e51b815260206004820152601f60248201527f5361666545524332303a205452414e534645525f46524f4d5f4641494c4544006044820152606401604051809103906127f4612a7d565b50505b505050505050565b6000806001600361280e612ae8565b906101000a90046001600160a01b03166001600160a01b0316141580156128ba57505a63996d79a5598160e01b8152602081600483336000905af158600e01573d6000803e3d6000fd5b3d6001141558600a015760016000f35b8051925060005b60408110156128865760008282015260200161286f565b5050506001600160a01b03166001600361289e612ae8565b906101000a90046001600160a01b03166001600160a01b031614155b6128cc576000806128c9612a7d565b50505b6128d682846123f5565b5090919050565b6000806001600160a01b03851663a9059cbb60e01b85856040516001600160a01b0390921660248301526044820152606401604051602081830303815290604052906001600160e01b0319166020820180516001600160e01b031690911790526040518082805190602001908083835b6020831061296c5780518252601f19909201916020918201910161294d565b6001836020036101000a0380198251168184511680821785525050505050509050019150506000604051808303816000865a6129a6612c1d565b5050505050509150503d80600081146129db576040513d603f01601f191681016040523d815291503d6000602084013e6129e0565b606091505b5091509150818015612a1e575080511580612a1e57506020810181516020811015612a1357600080612a10612a7d565b50505b810190808051925050505b6122845760405162461bcd60e51b815260206004820152601a60248201527f5361666545524332303a205452414e534645525f4641494c4544000000000000604482015260640160405180910390612a74612a7d565b50505050505050565b632a2a7adb598160e01b8152600481016020815285602082015260005b86811015612ab5578086015182820160400152602001612a9a565b506020828760640184336000905af158600e01573d6000803e3d6000fd5b3d6001141558600a015760016000f35b505050565b6303daa959598160e01b8152836004820152602081602483336000905af158600e01573d6000803e3d6000fd5b3d6001141558600a015760016000f35b8051935060005b6040811015610d0757600082820152602001612b2c565b6373509064598160e01b8152602081600483336000905af158600e01573d6000803e3d6000fd5b3d6001141558600a015760016000f35b80516000825293506020612b2c565b6322bd64c0598160e01b8152836004820152846024820152600081604483336000905af158600e01573d6000803e3d6000fd5b3d6001141558600a015760016000f35b600081526020612b2c565b63bdbf8c36598160e01b8152602081600483336000905af158600e01573d6000803e3d6000fd5b3d6001141558600a015760016000f35b80516000825293506020612b2c565b6385979f76598160e01b8152612c4e565b808083111561099e575090919050565b808083101561099e575090919050565b836004820152846024820152606060448201528760648201526084810160005b89811015612c86578089015182820152602001612c6e565b506060828a60a40184336000905af158600e01573d6000803e3d6000fd5b3d6001141558600a015760016000f35b815160408301513d6000853e8c8c82606087013350600060045af15059612cdb8e3d612c3e565b8d01612ce78187612c2e565b5b82811015612cfc5760008152602001612ce8565b50929d5050505050505056fe416e7973776170563545524332303a206275726e20616d6f756e7420657863656564732062616c616e6365416e7973776170563545524332303a20746f74616c20737570706c79206f766572666c6f77416e7973776170563545524332303a2072657175657374206578636565647320616c6c6f77616e6365416e7973776170563545524332303a20464f5242494444454e00000000000000416e7973776170563545524332303a206d696e7420746f20746865207a65726f2061646472657373ddf252ad1be2c89b69c2b068fc378daa952ba7f163c4a11628f55a4df523b3ef416e7973776170563545524332303a206275726e2066726f6d20746865207a65726f2061646472657373416e7973776170563545524332303a207472616e7366657220616d6f756e7420657863656564732062616c616e6365416e7973776170563545524332303a20616c726561647920696e697469616c697a6564",
  "immutableReferences": {},
  "source": "// SPDX-License-Identifier: GPL-3.0-or-later\n\npragma solidity 0.7.6;\n\n/// @dev Interface of the ERC20 standard as defined in the EIP.\ninterface IERC20 {\n    function totalSupply() external view returns (uint256);\n\n    function decimals() external view returns (uint8);\n\n    function balanceOf(address account) external view returns (uint256);\n\n    function allowance(address owner, address spender)\n        external\n        view\n        returns (uint256);\n\n    function approve(address spender, uint256 amount) external returns (bool);\n\n    function transfer(address recipient, uint256 amount)\n        external\n        returns (bool);\n\n    function transferFrom(\n        address sender,\n        address recipient,\n        uint256 amount\n    ) external returns (bool);\n\n    event Transfer(address indexed from, address indexed to, uint256 value);\n    event Approval(\n        address indexed owner,\n        address indexed spender,\n        uint256 value\n    );\n}\n\n/// @dev library of SafeERC20\nlibrary SafeERC20 {\n    function safeTransfer(\n        IERC20 token,\n        address to,\n        uint256 value\n    ) internal {\n        (bool success, bytes memory data) = address(token).call(\n            abi.encodeWithSelector(token.transfer.selector, to, value)\n        );\n        require(\n            success && (data.length == 0 || abi.decode(data, (bool))),\n            \"SafeERC20: TRANSFER_FAILED\"\n        );\n    }\n\n    function safeTransferFrom(\n        IERC20 token,\n        address from,\n        address to,\n        uint256 value\n    ) internal {\n        (bool success, bytes memory data) = address(token).call(\n            abi.encodeWithSelector(token.transferFrom.selector, from, to, value)\n        );\n        require(\n            success && (data.length == 0 || abi.decode(data, (bool))),\n            \"SafeERC20: TRANSFER_FROM_FAILED\"\n        );\n    }\n}\n\ncontract AdminManagable {\n    bool public underAdmin = false;\n    address public admin;\n\n    modifier onlyAdmin() {\n        require(isAdmin());\n        _;\n    }\n\n    function isAdmin() internal view returns (bool) {\n        return (underAdmin == true && msg.sender == admin);\n    }\n\n    function allowAdmin(address _admin) internal {\n        admin = _admin;\n        underAdmin = true;\n        emit LogAllowAdmin(admin);\n    }\n\n    function forbidAdmin() external onlyAdmin {\n        underAdmin = false;\n        emit LogForbitAdmin();\n    }\n\n    event LogAllowAdmin(address indexed admin);\n    event LogForbitAdmin();\n}\n\ncontract AnyswapV5ERC20 is IERC20, AdminManagable {\n    using SafeERC20 for IERC20;\n\n    string public name;\n    string public symbol;\n    uint8 public override decimals;\n\n    address public underlying;\n\n    /// @dev Records amount of AnyswapV5ERC20 token owned by account.\n    mapping(address => uint256) public override balanceOf;\n    uint256 private _totalSupply;\n\n    /// @dev Records number of AnyswapV5ERC20 token that account (second) will be allowed to spend on behalf of another account (first) through {transferFrom}.\n    mapping(address => mapping(address => uint256)) public override allowance;\n\n    // init flag for setting immediate vault, needed for CREATE2 support\n    bool public initialized;\n\n    // flag to enable/disable swapout vs vault.burn so multiple events are triggered\n    bool public vaultOnly;\n\n    // configurable delay for timelock functions\n    uint256 public constant delay = 2 * 24 * 3600;\n\n    // set of minters, can be this bridge or other bridges\n    mapping(address => bool) public isMinter;\n    address[] public minters;\n\n    // primary controller of the token contract\n    address public vault;\n\n    address public pendingMinter;\n    uint256 public delayMinter;\n\n    address public pendingVault;\n    uint256 public delayVault;\n\n    modifier onlyAuth() {\n        require(isAdmin() || isMinter[msg.sender], \"AnyswapV5ERC20: FORBIDDEN\");\n        _;\n    }\n\n    modifier onlyVault() {\n        require(isAdmin() || msg.sender == vault, \"AnyswapV5ERC20: FORBIDDEN\");\n        _;\n    }\n\n    function owner() external view returns (address) {\n        return vault;\n    }\n\n    function mpc() external view returns (address) {\n        return vault;\n    }\n\n    function setVaultOnly(bool enabled) external onlyVault {\n        vaultOnly = enabled;\n    }\n\n    function setVault(address _vault) external onlyVault {\n        pendingVault = _vault;\n        delayVault = block.timestamp + delay;\n    }\n\n    function setVaultInstantly(address _vault) external onlyAdmin {\n        pendingVault = _vault;\n        delayVault = block.timestamp;\n        emit LogChangeVault(vault, pendingVault, block.timestamp);\n        vault = pendingVault;\n        pendingVault = address(0);\n    }\n\n    function applyVault() external {\n        require(msg.sender == pendingVault);\n        require(block.timestamp >= delayVault);\n        emit LogChangeVault(vault, pendingVault, block.timestamp);\n        vault = pendingVault;\n        pendingVault = address(0);\n    }\n\n    function setMinter(address _auth) external onlyVault {\n        pendingMinter = _auth;\n        delayMinter = block.timestamp + delay;\n    }\n\n    function applyMinter() external {\n        require(msg.sender == pendingMinter);\n        require(block.timestamp >= delayMinter);\n        emit LogAddAuth(pendingMinter, block.timestamp);\n        isMinter[pendingMinter] = true;\n        minters.push(pendingMinter);\n        pendingMinter = address(0);\n    }\n\n    // No time delay revoke minter emergency function\n    function revokeMinter(address _auth) external onlyVault {\n        isMinter[_auth] = false;\n        emit LogRevokeAuth(_auth, block.timestamp);\n    }\n\n    function getAllMintersLength() external view returns (uint256) {\n        return minters.length;\n    }\n\n    function getAllMinters() external view returns (address[] memory) {\n        return minters;\n    }\n\n    function mint(address to, uint256 amount) external onlyAuth returns (bool) {\n        require(to != address(0), \"AnyswapV5ERC20: address(0x0)\");\n        _mint(to, amount);\n        return true;\n    }\n\n    function burn(address from, uint256 amount)\n        external\n        onlyAuth\n        returns (bool)\n    {\n        require(from != address(0), \"AnyswapV5ERC20: address(0x0)\");\n        _burn(from, amount);\n        return true;\n    }\n\n    function Swapin(\n        bytes32 txhash,\n        address account,\n        uint256 amount\n    ) public onlyAuth returns (bool) {\n        require(!vaultOnly, \"AnyswapV5ERC20: vaultOnly\");\n        _mint(account, amount);\n        emit LogSwapin(txhash, account, amount);\n        return true;\n    }\n\n    function Swapout(uint256 amount, address bindaddr) public returns (bool) {\n        require(!vaultOnly, \"AnyswapV5ERC20: vaultOnly\");\n        require(bindaddr != address(0), \"AnyswapV5ERC20: address(0x0)\");\n        _burn(msg.sender, amount);\n        emit LogSwapout(msg.sender, bindaddr, amount);\n        return true;\n    }\n\n    event LogChangeVault(\n        address indexed oldVault,\n        address indexed newVault,\n        uint256 indexed effectiveTime\n    );\n    event LogSwapin(\n        bytes32 indexed txhash,\n        address indexed account,\n        uint256 amount\n    );\n    event LogSwapout(\n        address indexed account,\n        address indexed bindaddr,\n        uint256 amount\n    );\n    event LogAddAuth(address indexed auth, uint256 timestamp);\n    event LogRevokeAuth(address indexed auth, uint256 timestamp);\n\n    constructor(\n        string memory _name,\n        string memory _symbol,\n        uint8 _decimals,\n        address _underlying,\n        bool underAdmin\n    ) {\n        require(!initialized, \"AnyswapV5ERC20: already initialized\");\n\n        name = _name;\n        symbol = _symbol;\n        decimals = _decimals;\n        underlying = _underlying;\n        if (_underlying != address(0x0)) {\n            require(_decimals == IERC20(_underlying).decimals());\n        }\n\n        if (underAdmin == true) {\n            allowAdmin(msg.sender);\n        }\n\n        // Use init to allow for CREATE2 accross all chains\n        initialized = true;\n    }\n\n    function initVault(address _vault, bool _isV1) external {\n        // Disable/Enable swapout for v1 tokens vs mint/burn for v3 tokens\n        vaultOnly = !_isV1;\n\n        vault = _vault;\n        isMinter[_vault] = true;\n        minters.push(_vault);\n    }\n\n    /// @dev Returns the total supply of AnyswapV5ERC20 token as the ETH held in this contract.\n    function totalSupply() external view override returns (uint256) {\n        return _totalSupply;\n    }\n\n    function deposit(uint256 amount) external returns (uint256) {\n        IERC20(underlying).safeTransferFrom(msg.sender, address(this), amount);\n        return _deposit(amount, msg.sender);\n    }\n\n    function deposit(uint256 amount, address to) external returns (uint256) {\n        IERC20(underlying).safeTransferFrom(msg.sender, address(this), amount);\n        return _deposit(amount, to);\n    }\n\n    function depositVault(uint256 amount, address to)\n        external\n        onlyVault\n        returns (uint256)\n    {\n        return _deposit(amount, to);\n    }\n\n    function _deposit(uint256 amount, address to) internal returns (uint256) {\n        require(underlying != address(0x0) && underlying != address(this));\n        _mint(to, amount);\n        return amount;\n    }\n\n    function withdraw(uint256 amount) external returns (uint256) {\n        return _withdraw(msg.sender, amount, msg.sender);\n    }\n\n    function withdraw(uint256 amount, address to) external returns (uint256) {\n        return _withdraw(msg.sender, amount, to);\n    }\n\n    function withdrawVault(\n        address from,\n        uint256 amount,\n        address to\n    ) external onlyVault returns (uint256) {\n        return _withdraw(from, amount, to);\n    }\n\n    function _withdraw(\n        address from,\n        uint256 amount,\n        address to\n    ) internal returns (uint256) {\n        require(underlying != address(0x0) && underlying != address(this));\n        _burn(from, amount);\n        IERC20(underlying).safeTransfer(to, amount);\n        return amount;\n    }\n\n    /** @dev Creates `amount` tokens and assigns them to `account`, increasing\n     * the total supply.\n     *\n     * Emits a {Transfer} event with `from` set to the zero address.\n     *\n     * Requirements\n     *\n     * - `to` cannot be the zero address.\n     */\n    function _mint(address account, uint256 amount) internal {\n        require(\n            account != address(0),\n            \"AnyswapV5ERC20: mint to the zero address\"\n        );\n\n        uint256 newTotalSupply = _totalSupply + amount;\n        require(\n            newTotalSupply >= _totalSupply,\n            \"AnyswapV5ERC20: total supply overflow\"\n        );\n\n        _totalSupply = newTotalSupply;\n        balanceOf[account] += amount;\n        emit Transfer(address(0), account, amount);\n    }\n\n    /**\n     * @dev Destroys `amount` tokens from `account`, reducing the\n     * total supply.\n     *\n     * Emits a {Transfer} event with `to` set to the zero address.\n     *\n     * Requirements\n     *\n     * - `account` cannot be the zero address.\n     * - `account` must have at least `amount` tokens.\n     */\n    function _burn(address account, uint256 amount) internal {\n        require(\n            account != address(0),\n            \"AnyswapV5ERC20: burn from the zero address\"\n        );\n\n        uint256 balance = balanceOf[account];\n        require(\n            balance >= amount,\n            \"AnyswapV5ERC20: burn amount exceeds balance\"\n        );\n\n        balanceOf[account] = balance - amount;\n        _totalSupply -= amount;\n        emit Transfer(account, address(0), amount);\n    }\n\n    /// @dev Sets `value` as allowance of `spender` account over caller account's AnyswapV5ERC20 token.\n    /// Emits {Approval} event.\n    /// Returns boolean value indicating whether operation succeeded.\n    function approve(address spender, uint256 value)\n        external\n        override\n        returns (bool)\n    {\n        allowance[msg.sender][spender] = value;\n        emit Approval(msg.sender, spender, value);\n\n        return true;\n    }\n\n    /// @dev Moves `value` AnyswapV5ERC20 token from caller's account to account (`to`).\n    /// A transfer to `address(0)` triggers an ETH withdraw matching the sent AnyswapV5ERC20 token in favor of caller.\n    /// Emits {Transfer} event.\n    /// Returns boolean value indicating whether operation succeeded.\n    /// Requirements:\n    ///   - caller account must have at least `value` AnyswapV5ERC20 token.\n    function transfer(address to, uint256 value)\n        external\n        override\n        returns (bool)\n    {\n        require(to != address(0) || to != address(this));\n        uint256 balance = balanceOf[msg.sender];\n        require(\n            balance >= value,\n            \"AnyswapV5ERC20: transfer amount exceeds balance\"\n        );\n\n        balanceOf[msg.sender] = balance - value;\n        balanceOf[to] += value;\n        emit Transfer(msg.sender, to, value);\n\n        return true;\n    }\n\n    /// @dev Moves `value` AnyswapV5ERC20 token from account (`from`) to account (`to`) using allowance mechanism.\n    /// `value` is then deducted from caller account's allowance, unless set to `type(uint256).max`.\n    /// A transfer to `address(0)` triggers an ETH withdraw matching the sent AnyswapV5ERC20 token in favor of caller.\n    /// Emits {Approval} event to reflect reduced allowance `value` for caller account to spend from account (`from`),\n    /// unless allowance is set to `type(uint256).max`\n    /// Emits {Transfer} event.\n    /// Returns boolean value indicating whether operation succeeded.\n    /// Requirements:\n    ///   - `from` account must have at least `value` balance of AnyswapV5ERC20 token.\n    ///   - `from` account must have approved caller to spend at least `value` of AnyswapV5ERC20 token, unless `from` and caller are the same account.\n    function transferFrom(\n        address from,\n        address to,\n        uint256 value\n    ) external override returns (bool) {\n        require(to != address(0) || to != address(this));\n        if (from != msg.sender) {\n            uint256 allowed = allowance[from][msg.sender];\n            if (allowed != type(uint256).max) {\n                require(\n                    allowed >= value,\n                    \"AnyswapV5ERC20: request exceeds allowance\"\n                );\n                uint256 reduced = allowed - value;\n                allowance[from][msg.sender] = reduced;\n                emit Approval(from, msg.sender, reduced);\n            }\n        }\n\n        uint256 balance = balanceOf[from];\n        require(\n            balance >= value,\n            \"AnyswapV5ERC20: transfer amount exceeds balance\"\n        );\n\n        balanceOf[from] = balance - value;\n        balanceOf[to] += value;\n        emit Transfer(from, to, value);\n\n        return true;\n    }\n}\n",
  "sourcePath": "/home/justin/anyswap/L2Router/contracts/boba/contracts/BOBA_AnyswapV5ERC20.sol",
  "compiler": {
    "name": "solc",
    "version": "0.7.6"
  },
  "schemaVersion": "3.2.4",
  "updatedAt": "2021-09-16T09:57:22.723Z",
  "networkType": "ethereum",
  "devdoc": {
    "kind": "dev",
    "methods": {
      "approve(address,uint256)": {
        "details": "Sets `value` as allowance of `spender` account over caller account's AnyswapV5ERC20 token. Emits {Approval} event. Returns boolean value indicating whether operation succeeded."
      },
      "totalSupply()": {
        "details": "Returns the total supply of AnyswapV5ERC20 token as the ETH held in this contract."
      },
      "transfer(address,uint256)": {
        "details": "Moves `value` AnyswapV5ERC20 token from caller's account to account (`to`). A transfer to `address(0)` triggers an ETH withdraw matching the sent AnyswapV5ERC20 token in favor of caller. Emits {Transfer} event. Returns boolean value indicating whether operation succeeded. Requirements:   - caller account must have at least `value` AnyswapV5ERC20 token."
      },
      "transferFrom(address,address,uint256)": {
        "details": "Moves `value` AnyswapV5ERC20 token from account (`from`) to account (`to`) using allowance mechanism. `value` is then deducted from caller account's allowance, unless set to `type(uint256).max`. A transfer to `address(0)` triggers an ETH withdraw matching the sent AnyswapV5ERC20 token in favor of caller. Emits {Approval} event to reflect reduced allowance `value` for caller account to spend from account (`from`), unless allowance is set to `type(uint256).max` Emits {Transfer} event. Returns boolean value indicating whether operation succeeded. Requirements:   - `from` account must have at least `value` balance of AnyswapV5ERC20 token.   - `from` account must have approved caller to spend at least `value` of AnyswapV5ERC20 token, unless `from` and caller are the same account."
      }
    },
    "stateVariables": {
      "allowance": {
        "details": "Records number of AnyswapV5ERC20 token that account (second) will be allowed to spend on behalf of another account (first) through {transferFrom}."
      },
      "balanceOf": {
        "details": "Records amount of AnyswapV5ERC20 token owned by account."
      }
    },
    "version": 1
  },
  "userdoc": {
    "kind": "user",
    "methods": {},
    "version": 1
  }
}