{
  "contractName": "AdminManagable",
  "abi": [
    {
      "anonymous": false,
      "inputs": [
        {
          "indexed": true,
          "internalType": "address",
          "name": "admin",
          "type": "address"
        }
      ],
      "name": "LogAllowAdmin",
      "type": "event"
    },
    {
      "anonymous": false,
      "inputs": [],
      "name": "LogForbitAdmin",
      "type": "event"
    },
    {
      "inputs": [],
      "name": "admin",
      "outputs": [
        {
          "internalType": "address",
          "name": "",
          "type": "address"
        }
      ],
      "stateMutability": "view",
      "type": "function"
    },
    {
      "inputs": [],
      "name": "underAdmin",
      "outputs": [
        {
          "internalType": "bool",
          "name": "",
          "type": "bool"
        }
      ],
      "stateMutability": "view",
      "type": "function"
    },
    {
      "inputs": [],
      "name": "forbidAdmin",
      "outputs": [],
      "stateMutability": "nonpayable",
      "type": "function"
    }
  ],
  "bytecode": "0x6080604052600080600181610012610045565b8160ff021916908315150217906100276100a5565b50505034801561003f5760008061003c6100f3565b50505b5061015e565b6303daa959598160e01b8152836004820152602081602483336000905af158600e01573d6000803e3d6000fd5b3d6001141558600a015760016000f35b8051935060005b60408110156100a057600082820152602001610089565b505050565b6322bd64c0598160e01b8152836004820152846024820152600081604483336000905af158600e01573d6000803e3d6000fd5b3d6001141558600a015760016000f35b600081526020610089565b632a2a7adb598160e01b8152600481016020815285602082015260005b8681101561012b578086015182820160400152602001610110565b506020828760640184336000905af158600e01573d6000803e3d6000fd5b3d6001141558600a015760016000f35b505050565b6103088061016d6000396000f3fe6080604052348015610019576000806100166101a9565b50505b506004361061004a5760003560e01c80636ce65fe514610058578063dcd3564614610074578063f851a4401461007e575b6000806100556101a9565b50505b6100606100a2565b604051901515815260200160405180910390f35b61007c6100ba565b005b610086610128565b6040516001600160a01b03909116815260200160405180910390f35b6000806100ad610214565b906101000a900460ff1681565b6100c2610147565b6100d4576000806100d16101a9565b50505b6000806001816100e2610214565b8160ff021916908315150217906100f7610274565b5050507f84f44a11e6386cfcb5e3f85d5fbd3dce7f88fe8ac94c250cbec731c8c83cde7b60405160405180910390a1565b60016000610134610214565b906101000a90046001600160a01b031681565b60008080610153610214565b906101000a900460ff161515600115151480156101a4575060016000610177610214565b906101000a90046001600160a01b03166001600160a01b03165a6101996102c2565b6001600160a01b0316145b905090565b632a2a7adb598160e01b8152600481016020815285602082015260005b868110156101e15780860151828201604001526020016101c6565b506020828760640184336000905af158600e01573d6000803e3d6000fd5b3d6001141558600a015760016000f35b505050565b6303daa959598160e01b8152836004820152602081602483336000905af158600e01573d6000803e3d6000fd5b3d6001141558600a015760016000f35b8051935060005b604081101561026f57600082820152602001610258565b505050565b6322bd64c0598160e01b8152836004820152846024820152600081604483336000905af158600e01573d6000803e3d6000fd5b3d6001141558600a015760016000f35b600081526020610258565b6373509064598160e01b8152602081600483336000905af158600e01573d6000803e3d6000fd5b3d6001141558600a015760016000f35b8051600082529350602061025856",
  "immutableReferences": {},
  "source": "// SPDX-License-Identifier: GPL-3.0-or-later\n\npragma solidity 0.7.6;\n\n/// @dev Interface of the ERC20 standard as defined in the EIP.\ninterface IERC20 {\n    function totalSupply() external view returns (uint256);\n\n    function decimals() external view returns (uint8);\n\n    function balanceOf(address account) external view returns (uint256);\n\n    function allowance(address owner, address spender)\n        external\n        view\n        returns (uint256);\n\n    function approve(address spender, uint256 amount) external returns (bool);\n\n    function transfer(address recipient, uint256 amount)\n        external\n        returns (bool);\n\n    function transferFrom(\n        address sender,\n        address recipient,\n        uint256 amount\n    ) external returns (bool);\n\n    event Transfer(address indexed from, address indexed to, uint256 value);\n    event Approval(\n        address indexed owner,\n        address indexed spender,\n        uint256 value\n    );\n}\n\n/// @dev library of SafeERC20\nlibrary SafeERC20 {\n    function safeTransfer(\n        IERC20 token,\n        address to,\n        uint256 value\n    ) internal {\n        (bool success, bytes memory data) = address(token).call(\n            abi.encodeWithSelector(token.transfer.selector, to, value)\n        );\n        require(\n            success && (data.length == 0 || abi.decode(data, (bool))),\n            \"SafeERC20: TRANSFER_FAILED\"\n        );\n    }\n\n    function safeTransferFrom(\n        IERC20 token,\n        address from,\n        address to,\n        uint256 value\n    ) internal {\n        (bool success, bytes memory data) = address(token).call(\n            abi.encodeWithSelector(token.transferFrom.selector, from, to, value)\n        );\n        require(\n            success && (data.length == 0 || abi.decode(data, (bool))),\n            \"SafeERC20: TRANSFER_FROM_FAILED\"\n        );\n    }\n}\n\ncontract AdminManagable {\n    bool public underAdmin = false;\n    address public admin;\n\n    modifier onlyAdmin() {\n        require(isAdmin());\n        _;\n    }\n\n    function isAdmin() internal view returns (bool) {\n        return (underAdmin == true && msg.sender == admin);\n    }\n\n    function allowAdmin(address _admin) internal {\n        admin = _admin;\n        underAdmin = true;\n        emit LogAllowAdmin(admin);\n    }\n\n    function forbidAdmin() external onlyAdmin {\n        underAdmin = false;\n        emit LogForbitAdmin();\n    }\n\n    event LogAllowAdmin(address indexed admin);\n    event LogForbitAdmin();\n}\n\ncontract AnyswapV5ERC20 is IERC20, AdminManagable {\n    using SafeERC20 for IERC20;\n\n    string public name;\n    string public symbol;\n    uint8 public override decimals;\n\n    address public underlying;\n\n    /// @dev Records amount of AnyswapV5ERC20 token owned by account.\n    mapping(address => uint256) public override balanceOf;\n    uint256 private _totalSupply;\n\n    /// @dev Records number of AnyswapV5ERC20 token that account (second) will be allowed to spend on behalf of another account (first) through {transferFrom}.\n    mapping(address => mapping(address => uint256)) public override allowance;\n\n    // init flag for setting immediate vault, needed for CREATE2 support\n    bool public initialized;\n\n    // flag to enable/disable swapout vs vault.burn so multiple events are triggered\n    bool public vaultOnly;\n\n    // configurable delay for timelock functions\n    uint256 public constant delay = 2 * 24 * 3600;\n\n    // set of minters, can be this bridge or other bridges\n    mapping(address => bool) public isMinter;\n    address[] public minters;\n\n    // primary controller of the token contract\n    address public vault;\n\n    address public pendingMinter;\n    uint256 public delayMinter;\n\n    address public pendingVault;\n    uint256 public delayVault;\n\n    modifier onlyAuth() {\n        require(isAdmin() || isMinter[msg.sender], \"AnyswapV5ERC20: FORBIDDEN\");\n        _;\n    }\n\n    modifier onlyVault() {\n        require(isAdmin() || msg.sender == vault, \"AnyswapV5ERC20: FORBIDDEN\");\n        _;\n    }\n\n    function owner() external view returns (address) {\n        return vault;\n    }\n\n    function mpc() external view returns (address) {\n        return vault;\n    }\n\n    function setVaultOnly(bool enabled) external onlyVault {\n        vaultOnly = enabled;\n    }\n\n    function setVault(address _vault) external onlyVault {\n        pendingVault = _vault;\n        delayVault = block.timestamp + delay;\n    }\n\n    function setVaultInstantly(address _vault) external onlyAdmin {\n        pendingVault = _vault;\n        delayVault = block.timestamp;\n        emit LogChangeVault(vault, pendingVault, block.timestamp);\n        vault = pendingVault;\n        pendingVault = address(0);\n    }\n\n    function applyVault() external {\n        require(msg.sender == pendingVault);\n        require(block.timestamp >= delayVault);\n        emit LogChangeVault(vault, pendingVault, block.timestamp);\n        vault = pendingVault;\n        pendingVault = address(0);\n    }\n\n    function setMinter(address _auth) external onlyVault {\n        pendingMinter = _auth;\n        delayMinter = block.timestamp + delay;\n    }\n\n    function applyMinter() external {\n        require(msg.sender == pendingMinter);\n        require(block.timestamp >= delayMinter);\n        emit LogAddAuth(pendingMinter, block.timestamp);\n        isMinter[pendingMinter] = true;\n        minters.push(pendingMinter);\n        pendingMinter = address(0);\n    }\n\n    // No time delay revoke minter emergency function\n    function revokeMinter(address _auth) external onlyVault {\n        isMinter[_auth] = false;\n        emit LogRevokeAuth(_auth, block.timestamp);\n    }\n\n    function getAllMintersLength() external view returns (uint256) {\n        return minters.length;\n    }\n\n    function getAllMinters() external view returns (address[] memory) {\n        return minters;\n    }\n\n    function mint(address to, uint256 amount) external onlyAuth returns (bool) {\n        require(to != address(0), \"AnyswapV5ERC20: address(0x0)\");\n        _mint(to, amount);\n        return true;\n    }\n\n    function burn(address from, uint256 amount)\n        external\n        onlyAuth\n        returns (bool)\n    {\n        require(from != address(0), \"AnyswapV5ERC20: address(0x0)\");\n        _burn(from, amount);\n        return true;\n    }\n\n    function Swapin(\n        bytes32 txhash,\n        address account,\n        uint256 amount\n    ) public onlyAuth returns (bool) {\n        require(!vaultOnly, \"AnyswapV5ERC20: vaultOnly\");\n        _mint(account, amount);\n        emit LogSwapin(txhash, account, amount);\n        return true;\n    }\n\n    function Swapout(uint256 amount, address bindaddr) public returns (bool) {\n        require(!vaultOnly, \"AnyswapV5ERC20: vaultOnly\");\n        require(bindaddr != address(0), \"AnyswapV5ERC20: address(0x0)\");\n        _burn(msg.sender, amount);\n        emit LogSwapout(msg.sender, bindaddr, amount);\n        return true;\n    }\n\n    event LogChangeVault(\n        address indexed oldVault,\n        address indexed newVault,\n        uint256 indexed effectiveTime\n    );\n    event LogSwapin(\n        bytes32 indexed txhash,\n        address indexed account,\n        uint256 amount\n    );\n    event LogSwapout(\n        address indexed account,\n        address indexed bindaddr,\n        uint256 amount\n    );\n    event LogAddAuth(address indexed auth, uint256 timestamp);\n    event LogRevokeAuth(address indexed auth, uint256 timestamp);\n\n    constructor(\n        string memory _name,\n        string memory _symbol,\n        uint8 _decimals,\n        address _underlying,\n        bool underAdmin\n    ) {\n        require(!initialized, \"AnyswapV5ERC20: already initialized\");\n\n        name = _name;\n        symbol = _symbol;\n        decimals = _decimals;\n        underlying = _underlying;\n        if (_underlying != address(0x0)) {\n            require(_decimals == IERC20(_underlying).decimals());\n        }\n\n        if (underAdmin == true) {\n            allowAdmin(msg.sender);\n        }\n\n        // Use init to allow for CREATE2 accross all chains\n        initialized = true;\n    }\n\n    function initVault(address _vault, bool _isV1) external {\n        // Disable/Enable swapout for v1 tokens vs mint/burn for v3 tokens\n        vaultOnly = !_isV1;\n\n        vault = _vault;\n        isMinter[_vault] = true;\n        minters.push(_vault);\n    }\n\n    /// @dev Returns the total supply of AnyswapV5ERC20 token as the ETH held in this contract.\n    function totalSupply() external view override returns (uint256) {\n        return _totalSupply;\n    }\n\n    function deposit(uint256 amount) external returns (uint256) {\n        IERC20(underlying).safeTransferFrom(msg.sender, address(this), amount);\n        return _deposit(amount, msg.sender);\n    }\n\n    function deposit(uint256 amount, address to) external returns (uint256) {\n        IERC20(underlying).safeTransferFrom(msg.sender, address(this), amount);\n        return _deposit(amount, to);\n    }\n\n    function depositVault(uint256 amount, address to)\n        external\n        onlyVault\n        returns (uint256)\n    {\n        return _deposit(amount, to);\n    }\n\n    function _deposit(uint256 amount, address to) internal returns (uint256) {\n        require(underlying != address(0x0) && underlying != address(this));\n        _mint(to, amount);\n        return amount;\n    }\n\n    function withdraw(uint256 amount) external returns (uint256) {\n        return _withdraw(msg.sender, amount, msg.sender);\n    }\n\n    function withdraw(uint256 amount, address to) external returns (uint256) {\n        return _withdraw(msg.sender, amount, to);\n    }\n\n    function withdrawVault(\n        address from,\n        uint256 amount,\n        address to\n    ) external onlyVault returns (uint256) {\n        return _withdraw(from, amount, to);\n    }\n\n    function _withdraw(\n        address from,\n        uint256 amount,\n        address to\n    ) internal returns (uint256) {\n        require(underlying != address(0x0) && underlying != address(this));\n        _burn(from, amount);\n        IERC20(underlying).safeTransfer(to, amount);\n        return amount;\n    }\n\n    /** @dev Creates `amount` tokens and assigns them to `account`, increasing\n     * the total supply.\n     *\n     * Emits a {Transfer} event with `from` set to the zero address.\n     *\n     * Requirements\n     *\n     * - `to` cannot be the zero address.\n     */\n    function _mint(address account, uint256 amount) internal {\n        require(\n            account != address(0),\n            \"AnyswapV5ERC20: mint to the zero address\"\n        );\n\n        uint256 newTotalSupply = _totalSupply + amount;\n        require(\n            newTotalSupply >= _totalSupply,\n            \"AnyswapV5ERC20: total supply overflow\"\n        );\n\n        _totalSupply = newTotalSupply;\n        balanceOf[account] += amount;\n        emit Transfer(address(0), account, amount);\n    }\n\n    /**\n     * @dev Destroys `amount` tokens from `account`, reducing the\n     * total supply.\n     *\n     * Emits a {Transfer} event with `to` set to the zero address.\n     *\n     * Requirements\n     *\n     * - `account` cannot be the zero address.\n     * - `account` must have at least `amount` tokens.\n     */\n    function _burn(address account, uint256 amount) internal {\n        require(\n            account != address(0),\n            \"AnyswapV5ERC20: burn from the zero address\"\n        );\n\n        uint256 balance = balanceOf[account];\n        require(\n            balance >= amount,\n            \"AnyswapV5ERC20: burn amount exceeds balance\"\n        );\n\n        balanceOf[account] = balance - amount;\n        _totalSupply -= amount;\n        emit Transfer(account, address(0), amount);\n    }\n\n    /// @dev Sets `value` as allowance of `spender` account over caller account's AnyswapV5ERC20 token.\n    /// Emits {Approval} event.\n    /// Returns boolean value indicating whether operation succeeded.\n    function approve(address spender, uint256 value)\n        external\n        override\n        returns (bool)\n    {\n        allowance[msg.sender][spender] = value;\n        emit Approval(msg.sender, spender, value);\n\n        return true;\n    }\n\n    /// @dev Moves `value` AnyswapV5ERC20 token from caller's account to account (`to`).\n    /// A transfer to `address(0)` triggers an ETH withdraw matching the sent AnyswapV5ERC20 token in favor of caller.\n    /// Emits {Transfer} event.\n    /// Returns boolean value indicating whether operation succeeded.\n    /// Requirements:\n    ///   - caller account must have at least `value` AnyswapV5ERC20 token.\n    function transfer(address to, uint256 value)\n        external\n        override\n        returns (bool)\n    {\n        require(to != address(0) || to != address(this));\n        uint256 balance = balanceOf[msg.sender];\n        require(\n            balance >= value,\n            \"AnyswapV5ERC20: transfer amount exceeds balance\"\n        );\n\n        balanceOf[msg.sender] = balance - value;\n        balanceOf[to] += value;\n        emit Transfer(msg.sender, to, value);\n\n        return true;\n    }\n\n    /// @dev Moves `value` AnyswapV5ERC20 token from account (`from`) to account (`to`) using allowance mechanism.\n    /// `value` is then deducted from caller account's allowance, unless set to `type(uint256).max`.\n    /// A transfer to `address(0)` triggers an ETH withdraw matching the sent AnyswapV5ERC20 token in favor of caller.\n    /// Emits {Approval} event to reflect reduced allowance `value` for caller account to spend from account (`from`),\n    /// unless allowance is set to `type(uint256).max`\n    /// Emits {Transfer} event.\n    /// Returns boolean value indicating whether operation succeeded.\n    /// Requirements:\n    ///   - `from` account must have at least `value` balance of AnyswapV5ERC20 token.\n    ///   - `from` account must have approved caller to spend at least `value` of AnyswapV5ERC20 token, unless `from` and caller are the same account.\n    function transferFrom(\n        address from,\n        address to,\n        uint256 value\n    ) external override returns (bool) {\n        require(to != address(0) || to != address(this));\n        if (from != msg.sender) {\n            uint256 allowed = allowance[from][msg.sender];\n            if (allowed != type(uint256).max) {\n                require(\n                    allowed >= value,\n                    \"AnyswapV5ERC20: request exceeds allowance\"\n                );\n                uint256 reduced = allowed - value;\n                allowance[from][msg.sender] = reduced;\n                emit Approval(from, msg.sender, reduced);\n            }\n        }\n\n        uint256 balance = balanceOf[from];\n        require(\n            balance >= value,\n            \"AnyswapV5ERC20: transfer amount exceeds balance\"\n        );\n\n        balanceOf[from] = balance - value;\n        balanceOf[to] += value;\n        emit Transfer(from, to, value);\n\n        return true;\n    }\n}\n",
  "sourcePath": "/home/justin/anyswap/L2Router/contracts/optimism/contracts/OP_AnyswapV5ERC20.sol",
  "compiler": {
    "name": "solc",
    "version": "0.7.6"
  },
  "schemaVersion": "3.2.4",
  "updatedAt": "2021-09-02T08:33:24.952Z",
  "devdoc": {
    "kind": "dev",
    "methods": {},
    "version": 1
  },
  "userdoc": {
    "kind": "user",
    "methods": {},
    "version": 1
  }
}